:020000040800F2
:10000000E84D002099010008C3290008C523000815
:10001000C1290008750400083D30000800000000F8
:1000200000000000000000000000000001010008C6
:10003000D70400080000000045010008CD29000891
:10004000B3010008B3010008B3010008B3010008C0
:10005000B3010008B3010008B3010008B3010008B0
:10006000B3010008B3010008B3010008B3010008A0
:10007000B3010008B30100088904000895040008D2
:10008000B3010008A1040008B3010008B30100088F
:1000900031300008B3010008B3010008B3010008C3
:1000A000B3010008492A0008B3010008B3010008A1
:1000B000B3010008B3010008B3010008B301000850
:1000C000B3010008B3010008B3010008B301000840
:1000D000B3010008992F000825300008B30100087B
:1000E000B3010008B3010008B3010008DFF80CD029
:1000F00000F0DEF8004800474D4E0008E84D0020B3
:10010000224B19680868B0E8F00F80F30988BFF344
:100110006F8F4FF0000080F311884EF00D0E704786
:100120000000000006480068006880F3088862B696
:1001300061B6BFF34F8FBFF36F8F00DF00BF00BF0B
:1001400008ED00E0EFF30980BFF36F8F0F4B1A68E3
:1001500020E9F00F106008B54FF0500080F31188CF
:10016000BFF34F8FBFF36F8F06F0E6FF4FF0000035
:1001700080F31188BDE8084019680868B0E8F00FFE
:1001800080F30988BFF36F8F704700BF2000002005
:10019000EFF3058070470000064880470648004797
:1001A000FEE7FEE7FEE7FEE7FEE7FEE7FEE7FEE727
:1001B000FEE7FEE7472A0008ED000008202A04DBDE
:1001C000203A21FA02F00021704721FA02F3D040D0
:1001D000C2F12002914008431946704740EA0103EA
:1001E0009B0703D009E008C9121F08C0042AFAD2ED
:1001F00003E011F8013B00F8013B521EF9D27047B1
:10020000D2B201E000F8012B491EFBD27047002258
:10021000F6E710B513460A4604461946FFF7F0FF05
:10022000204610BD421C10F8011B0029FBD1801A8A
:10023000704710B5002200E0521C835C8C5CA34226
:1002400001D1002BF8D1D8B2E1B2401A10BD2DE98E
:10025000F05F0546002092469B468846064681464A
:1002600040241BE02846414647462246FFF7A6FFAA
:1002700053465A46C01A914110D311461846224699
:1002800000F028F82D1A67EB01084F46224601209E
:10029000002100F01FF817EB00094E41201EA4F1C9
:1002A0000104DFDC484631462A464346BDE8F09F5C
:1002B000064C074D06E0E06840F0010394E80700B3
:1002C00098471034AC42F6D3FFF714FFA082000821
:1002D000C0820008202A04DB203A00FA02F1002044
:1002E00070479140C2F1200320FA03F31943904074
:1002F000704770B58C1810F8015B15F0070301D139
:1003000010F8013B2A1106D110F8012B03E010F878
:10031000016B01F8016B5B1EF9D12B0705D400239B
:10032000521E0DD401F8013BFAE710F8013BCB1A3D
:10033000921C03E013F8015B01F8015B521EF9D532
:10034000A142D8D3002070BD0C4C86B000250120FE
:1003500004F0CAFD6B46022209A1002003F0DEFF73
:100360009DF80000012805D12078401CC0B2207003
:10037000642800D9257003F003FCE8E7C80E0020CC
:100380006B6579300000000070B51D4D06468EB0DB
:1003900028780C46401CC0B22870C82827D33221C8
:1003A0001848FFF734FF24B323463246322115485C
:1003B00002F056FE214614A002F042FE34216846A7
:1003C000FFF725FF0F48FFF72DFFC2B28DF8002081
:1003D0000C490DF10100FFF701FF9DF800008DF8B9
:1003E00033006946002006F017FC002028700EB08C
:1003F00070BD32463221034802F032FE3146DAE760
:10040000C90E0020584A002025730A000125144C0B
:1004100086B04FF4FA7600274FF00208012004F06E
:1004200063FD207850B903F0B7F98DF800506B46A2
:1004300003220CA1002003F071FF25706088B042F8
:1004400009D367808DF800806B46032208A1002045
:1004500003F064FF01E0401C608006F0BDFBDDE7B7
:10046000C80C002069736F5F61635F6374726C0016
:100470006C656400FEE7012004F036FD03F004FC27
:1004800001F0A1FFF7E70000014800F061BC0000A7
:1004900074100020014800F05BBC00003010002008
:1004A000014800F055BC0000B810002030B590F8AD
:1004B00040500124AC40C56B6C60046863604368C5
:1004C000102B036803D099600068C26030BD9A6049
:1004D0000068C16030BD704772B6FEE790F820201A
:1004E000012A07D0022A05D0416A41F480214162E5
:1004F00001207047006842690A434261002070474A
:10050000F0B590F820500468A468012D05D0022DA4
:1005100003D0416A41F480214DE014F0406F01D1D5
:10052000E50045D5C4F301640125A5401D608D6833
:100530004FF4C0739DB1CE6835434E6845EAC60599
:10054000066803EB0417F5514FF4C275076805EB15
:1005500004150E697E51097D012905D009E00E8838
:10056000CD6845EA4655EBE701684E5946F480767A
:100570004E511179D2F805504FF4C67641EA052163
:10058000056806EB0416A9511178D2F801204FF442
:10059000C47541EA0221026805EB04155151006857
:1005A00003EB0411425842F0010242500020F0BD1A
:1005B000416A41F4001141620120F0BD10B5040010
:1005C0000ED000F0F1FA204600F03AFA20680168F7
:1005D00041F4004101600020606284F8200010BDF9
:1005E000012010BD704770B590F82040012C05D057
:1005F000022C03D0416A41F4802128E0046809B349
:100600002469A40720D04FF4D874056804EB0114C2
:100610002D5915F00405956005682D591AD0ED087F
:10062000556005682C5904F00204D4604FF4DA7464
:10063000056804EB01142E5906F00F06082E0CD3A2
:1006400008250DE0E468DCE7416A41F400114162ED
:10065000012070BD6D0D1560E3E72D5905F00F0504
:10066000156105682D59C5F30725956105682C5955
:10067000240C54614FF4DC72046802EB0112A4589C
:100680001C700468A458240A5C700468A458240CE4
:100690009C700468A258120EDA704FF4DE7204687F
:1006A00002EB0112A4581C710468A458240A5C715E
:1006B0000468A458240C9C710468A258120EDA71C4
:1006C000006829B1016941F020010161002070BD7D
:1006D000C16841F02001C160F8E7014690F82000B0
:1006E000012801D0022804D109684A68920701D57F
:1006F0000420704709688907FBD50320704702462C
:10070000002092F82010012901D002290CD1116893
:100710008A68520100D501208A68120100D5401C68
:100720008968C90000D5401C70472DE9F05F054677
:10073000006800244669D0F804908768D0F80CB0AF
:10074000D0F810A0D0F81880F10748D0F90714D0DD
:1007500001218160B80703D5284600F056FA0CE065
:10076000780702D54FF4006407E0380702D54FF44C
:10077000805402E0284600F047FAF80516D52968AB
:100780004FF480708860B80503D5284600F03FFA22
:100790000CE0780502D544F4005407E0380502D592
:1007A00044F4804402E0284600F030FAF80316D5FD
:1007B00029684FF480308860B80303D5284600F0DC
:1007C00028FA0CE0780302D544F4004407E038032B
:1007D00002D544F4803402E0284600F019FA3007CC
:1007E00007D55FEACB6004D52968102044F4007473
:1007F000C86070074FF0080707D55FEA0B7004D593
:100800002868C760284600F075F9B00706D5286843
:10081000C068800702D0284600F06EF9700607D540
:100820005FEACA6004D52968102044F48064086136
:10083000B00607D55FEA0A7004D528680761284624
:1008400000F082F9F00606D528680069800702D01A
:10085000284600F07AF9B00308D55FEAC96005D5EB
:10086000296810204860284600F070F9F00307D589
:100870005FEA097004D528684760284600F0CAF985
:10088000300446D55FEA497040D5F00504D55FEAEB
:10089000C87001D044F00104B00504D55FEA887047
:1008A00001D544F00204700504D55FEA487001D513
:1008B00044F00404300529D518F0700F26D008F054
:1008C0007000402815D006DC102809D020280AD056
:1008D000302816D10AE050280ED0602811D10EE041
:1008E00044F008040DE044F010040AE044F0200451
:1008F00007E044F0400404E044F0800401E044F4E4
:1009000080742868816921F0700181612968042060
:100910004860002C05D0686A204368622846FFF7CB
:1009200061FEBDE8F09F70B5040003D094F820008C
:1009300010B104E0012070BD204600F09DF8206851
:10094000016841F00101016000F0A0FC05460526A8
:1009500004E000F09BFC401B0A2811D82068406886
:10096000C007F6D02068016821F00201016000F0A4
:100970008DFC05460BE000F089FC401B0A2806D9D7
:10098000606A40F40030606284F82060D2E720683A
:1009900040688007EFD4207E0128206801683DD0A0
:1009A00021F080010160607E01282068016838D054
:1009B00021F040010160A07E01282068016833D049
:1009C00021F020010160E07E0128206801682ED01E
:1009D00041F010010160207F01282068016829D0C2
:1009E00021F008010160607F01282068016824D09F
:1009F00021F004010160D4E902010843D4E90412A2
:100A0000114308436168491E08432168C8610020FA
:100A10006062012084F82000002070BD41F0800158
:100A2000C0E741F04001C5E741F02001CAE721F0ED
:100A30001001CFE741F00801D4E741F00401D9E704
:100A400010B50068094988420ED10948C16921F0F2
:100A50000071C1614FF4C051064800F089FABDE849
:100A60001040142000F076BC10BD0000006400406F
:100A7000001002400008014010B586B0002100912E
:100A80000191029103910068174988422AD11748C1
:100A9000C16941F00071C161C16901F00071049147
:100AA000816941F0040181618069114C00F004000A
:100AB00004904FF4006000906946204600F0E4FA8C
:100AC000A014009002200190032003906946204664
:100AD00000F0DAFA00220521142000F059FC14205D
:100AE00000F049FC06B010BD006400400010024058
:100AF000000801407047000010B5124900688EB030
:100B0000096888421CD10BAB04AA00210D48FFF7ED
:100B10006AFD002814D10598009008988DF804000B
:100B2000002069460BAA0C18135C401C637108284E
:100B3000F9DB002003F0A8F902210248FFF7CEFC00
:100B40000EB010BD300F0020704770477047000096
:100B500070B5044690F82000012804D0606A40F483
:100B60000020606218E0022084F8200020680168FC
:100B700021F00101016000F089FB05460EE000BF95
:100B800000F084FB401B0A2808D9606A40F400305A
:100B90006062052084F82000012070BD2068406854
:100BA000C007EDD1606270BD70B5044690F82000BA
:100BB000022804D0606A40F48010606214E020686B
:100BC000016841F00101016000F060FB05460DE0A5
:100BD00000F05CFB401B0A2808D9606A40F4003032
:100BE0006062052084F82000012070BD2068406804
:100BF000C007EDD02068016821F0020101600120EA
:100C000084F82000002070BD70477047704770471F
:100C100070477047704710B590F8211000220229E4
:100C200005D00421816380F82020012010BD0168D7
:100C30000B6823F00E030B6001680B6823F00103BF
:100C40000B6090F84030C46B012101FA03F363603C
:100C500080F8211080F82020104610BD10B590F8C3
:100C600021100024022903D00421816301243DE0E6
:100C700001680A6822F00E020A6001680A6822F020
:100C800001020A601A4A0168914201D1012121E062
:100C9000174A1432914201D110211BE0144A283224
:100CA000914201D1891515E0114A3C32914201D19E
:100CB00089140FE00E4A5032914202D14FF4803134
:100CC00008E00B4A6432914202D14FF4801101E0F6
:100CD0004FF08071064A083A5160012180F82110D6
:100CE000002180F82010416B01B18847204610BDDB
:100CF0000800024010B528B301680A6822F001021A
:100D00000A60026800211160026851600268916007
:100D10000268D1600C4B026801241A441423B2FB10
:100D2000F3F29300094AC0E90F239C4054608162AA
:100D3000C16201634163816380F8211080F8201053
:100D4000002010BD012010BDF8FFFDBF00000240D3
:100D50002DE9F05FC16B0C6801680B68D0F840C0EA
:100D6000042202FA0CF2494DDFF824A1494E4A4F01
:100D7000DFF828B1DFF828E122422CD05A072AD523
:100D80000A68920603D40A6822F004020A60016825
:100D9000A94201D1042219E0514501D1402215E0B8
:100DA000B14202D14FF4806210E0B94202D14FF457
:100DB00080420BE0594502D14FF4802206E0714594
:100DC00002D14FF4800201E04FF080622F490839D0
:100DD0004A60C16A3BE04FF0020808FA0CF818EAD2
:100DE000040F4FF000094FF0010235D05FEA83781D
:100DF00032D50B689B0605D40B6823F00A030B6001
:100E000080F821200168A94201D1022219E0514550
:100E100001D1202215E0B14202D14FF4007210E05E
:100E2000B94202D14FF400520BE0594502D14FF4C0
:100E3000003206E0714502D14FF4001201E04FF09C
:100E40000072124908394A6080F82090816A0029AE
:100E50001AD0BDE8F05F0847082505FA0CF52542D1
:100E600012D01B0710D50B6823F00E030B6090F80F
:100E70004010C36B02FA01F15960826380F82120AF
:100E800080F82090016BE2E7BDE8F09F0800024087
:100E90001C00024030000240440002405800024062
:100EA0006C00024030B528B308C813491422194415
:100EB000B1FBF2F18900C1631049816302214177DE
:100EC0001A6843F6F0718A43D0E900142143D0E94F
:100ED00002452C4321430469214344692143846929
:100EE00021431143196000214163012242770177B8
:100EF000084630BD012030BDF8FFFDBF00000240B4
:100F000070B5044690F82000002501280CD001207F
:100F100084F8200094F821600020012E06D084F887
:100F200020000225284670BD022070BD022684F8EC
:100F30002160A0632068066826F00106066020464E
:100F4000FFF7B4FAE06A00282068016802D041F097
:100F50000E0106E021F0040101602068016841F003
:100F60000A0101602068016841F001010160D9E7D0
:100F70002DE9F04300233E4F0F2573E001229A40F4
:100F80000A406DD023F00304E619D6F808809C07C8
:100F90004FEA147C05FA0CF909EA0804DFF8D4805A
:100FA000404502D14FF0000816E0DFF8CC80404504
:100FB00002D14FF001080FE0DFF8C080404502D1B8
:100FC0004FF0020808E0DFF8B880404502D14FF04A
:100FD000030801E04FF0040808FA0CF8A04522D1FC
:100FE000284CD4F800C02CEA020CC4F800C0241D20
:100FF000D4F800C02CEA020CC4F800C0214C0C3418
:10100000D4F800C02CEA020CC4F800C0241FD4F8A5
:1010100000C02CEA020CC4F800C0D6F808C02CEAC4
:10102000090CC6F808C0FF2A01D8064601E000F105
:1010300004064FEA830401D9A4F12004D6F800C0C5
:1010400005FA04F82CEA080C4FF0040808FA04F832
:101050004CEA080CC6F800C0C46824EA0204C46064
:1010600003F1010331FA03F288D1BDE8F0830000F7
:101070000000014000080140000C01400010014048
:1010800000140140000401402DE9F84FDFF8B89149
:101090000024A9F1040B23460F2709F1040AABF140
:1010A000040EC9E00125A5402A40AA427DD1674E21
:1010B000D1F804C0ACEB0608B44532D014DCBCF166
:1010C000030F3AD009DCBCF1000F2AD0BCF1010FAC
:1010D0001CD0BCF1020F31D11DE0BCF1110F17D0B3
:1010E000BCF1120F2AD119E0B8F5881F19D006DC1F
:1010F000B8F5803F15D0B8F5801F1FD111E0B8F5C5
:10110000001F0ED0B8F5041F18D10AE0CB6815E017
:10111000CB681B1D12E0CB6808330FE0CB680C33A3
:101120000CE08B682BB1012B4FF0080303D0456115
:1011300004E0042302E0056100E00023FF2A01D857
:10114000064601E000F104064FEA840501D9A5F145
:101150002005D6F8008007FA05FC28EA0C0803FAF7
:1011600005F548EA0508C6F800804D68ED0062D52F
:10117000374DAE6946F00106AE61AD6924F0030655
:1011800005F001050095334D06EB050CDCF8085021
:10119000A607360F07FA06F825EA0805DFF8B88033
:1011A000404503D14FF0000817E044E0DFF8AC8081
:1011B000404502D14FF001080FE0DFF8A480404520
:1011C00002D14FF0020808E0DFF89880404502D1D4
:1011D0004FF0030801E04FF0040808FA06F848EA67
:1011E0000508CCF808804D68D9F80060ED024D463E
:1011F00001D5164300E096432E604D68DAF8006092
:10120000AD02554601D5164300E096432E604D6869
:10121000DBF80060AD035D4601D5164300E0964360
:101220002E604D68DEF80060ED03754601D516436B
:1012300000E096432E60641C0D682A46E5407FF46A
:1012400031AFBDE8F88F0000080401400000111024
:10125000001002400000014000080140000C014065
:1012600000100140001401408068084000D00120B7
:101270007047C26821EA02030A4043EA0241016161
:1012800070470AB1016170470904FBE701488068B3
:101290007047000010000020024881680278114465
:1012A0008160704710000020074810B5016841F0C8
:1012B00010010160032000F08BF80F2000F006F809
:1012C00000F024F8002010BD0020024070B50D4D44
:1012D00004464FF47A712878B1FBF0F00A490968A6
:1012E000B1FBF0F000F0F2FA48B9102C07D200225E
:1012F0002146501E00F04CF800206C6070BD0120AB
:1013000070BD0000100000201C0000200F4808B530
:10131000816941F001018161816901F00101009160
:10132000C16941F08051C161C069002200F0805064
:1013300000900F21901E00F02BF80548416821F025
:10134000E06141F00071416008BD00000010024002
:101350000000014000280DDB00F01F020121914038
:101360004009800000F1E020C0F88011BFF34F8FEA
:10137000BFF36F8F7047002809DB00F01F020121C7
:1013800091404009800000F1E020C0F80011704752
:10139000F0B40E4B1B680C46C3F30223C3F10705E0
:1013A000042D00D90425191D072901D2002300E0CE
:1013B000DB1E012606FA05F1491E214099409E4098
:1013C000761E16403143F0BC01F062BE0CED00E029
:1013D000064900F0070208684FF6FF03184040EA8C
:1013E0000220034A10430860704700000CED00E043
:1013F0000000FA052DE9F0470F46050061D0434E85
:10140000306800F00700B84209D2306820F00700C9
:1014100038433060306800F00700B84251D1286886
:101420003B4C810712D5400703D5606840F4E0606B
:1014300060602878000703D5606840F46050606001
:101440006068A96820F0F000084360602878C00751
:1014500028D06868012810D02168022810D0890798
:1014600000292EDA616821F0030101436160FFF772
:101470000DFF804641F288390DE021688903EFE7CE
:101480008901EDE7FFF702FFA0EB0801494502D90A
:101490000320BDE8F0876068696800F00C00B0EBDD
:1014A000810FEFD1306800F00700B8420BD93068E7
:1014B00020F0070038433060306800F00700B84281
:1014C00001D00120E5E72878400705D56068E96884
:1014D00020F4E060084360602878000706D5606863
:1014E000296920F4605040EAC100606000F038F8DB
:1014F0006168084AC1F30311515CC840064908609D
:1015000006480068FFF7E2FE0020C2E70020024024
:1015100000100240327E00081C0000201400002051
:101520000448054900684968044AC1F30221515C36
:10153000C84070471C00002000100240427E000896
:101540000448054900684968044AC1F3C221515C56
:10155000C84070471C00002000100240427E000876
:101560000E4A51680E4801F00C03042B11D0082BD1
:101570000FD10C48C1F38343C903C05C0AD551683D
:10158000084AC1F34041921E515C054A5043B0FBEA
:10159000F1F07047044948437047000000100240D2
:1015A00000127A00227E000800093D002DE9F84F64
:1015B000040070D02078C04DC00749D06868C0F3DF
:1015C0008100012807D06868C0F38100022809D192
:1015D0006868C00306D52868800339D5606800288C
:1015E000E7D035E06068B0F5803F0BD010B1B0F5C2
:1015F000A02F11D0286820F480302860286820F4BB
:10160000802002E0286840F480302860606890B153
:10161000FFF73CFE06460AE0286840F48020286078
:10162000F0E700BFFFF732FE801B642873D82868FC
:101630008003F7D50CE0FFF729FE064605E000BF62
:10164000FFF724FE801B6428F0D828688003F7D4B5
:1016500020789A4E80074FF001094FF0000839D5E5
:10166000686810F00C0F07D06868C0F3810002288A
:1016700009D16868C00306D42868800714D520699A
:10168000012808D110E02069B0B1C6F80090FFF73A
:10169000FDFD074605E00AE1FFF7F8FDC01B022843
:1016A000C4D828688007F7D52868616920F0F80059
:1016B00040EAC10028600DE0C6F80080FFF7E6FDB3
:1016C000074604E0FFF7E2FDC01B022823D8286884
:1016D0008007F7D4207800072CD57948A169D9B1C3
:1016E000C0F80090FFF7D2FD074604E0FFF7CEFDFB
:1016F000C01B02280FD8686A8007F7D571484FF4DD
:10170000FA510068B0FBF1F0009000BF0098411E54
:101710000091FAD20EE080E0C0F80080FFF7B6FD3D
:10172000074604E0FFF7B2FDC01B022875D8686ABF
:101730008007F7D42078400760D5E8690027C0000B
:1017400008D4E86940F08050E861E869012700F0BA
:10175000805000905C480168C90513D40168834635
:1017600041F480710160FFF791FD824606E000BF01
:10177000FFF78CFDA0EB0A0064284ED8DBF80000D0
:10178000C005F5D5E06801280AD008B1052813D0B6
:10179000286A20F001002862286A20F0040002E094
:1017A000286A40F001002862E06841F2883B98B165
:1017B000FFF76CFD82460BE0286A40F004002862C7
:1017C000EEE700BFFFF762FDA0EB0A0159455AD8CA
:1017D000286A8007F6D50CE0FFF758FD824605E041
:1017E000FFF754FDA0EB0A0159454CD8286A800741
:1017F000F6D41FB1E86920F08050E861E06988B351
:101800006968C1F38101022944D00228C6F86080CA
:1018100004D0FFF73BFD044638E034E0FFF736FD27
:10182000074604E0FFF732FDC01B02282BD82868CA
:101830008001F7D4206AB0F5803F05D16868A168BF
:1018400020F4003008436860D4E90801084369685F
:1018500021F4741108436860C6F86090FFF716FD24
:10186000044606E025E000BFFFF710FD001B02283C
:1018700009D828688001F7D51BE000BFFFF706FDF7
:10188000001B022802D90320BDE8F88F28688001D8
:10189000F4D40EE00128F7D06868226A00F48031A1
:1018A000914204D1616A00F47010884201D0012095
:1018B000EAE70020E8E70000001002400000424292
:1018C000800442421C0000200070004010B5401E01
:1018D000B0F1807F01D3012010BD4FF0E0246061A2
:1018E0000F21601701F0D4FB0020A06107202061C8
:1018F000002010BD7047704770B590F83C20012A59
:1019000026D0012480F83C40022280F83D20036864
:101910005A689D6822F070060A6832435A600D4B7F
:1019200002689A4208D0B2F1804F05D00A4B9A4221
:1019300002D00A4B9A4204D1496825F0800319432A
:10194000916080F83D40002180F83C10084670BD51
:10195000022070BD002C014000040040000800403F
:1019600010B5040003D094F83D0010B107E0012049
:1019700010BD002084F83C00204600F01FF8022033
:1019800084F83D00211D206801F064F8012084F8EE
:10199000460084F83E0084F83F0084F8400084F854
:1019A000410084F8420084F8430084F8440084F83D
:1019B000450084F83D00002010BD000008B5006817
:1019C0000B49884212D10B48816941F40061816161
:1019D0008069002200F40060009005211920FFF7C3
:1019E000D7FCBDE808401920FFF7C5BC08BD0000C2
:1019F000002C01400010024070B5044690F83C00F5
:101A00000025012817D0012684F83C60022084F8C4
:101A10003D002068826822F0770222F47F428260D3
:101A20000868502838D00DDC20284FD005DC90B352
:101A3000102811D14AE0022070BD302846D040283D
:101A40000AD13BE060282FD070280DD0B0F5805F20
:101A500003D0B0F5005F12D0012584F83D6000206E
:101A600084F83C00284670BDCB68D1E9012120688C
:101A700001F026F82068816841F0770109E0CB6821
:101A8000D1E90121206801F01BF82068816841F448
:101A900080418160E1E719E0CA684968206801F087
:101AA00021F85021206806E0CA684968206801F0E2
:101AB0002AF86021206801F00DF8CEE7CA6849686D
:101AC000206801F00FF840212068F4E72268014601
:101AD0001046F0E7704770B50446006801694FF0A2
:101AE0000005C943890715D4C168C943890711D4C2
:101AF000E91E016101202077206880698007204667
:101B000002D0FFF7E7FF04E000F098F8204600F06D
:101B100096F8257720680169C943490717D4C16839
:101B2000C943490713D46FF00401016102202077F3
:101B30002068806910F4407F204602D0FFF7CAFF7A
:101B400004E000F07BF8204600F079F82577206863
:101B50000169C943090716D4C168C943090712D4EA
:101B60006FF008010161042020772068C0698007B8
:101B7000204602D0FFF7AEFF04E000F05FF82046F9
:101B800000F05DF8257720680169C943C90617D4BC
:101B9000C168C943C90613D46FF010010161082060
:101BA00020772068C06910F4407F204602D0FFF7FC
:101BB00091FF04E000F042F8204600F040F825775D
:101BC00020680169C943C90708D1C168C943C90769
:101BD00004D1891E0161204600F032F820680169B5
:101BE000C943090609D4C168C943090605D46FF081
:101BF000800101612046FFF77DFE20680169C9432D
:101C0000490609D4C168C943490605D46FF04001AB
:101C10000161204600F015F820680169C943890672
:101C20000BD4C168C943890607D46FF02001016154
:101C30002046BDE87040FFF75EBE70BD704770473C
:101C400070477047704710B504460068406994F8C3
:101C50004110C0F3C010212911D180B12068143087
:101C600050E8001F21F0800140E80012002AF5D161
:101C7000A06B08B1FEF7CFFF204601F022F82068E4
:101C8000406994F84210C0F38010222911D180B12C
:101C90002068143050E8001F21F0400140E8001295
:101CA000002AF5D1E06B08B1FEF7B5FF204600F041
:101CB000E1FF002010BD10B5040015D0242084F8E9
:101CC00041002068C16821F40051C160204600F045
:101CD00077F90020606484F8410084F8420044F8F9
:101CE000300F6060207410BD012010BD70470000EF
:101CF000F8B5016804460868CA684B6910F00F0F10
:101D00004FF0000559D003F0010602F490773743F5
:101D100065D0C10705D0D10503D5616C41F0010143
:101D20006164410705D5D90703D0616C41F0020118
:101D30006164810705D5D90703D0616C41F00401C6
:101D40006164010707D502F02001314303D0616CC3
:101D500041F008016164616C00293AD0800604D525
:101D6000900602D5204600F0BAFF20684069616CF9
:101D7000C0F38010090700D460B3204600F07AFF5A
:101D800020684069400621D52068143050E8001FC3
:101D900021F0400140E80012002AF5D1E06BA8B123
:101DA0006D494163E06BFEF759FF002811D0E06BED
:101DB000416B01B0BDE8F040084783060FD593069C
:101DC0000DD52046BDE8F84000F089BF2046FFF75A
:101DD0008DFFF8BD2046FFF789FF6564F8BD266BCF
:101DE0002023012E7CD1C6067AD5D60678D5086880
:101DF0004868009048694FF00206400640D5E16B04
:101E0000086840680004000CE8D0A28D8242E5D941
:101E1000E085886920282DD020680C3050E8001F0C
:101E200021F4807140E80012002AF5D120681430B6
:101E300050E8001F21F0010140E80012002AF5D10E
:101E40002068143050E8001F21F0400140E80012E3
:101E5000002AF5D184F84230256320680C3050E820
:101E6000001F21F0100140E80012002AF5D1E06BBC
:101E7000FEF7D1FE6663A08DE18D401A81B22AE0A3
:101E8000A08DE18D401A81B2E08D0028A6D00029F6
:101E9000A4D022680C3252E8000F20F4907042E87F
:101EA0000007002FF5D12068143050E8002F22F0F1
:101EB000010240E80027002FF5D184F84230256365
:101EC00020680C3050E8002F22F0100240E8002378
:101ED000002BF5D166632046FFF7B4FEF8BDFFE79F
:101EE00005062BD5150629D594F841002128F5D1F2
:101EF000A068B0F5805F01D12069B0B1206A411CB3
:101F00002162216800784860E08C401E0004000CCB
:101F1000E084E3D12068C16821F08001C1602068BD
:101F2000C16841F04001C160D8E7206A0088C0F371
:101F300008004860206A801C2062E5E74006CDD595
:101F40005006CBD5CA68204622F04002CA6084F809
:101F5000413000F034FAC1E72B2B000870B50400C3
:101F600004D094F84100002510B106E0012070BDB6
:101F700084F84050204600F059F8242084F84100AD
:101F80002068C16821F40051C160204600F008FFBC
:101F90002068016921F4904101612068416921F0C4
:101FA0002A0141612068C16841F40051C160656443
:101FB000202084F8410084F842006563002070BD51
:101FC00010B50446154B01681548164A994210D1C0
:101FD000816921F4804181614FF4C0611046FEF7B0
:101FE000C7FFE06BFEF786FEA06BFEF783FE2520A1
:101FF0000EE00D4B99420FD1C16921F40031C1614E
:102000000C211046FEF7B4FFA06BFEF773FE2620EE
:10201000BDE81040FFF79EB910BD00000038014038
:102020000010024000080140004400402DE9F0414A
:1020300086B0002400940194029403940646DFF8CD
:1020400038C103684D48022103224D4D80274FF0CF
:10205000100863454CD1836943F4804383618369ED
:1020600003F480430493836943F00403836180692C
:10207000039200F0040004900802CDE900016946D3
:102080002846FFF701F82815CDE9000469462846DF
:102090000294FEF7F9FF3C4D3A48C5E90004C5E952
:1020A00002472C616C61AC612846EC61FEF7FAFED8
:1020B00008B1FEF711FAF5636E62334D31484435CD
:1020C0001438C5E902472C616C61AC61EC61C5E96B
:1020D00000082846FEF7E6FE08B1FEF7FDF9B563F5
:1020E0000022052125206E62FFF752F925203DE0F0
:1020F000DFF898C063453BD1C36943F40033C36143
:10210000C36903F400330493836943F004038361D8
:102110008069039200F0040004900420CDE90001DE
:1021200069462846FEF7B0FF0820CDE9000469465D
:1021300028460294FEF7A8FF134D12488835283030
:10214000C5E902472C616C61AC61EC61C5E900082E
:102150002846FEF7A7FE08B1FEF7BEF9B5630022D8
:10216000052126206E62FFF713F92620FFF703F9F9
:1021700006B0BDE8F08100000038014000100240C8
:102180000008014058000240301000200044004088
:102190002DE9F843044690F84200994616460D464C
:1021A000202802D00220BDE8F883ADB1A6B10020FE
:1021B0006064222184F842102063FFF767F8A68547
:1021C0008046E685A0684FF48057B84201D1206967
:1021D00020B12E46002526E00120E4E7002622E07B
:1021E0004346002220212046CDF8009000F097FEC3
:1021F00008B10320D7E726B1A068B8421BD038B198
:1022000008E020684068C0F3080025F8020B07E0EA
:10221000206980B12068406800F07F0006F8010B5B
:10222000E08D401EE085E08D0028D9D1202084F883
:1022300042000020B7E720684068EFE790F842309E
:10224000202B01D00220704721B11AB10023036373
:1022500000F002BE0120704790F84230202B01D0E0
:102260000220704721B11AB10023036300F03CBE85
:1022700001207047704770472DE9F843044690F8F5
:1022800041001F4616460D46202802D00220BDE818
:10229000F8837DB176B100206064212084F841008C
:1022A000FEF7F4FFA6848046E684A068B0F5805F60
:1022B00002D003E00120EAE7206910B12E46002594
:1022C0000EE000260CE08021204600F028FEA0B998
:1022D000AEB116F8010B21684860E08C401EE08426
:1022E000E08C43464FF0000200970028EBD14FF0FE
:1022F0004001204600F013FE30B10320C7E735F857
:10230000020BC0F30800E6E7202084F8410000201B
:10231000BDE7000070B5044690F84100202801D0C8
:10232000022070BD49B342B32162A284E28400203E
:102330006064212384F84130A56B114BAB62A56B1F
:10234000104BEB62A56B104B2B63A36B5863256896
:1023500013462A1DA06BFEF7D3FD21686FF04000E5
:1023600008602068143050E8001F41F0800140E808
:102370000012002AF5D1002070BD012070BD0000C0
:10238000292C00086B2C00083B2B000890F84130EA
:10239000202B01D00220704779B172B10162828492
:1023A000C28400214164212180F841100068C16885
:1023B00041F08001C160002070470120704704F0A7
:1023C00001BA7047FEE710B501F004FF02F0F4FA1D
:1023D00002F09EF800F008F9BDE8104002F0A2BB40
:1023E00070B50B46B0B90F4C606898B1216889B1DF
:1023F0004FF4B2752A461846FDF7F0FE29462068CC
:10240000FDF705FFD4E90001884205D100202060D6
:10241000606004E0002070BDD0F8640120600120FD
:1024200070BD0000B40C00202DE9F0410C46060000
:1024300034D1002C32D040484FF4AF77416851B1CD
:10244000026842B1D1F86411914229D13BA0BDE8A4
:10245000F04100F0F5BD404D45600560D5F86401E0
:1024600010B9304602F0B4F82078287060786870AF
:10247000A078A870E078E870A088A880A0880828D4
:1024800006D9A81D3A46A11DFDF7A8FE33A0DEE738
:1024900054F8060F45F8060F60686860BDE8F081E3
:1024A00005464160207808706968607848706968FE
:1024B000A07888706968E078C8706968A0888880AA
:1024C000686841782AA000F0BBFD686881782EA07A
:1024D00000F0B6FD6868C17831A000F0B1FD686811
:1024E000818835A000F0ACFDA088134908286868F1
:1024F00001EBC6060FD93A46A11D801DFDF76EFE01
:1025000000247168A01D095C31A000F099FD641CD5
:10251000BC42F6DBC2E754F8061F40F8061F6168AC
:10252000416000247168A01D095C29A000F088FDAD
:10253000641C082CF6DBB1E7B40C00204A313933B7
:102540003920646520647569206C6965206D616E51
:10255000206C65210A0000008836002031323334B7
:10256000353637383931323334353637383900007B
:102570004A3139333920656E71756575652050476C
:102580004E3A25640A0000004A3139333920656E1D
:1025900071756575652044413A25640A00000000A4
:1025A0004A3139333920656E71756575652053413F
:1025B0003A25640A000000004A3139333920656E3B
:1025C0007175657565206C656E3A25640A000000BA
:1025D0004A3139333920656E7175657565204461FE
:1025E00074613A25640A00002DE9F047254E264F14
:1025F0000024652104FB01F006EB8005A978B1BB3E
:1026000007EBC408D8F8041089B357F8341071B335
:10261000CA786A708A7806F8202048780722000273
:10262000E86288882885401E90FBF2F0401C85F8FF
:102630002A004FF0010985F8329005F135004FF47A
:10264000AF72891DFDF7CAFD85F8029057F8340076
:102650004FF4B271FDF7DBFD57F83400D8F80410E1
:10266000884205D1002047F83400C8F8040003E090
:10267000D0F8640147F83400641C14F0FF04B8D0AB
:10268000BDE8F0872C460020BC0C002070B586B059
:102690000C4638BB34B3A188082918D821788DF8A6
:1026A000001061788DF80110A1788DF80210E178A2
:1026B0008DF8031021798DF80410D4F806100391D9
:1026C000D4F80A100491694603F0D6FE17E0104BC7
:1026D0004FF4B276596841B11A6832B1D1F8640149
:1026E00090420ED1002006B070BD0A4D5D601D60A5
:1026F000D5F8641109B902F083FB284602E00120F5
:10270000F1E7586032462146FDF768FDF7E7000023
:10271000BC0C0020903D00200F4810B50D49016011
:102720000821416000214FF4A0228160C0E903121A
:1027300041610176417601228276C2760177417746
:10274000FEF7F1F8002803D0BDE81040FDF7C4BE45
:1027500010BD000000640040300F0020114808B593
:10276000416941F0010141614069002200F001002E
:10277000009005210E20FEF70BFE0E20FEF7FBFD5C
:10278000002205210F20FEF703FE0F20FEF7F3FDC8
:10279000002205211120FEF7FBFDBDE808401120B5
:1027A000FEF7E9BD0010024010B5104A00211048A4
:1027B00002F0F0FB0F4C0D4A0021206024320E483D
:1027C00002F0E8FB094A6060483200210B4802F041
:1027D000E1FB064AA0606C320021094802F0DAFBF6
:1027E000E060BDE81040102003F024BF907D000899
:1027F000C5290008000000200D0400084903000856
:10280000770400082DE9F04385B000243148009496
:10281000019402940394816941F0100181618169FE
:1028200001F010010491816941F020018161816909
:1028300001F020010491816941F004018161816905
:1028400001F004010491816941F00801816180690E
:10285000DFF8848000F008004FF21E46049000224A
:1028600031464046FEF70DFDDFF870904FF480775B
:10287000002239464846FEF704FD7801CDE9000400
:10288000694617480294FEF7FFFBE020CDE90004FB
:10289000694648460294FEF7F7FB0125CDE900544E
:1028A000694640460294FEF7EFFBCDE9006502263B
:1028B000CDE9024669464046FEF7E6FB00970396DF
:1028C000CDE9015469464846FEF7DEFB05B0BDE898
:1028D000F083000000100240000C0140000801409D
:1028E0000010014010B586B00024184800940194EF
:1028F00002940394049414490594016040F67F41C6
:10290000C0E901140921C0E903148021C0E905418F
:10291000FFF726F808B1FDF7DFFD4FF48050009077
:1029200069460A48FFF768F808B1FDF7D5FD049439
:1029300004A906480594FEF7DFFF002801D0FDF743
:10294000CBFD06B010BD0000002C0140580F002048
:102950000C4810B50A4901604FF41651416000213E
:1029600081600C22C160C0E904128161C161FFF77E
:10297000F5FA002803D0BDE81040FDF7ADBD10BD4D
:1029800000380140A00F00200C4810B50A49016032
:102990004FF416514160002181600C22C160C0E9F2
:1029A00004128161C161FFF7D9FA002803D0BDE8A4
:1029B0001040FDF791BD10BD00440040E80F00201D
:1029C000FEE7FEE7012002F08FFAFBE710B5FEF705
:1029D00063FC04F0EBFF012803D0BDE8104004F0D5
:1029E00031BC10BD30B58FB028216846FDF70FFC13
:1029F00014210AA8FDF70BFC0920012100904FF4D7
:102A00008030002404910691CDE901040225CDE92E
:102A10000750C00009906846FEF7C8FD08B172B6BD
:102A2000FEE70F20CDE90A054FF48060CDE90C40A8
:102A300001210AA80E94FEF7DDFC002801D072B631
:102A4000FEE70FB030BD70470148FFF744B8000003
:102A5000580F0020F0B50268164B174C174D4FF079
:102A60008047984205D0B84203D0A04201D0A84286
:102A700003D122F070064A683243984205D0B8422A
:102A800003D0A04201D0A84203D122F44074CA6806
:102A900022434C6922F08002224302608A68C262AB
:102AA0000A688262984201D109690163012141618A
:102AB000F0BD0000002C0140000400400008004070
:102AC00010B5846842EA032224F47F440A43224377
:102AD000826010BD826822F070020A4342F0070152
:102AE0008160704710B5036A046A24F0010404622F
:102AF000846924F0F00444EA021423F00A020A4331
:102B00008461026210BD10B5036A046A24F01004E7
:102B10000462846923F0A00324F4704444EA02327E
:102B200043EA01118261016210BD10B5406A0021C3
:102B3000C185C184FFF7DAF810BD70B5446A20681A
:102B4000406994F84110C0F3C0100025212904D138
:102B500018B1E584204600F0B4F82068406994F884
:102B60004210C0F38010222904D118B1E585204617
:102B700000F080F8606C40F0100060642046FFF7C1
:102B8000B5F870BD10B50146406A096809684FF094
:102B9000000289062ED4C28501680C3151E8003F3D
:102BA00023F4807341E80034002CF5D1016814311E
:102BB00051E8003F23F0010341E80034002CF5D137
:102BC0000168143151E8003F23F0400341E800342C
:102BD000002CF5D1202180F84210016B012909D188
:102BE00001680C3151E8003F23F0100341E8003444
:102BF000002CF5D14263016B012902D0FFF73AFBAB
:102C000010BD818DFFF71EF810BD10B5406A01217F
:102C10004163016B012902D0FFF72DFB10BD818DAF
:102C20004908FFF70FF810BD10B50146406A096862
:102C30000968890616D40021C1840168143151E85D
:102C4000002F22F0800241E80023002BF5D101681B
:102C50000C3151E8002F42F0400241E80023002BE4
:102C6000F5D110BDFFF7ABFB10BD10B5406AFFF703
:102C7000A8FB10BD01680C3151E8002F22F49072BE
:102C800041E80023002BF5D10168143151E8002FF1
:102C900022F0010241E80023002BF5D1016B01294C
:102CA00009D101680C3151E8002F22F0100241E8EF
:102CB0000023002BF5D1202180F842100021016370
:102CC000704701680C3151E8002F22F0C00241E842
:102CD0000023002BF5D1202180F84110704708B562
:102CE00090F84210222901D0022008BD82684FF4DA
:102CF00080539A4201D1016921B1816A9A421BD065
:102D00004AB10AE00268816A5268C2F308020A8086
:102D1000816A891C08E0026972B10268526802F097
:102D20007F020A70816A491C8162C18D491E0904B3
:102D3000090CC18503D01BE002685268F1E7016805
:102D4000CA6822F02002CA600168CA6822F4807250
:102D5000CA6001684A6922F001024A61202180F8B4
:102D6000421000214163026B012A03D0FFF782FA6F
:102D7000002008BD016301680C3151E8002F22F0EA
:102D8000100241E80023002BF5D101680A68D20641
:102D900002D50A6849680091818DFEF753FFE7E785
:102DA00070B5044600680169E26821F4405111439E
:102DB00001612169A0680843616908432168CA6804
:102DC00041F20C639A430243CA6020684169A269D8
:102DD00021F44071114341611E492068884202D1AB
:102DE000FEF7AEFB01E0FEF79BFB00EBC00101EB41
:102DF0000012606864218000B2FBF0F3B3FBF1F3D2
:102E00006FF018067343B2FBF0F5B2FBF0F605EB7A
:102E10008305322303EB0515B5FBF1F5B6FBF1F69F
:102E200005F0F00505EB0615B2FBF0F6B2FBF0F08D
:102E3000B0FBF1F06FF01802504306EB800003EB9B
:102E40000010B0FBF1F0216800F00F00284488600A
:102E500070BD00000038014038B5816204468285AB
:102E6000002013466064222284F84220E56B1B4A4E
:102E7000AA62E56B1A4AEA62E56B1A4A2A63E26BB8
:102E800050630A462168E06B091DFEF739F8206897
:102E9000016840680090206948B120680C3050E813
:102EA000001F41F4807140E80012002AF5D120682B
:102EB000143050E8001F41F0010140E80012002AE0
:102EC000F5D12068143050E8001F41F0400140E87F
:102ED0000012002AF5D1002038BD0000852B000823
:102EE0000B2C00083B2B000881628285C2850021E3
:102EF0004164222180F84210016921B10168CA6849
:102F000042F48072CA6001684A6942F001024A6173
:102F10000068C16841F02001C160002070472DE9C0
:102F2000F041984617460E460446069D27E0681C69
:102F300025D02DB1FEF7AAF9A0EB0800A8421ED9B2
:102F400020680C3050E8001F21F4D07140E80012D6
:102F5000002AF5D12068143050E8001F21F001014B
:102F600040E80012002AF5D1202084F8410084F8BE
:102F70004200002084F840000320BDE8F081206872
:102F8000006836EA000004D00020B842CFD000200C
:102F9000F3E70120F9E700001E4800B500688DB096
:102FA0000168C943C9062ED40168406800901948D9
:102FB000FEF749FE184800684068C0F1320080B250
:102FC000411E31291AD88DF80000144902E0401E34
:102FD0008DF8000010F0FF0002D0425C002AF6D00D
:102FE00032220F490DF10100FDF7F8F86946002083
:102FF00003F082FC32210A48FDF709F93222084920
:103000000448FFF71BF90DB002485DF804EBFEF72A
:103010006FBE0000A00F002030100020CF31002034
:10302000D03100200148FEF763BE0000E80F002009
:103030000148FDF77ABB0000300F0020FEE70000DA
:103040000FB4054B10B503A9044A029800F040F8EC
:1030500010BC5DF814FB0000A9430008240F0020F9
:103060000FB41CB50246002007AC00290BD0491E46
:10307000CDE90021054B6A462146069800F028F864
:10308000009A002111701CBC5DF814FB3335000858
:103090000907090E002804DB00F1E02080F8001485
:1030A000704700F00F0000F1E02080F8141D704719
:1030B00002E008C8121F08C1002AFAD17047704701
:1030C000002001E001C1121F002AFBD1704700005F
:1030D0002DE9FF4F8DB00F460546002606E0252856
:1030E0000BD0DDE90F1290476D1C761C2878002864
:1030F000F5D111B03046BDE8F08F0024A246A146BC
:103100000122EC4900E0044315F8013F203B02FA9C
:1031100003F00842F7D128782A2810D06FF02F0248
:103120002878A0F13001092914D80AEB8A0102EBB2
:10313000410144F0020400EB010A6D1CF0E701CFED
:103140005FEA000A03D544F40054CAF1000A44F0CF
:1031500002046D1C28782E2817D115F8010F44F0B1
:1031600004042A280ED06FF02F022878A0F1300135
:1031700009290AD809EB890102EB410100EB010999
:103180006D1CF2E757F8049B6D1C28786C280FD053
:1031900006DC4C2817D068280DD06A2814D104E02A
:1031A000742810D07A280FD10DE044F400140AE0FE
:1031B00044F4801401E044F440146978814202D15F
:1031C00004F580146D1C6D1C2A786E2A1FD00CDC4F
:1031D000632A31D004DC002A8BD0582A11D1A3E015
:1031E000642A68D0692A0CD165E0732A2ED004DCE9
:1031F0006F2A73D0702A04D19BE0752A6FD0782A89
:103200006ED01046DDE90F129047761C50E1C4F3F2
:103210000250022806D0032809D0042801CF09D083
:10322000066045E101CFF117C0E9006140E101CF3F
:1032300006803DE106703BE117F8040B8DF80000B5
:1032400000208DF80100EB46012003E057F804BB95
:103250004FF0FF3061074FF0000102D40DE008F19C
:103260000101884649450FDA8045F8DB1BF8081054
:103270000029F4D108E008F1010188468142FADB17
:103280001BF808100029F6D1DDE90F23AAEB08008E
:103290008146214600F036F9304400EB080604E090
:1032A000DDE90F121BF8010B9047B8F10108F7D2C6
:1032B00021464846F7E00A21C4F302534FF0000BC1
:1032C0000891022B04D001CFC117032B09D00AE0CB
:1032D000FF1D27F00707F7E8020108E032E01FE0D2
:1032E00020E000B2C117042B01D140B2C117031E68
:1032F00071F1000307DA4FF0000CD0EB0C006CEB1F
:1033000001012D2302E0230504D52B238DF8243061
:10331000012303E0E30701D02023F7E7984658E0B4
:103320000A2110E010210EE010204FF0000B089051
:103330000CE010214FF0000B44F004044FF008099A
:10334000089103E008214FF0000B0891C4F30253E9
:10335000022B04D001CF0021032B06D006E0FF1D75
:1033600027F00707F7E8020103E080B2042B00D141
:10337000C0B24FF0000823072BD5702A07D0DDF824
:1033800020C08CF0100C5CEA0B0C05D00EE0402342
:103390008DF82430012308E050EA010306D03023E1
:1033A0008DF824308DF8252002239846DDF820C0C2
:1033B0008CF0080C5CEA0B0C0BD150EA010301D134
:1033C000630706D530238DF824304FF00108A9F1AA
:1033D0000109582A04D038A20B9208AA0A920BE0DD
:1033E0003AA2F9E75B46089AFCF731FF0B9B9B5C1E
:1033F0000A9A521E0A92137050EA0102F2D10A98F8
:10340000ADEB000000F1200B600702D524F48034FE
:1034100001E04FF00109D94502DDA9EB0B0000E006
:10342000002000EB0B0141440890AAEB010AE003E5
:1034300006D4DDE90F232146504600F063F8064428
:103440004FF0000908E009A911F80900DDE90F12A1
:10345000904709F10109761CC145F4DBE0030CD566
:10346000DDE90F232146504600F04CF8064404E005
:10347000DDE90F1230209047761C0899481E08900D
:103480000029F5DC08E00A980A990078491C0A919D
:10349000DDE90F129047761CBBF10001ABF1010B87
:1034A000F1DC21465046DDE90F2300F019F806440F
:1034B0006D1C1BE6092801003031323334353637B4
:1034C0003839616263646566000000003031323370
:1034D0003435363738394142434445460000000010
:1034E0002DE9F041044600251E461746880404D401
:1034F00005E039462020B0476D1C641EF9D52846EA
:10350000BDE8F0812DE9F041044600251E469046B5
:10351000C80301D5302700E02027880404D505E042
:1035200041463846B0476D1C641EF9D52846BDE8B3
:10353000F0814A68002A06D00A68531C0B6010709C
:103540004868401E4860704710B10AB101207047BA
:103550000020704770B5B4B00E46044604A910466A
:1035600000F08CF8102221466846FCF737FE002256
:1035700004A9684600F050F8264D01246946002051
:103580000A5CAA5C0A54401C1028F9DB9DF8010073
:103590009DF805108DF801109DF809108DF80510A3
:1035A0009DF80D108DF809108DF80D009DF80200A2
:1035B0009DF80A108DF802108DF80A009DF806009B
:1035C0009DF80E108DF80E008DF806109DF8030082
:1035D0009DF80F108DF803109DF80B108DF80F104B
:1035E0009DF807108DF80B108DF807000A2C02DAF1
:1035F000684600F083F8224604A9684600F00CF8FB
:10360000641C0A2CBADD102269463046FCF7E6FD40
:1036100034B070BD947F0008F0B5002303EB820442
:1036200010F8235051F8244085EA146500F823501F
:1036300000EB83055B1C6E7886EA14466E70AE78EC
:1036400086EA1426AE70EE786640EE70042BE5DB59
:10365000F0BD10B500231A46CC0700D0434010F04F
:10366000800F4FEA40604FEA106001D080F01B00ED
:103670004908521C082AEFDB184610BD70B500221D
:1036800000EB82031C68DB7824BA24F0FF041C439F
:1036900041F82240521C042AF2DB042001EB800591
:1036A000830755F8042C1ED14FEA3262124BD4B274
:1036B00003EB12661C5D367844EA0664C2F30746E3
:1036C000C2F307229E5D9A5C360446EA0222144346
:1036D000C21700EB927222F0030203F500731A4442
:1036E00052F8042C624055F8103C534041F8203009
:1036F000401C2C28D2DB70BD947F00082DE9F05FC0
:10370000834600240BEB04051BF8046095F801A028
:1037100095F8029095F8038002213046FFF799FF53
:10372000074603215046FFF794FF474087EA090701
:1037300087EA08070BF8047002215046FFF789FF5B
:1037400080EA060703214846FFF783FF474087EAE0
:1037500008076F7002214846FFF77BFF86EA0A01DF
:1037600080EA010703214046FFF773FF4740AF702F
:1037700003213046FFF76DFF80EA0A0080EA090660
:1037800002214046FFF765FF4640241DEE70102CD5
:10379000B8DBBDE8F09F000070B5174D002405F5BB
:1037A000B47600BF04EB440005EBC003002256F8DA
:1037B0002410104600F0B2FD641C0F2CF2DB0F4DFC
:1037C0000024A5F5D87600BF04EB440005EBC00348
:1037D00056F824100022022000F0A0FD641C022CE8
:1037E000F2DB064B00223033A3F5F2700168BDE82E
:1037F0007040032000F092BDD80C0020800E002005
:1038000070B56C4D00266C4C69780C290CD2DFE841
:1038100001F0060C223547597588BD9BACCB67A0DB
:10382000FFF70EFC01206870C2E0002168A0FCF7E1
:10383000ABFD6149002003F017F80028F4D067A120
:10384000601CFCF7F6FC08B9022015E0611C65A0BD
:10385000FFF7F6FB4BE0002163A0FCF795FD56490E
:10386000002003F001F80028DED05CA1601CFCF70A
:10387000E0FC0028EAD10320687038E000215DA058
:10388000FCF782FD4C49002002F0EEFF0028CBD06F
:1038900052A1601CFCF7CDFC0028D7D10420EBE737
:1038A000014657A0FCF770FD4349002002F0DCFF01
:1038B00000287DD049A1601CFCF7BBFC0028C5D1C5
:1038C0000520D9E700F1140150A0FCF75DFD3A494D
:1038D000002002F0C9FF00286AD040A1601CFCF75C
:1038E000A8FC48B12178621C4BA0FFF7A9FB34214A
:1038F0003148FCF78CFC5BE00620BDE700F12801B5
:1039000047A0FCF741FD2C49002002F0ADFF002844
:103910004ED032A1601CFCF78CFC002896D1072009
:10392000AAE700F1350142A0FCF72EFD2249002054
:1039300002F09AFF00283BD028A1601CFCF779FC1C
:10394000002883D1092097E700213CA0FCF71CFD4B
:103950001949002002F088FF50B320A1601CFCF739
:1039600068FC002886D10A2086E7002136A0FCF7F3
:103970000BFD1149002002F077FFC8B117A1601CB0
:10398000FCF757FC002888D1082075E7002131A0FA
:10399000FCF7FAFC0849002002F066FF40B16078AD
:1039A00042288CD10B2067E72DA0FFF749FB0126A9
:1039B000304670BDC90E0020244A00207374617225
:1039C0007420696E697420424C4530330D0A000042
:1039D00041542B535052310D0A0000004F4B0D0A39
:1039E000000000002573000041542B534253573010
:1039F0000D0A000041542B53535357300D0A000059
:103A000041542B53424E25730D0A000041542B5351
:103A1000534E25730D0A0000252E2A730000000066
:103A200041542B53424D414325730D0A00000000C1
:103A300041542B53553025730D0A000041542B532C
:103A4000425357310D0A000041542B535353573101
:103A50000D0A000041542B52455345540D0A0000F5
:103A6000424C45303320696E697469616C697A61D2
:103A700074696F6E20636F6D706C6574650D0A00FC
:103A800070B50546002002464AF201040EE0AB5C28
:103A900058400023C60702D084EA500000E04008E6
:103AA0005B1CDBB2082BF5D3521CD2B28A42EED398
:103AB00070BD000005A213680B6053684B609268EC
:103AC0008A60D0F80D00C860704700004C414E5429
:103AD000553132333435363700000000F0B595B03B
:103AE000064600200D461190129013901490144633
:103AF00020216846FCF78BFB3278711C6846FCF786
:103B00006DFB3178684600F02AF8A07011A92846AC
:103B1000FFF7D0FF00256F4606E06119781911AA5A
:103B2000C91CFFF717FD1035A078A842F5DC682006
:103B30002070307860708DF82000A278E11C0DF1C3
:103B40002100FCF74BFBA078401CC1B208A8FFF78E
:103B500097FFA084A07815B0001DC0B2F0BD01F0A1
:103B60000F0210B5C2F11003002203E08C18521CA2
:103B70000355D2B29A42F9D3C818C0B210BD0000A2
:103B800010B50E4C207848B104F14700007858B1C8
:103B900000F016F8BDE8104000F02AB80748401CB5
:103BA000FFF72EFE207010BD044A6C21112347320E
:103BB000BDE81040022002F097BD0000CB0E0020AF
:103BC00010B500240549204600F03AF8002804D03A
:103BD000024A214602A0FFF733FA10BDB24A002084
:103BE000726563762062743A20252E2A730A0000DB
:103BF000F0B59FB078236A460021012002F074FDE1
:103C000000240E4F6D46264604EB4400284490F8ED
:103C1000680048B107EBC40006604660641CE4B26B
:103C2000052CF1D31FB0F0BD032CF7D2DFE804F070
:103C300002020300F2E701F0C9FCEFE78A4A002024
:103C400070B50E4600250B49284602F00DFE094CC2
:103C5000217869B1621C08A0FFF7F2F92278611C93
:103C60003046FCF7BBFA34212046FCF7D0FA012598
:103C7000284670BD244A0020726563762062743A3B
:103C800020252E2A730A000010B500F004F8BDE8C4
:103C9000104000F061B830B5D9B04FF4B271684649
:103CA000FCF7B5FA0024002569462046FEF798FB8C
:103CB000F8B19DF80110272921D0022924D0062926
:103CC00027D009292AD010292DD0112930D0132925
:103CD00033D015290DD016290BD0172909D0192951
:103CE00030D01C2933D01E2907D16946284601F05F
:103CF0006EFA641C14F0FF04D5D059B030BD69468B
:103D0000284601F09CFAF4E76946284601F0B6FA25
:103D1000EFE76946284601F0BCF9EAE7694628461C
:103D200001F036FBE5E76946284601F085F9E0E752
:103D30006946284601F000FADBE76946284601F0AB
:103D40007BFBD6E76946284601F0C4FBD1E769460C
:103D5000284601F039FBCCE7F0B59FB078236A46DE
:103D60000021012002F0C0FC00256F4605EB451044
:103D7000002407EB400600BF04EB4400304490F8F9
:103D80002600012815D005EB4500254900EBC500AC
:103D900001EB001000EBC400002101604160641CD5
:103DA000E4B2162CE8D36D1C15F0FF05DED01FB071
:103DB000F0BD082C23D00ADCACB1022C17D0052CA6
:103DC00019D0062CEBD1284601F039FDE7E70B2C82
:103DD00019D0112C1BD0132C1DD0152CDFD1284647
:103DE00001F089FCDBE7284601F0EFFCD7E7284625
:103DF00001F070FDD3E7284601F0BDFECFE728466D
:103E000001F0B4FDCBE7284601F02CFCC7E72846BB
:103E100001F032FEC3E7284601F0DCFDBFE70000F9
:103E200074490020D8B9D1B1012080F31088154819
:103E30004368B3B10268A2B19A4212680A6002688C
:103E400012790A7102680ED152F8053FC1F80530A7
:103E50005268C1F809200021016041600DE0002096
:103E6000704700200AE0D2F80530C1F80530D2F8DA
:103E70000930C1F80930116901600120002181F386
:103E800010887047A40C002070B50D4640B93DB1B4
:103E9000164A536833B1116821B11869884215D1A7
:103EA000002070BD124C54601460216909B900F003
:103EB00021F82868206028792071D5F80500C4F819
:103EC0000500D5F80900C4F809000DE05060296824
:103ED00001605168287908715068D5F8051040F8DC
:103EE000051FD5F809104160012070BDA40C002009
:103EF000F834002070B5050018D10E4CC8212046BA
:103F0000FCF785F905EBC50000EB0510002104EB7B
:103F1000C00001E009290AD001EB810200EB820216
:103F200002F11403491C13610A29F3DB70BDC0F8C8
:103F3000C40070BDF834002010B586B004C90092EA
:103F400011F8012B00248DF80820019138B90322C3
:103F50006B4604A1104600F0E1F900B1012406B05F
:103F6000204610BD63616E31000000002DE9F0476E
:103F70000E46044601EB460A00EB441188B00027C8
:103F80000AEB410808F1270101233D468DF8147022
:103F9000894605AA184602F0A7FB344804EB440CF6
:103FA0009DF8143030490CEBC40400EB04104FF6BC
:103FB000FF7201EB8A0100EBC604012B03D030F83D
:103FC000363073B32FE0A38803B9012730F836C029
:103FD0000CF1010C1FFA8CFC20F836C0B1F80480FB
:103FE000C44504D320F836506088401C60805B1CB8
:103FF00098B2A0800B89984232D3A580E088401CFB
:1040000080B2E080498991422AD0884228D3012396
:104010008DF8005049466A46184602F0A5FBE58037
:104020001EE0FFE701275B1C9BB220F83630B1F899
:1040300004C0634514D320F836506088401C80B219
:104040006080C98891420BD0884209D301238DF842
:10405000005008F126016A46184602F085FB65808B
:1040600008B03846BDE8F0878C7E0008744900200F
:104070002DE9F0418EB01446050040D0002C3ED012
:1040800000276E6A06293AD2DFE801F00305390BF2
:104090003D4511463BE03046FCF790FA85F821702B
:1040A0003CE00097206801900420CDE90207207AC7
:1040B000049052680CAB69463046FCF721FA48B3CD
:1040C0003046FCF71CFB804630688069C0F38007EF
:1040D0003046FCF702FB044603463A46414610A030
:1040E000FEF7AEFF17B9052C00D044B93046FCF7F7
:1040F0005BFDE86A099006A9284600F029F800202F
:104100000EB0BDE8F0813046FCF74EFD2146284652
:1041100000F01EF802E095F8210010700120EFE792
:1041200043414E2073656E64206572723A20667258
:1041300065653D256C752C20666C61673D20256C9E
:10414000752C2073746174653D256C750A00000040
:1041500070B5CB680546446A08220020A3F64803E0
:10416000B3F5F0330CD0A3F648034FF4A021B3F518
:10417000F0330ED003F57763B3F5783F1BD11CE025
:104180004FF440216260C4E903014FF48011616182
:1041900003E06260C4E903016061A96A2160A06074
:1041A000207660760126A676E67620776077204630
:1041B000FCF7B9FB18B1002070BD0422E9E72046E6
:1041C000FCF7C6FC02212046FCF788F985F821603F
:1041D000012070BD2DE9F041204E0024A04606F1DB
:1041E0000C05305D05EBC407401CC2B2325578683F
:1041F00070B355F8341059B3022A29D381422046AE
:1042000012D1FFF799FE18B355F834104046C1F8A3
:104210000080C1F80480C1F80880C1F80C8045F81E
:104220003480C7F8048012E0FFF786FE80B155F8AD
:1042300034104046C1F80080C1F80480C1F80880FD
:10424000C1F80C8055F83410096945F83410305520
:10425000641C14F0FF04C4D0BDE8F081A00C002061
:1042600070B50D4640B93DB1164A536833B1116877
:1042700021B11869884215D1002070BD124C5460DC
:104280001460216909B900F021F8286820602879B4
:104290002071D5F80500C4F80500D5F80900C4F868
:1042A00009000DE0506029680160516828790871A3
:1042B0005068D5F8051040F8051FD5F80910416081
:1042C000012070BDAC0C0020C035002070B5050089
:1042D00018D10E4CC8212046FBF799FF05EBC5000D
:1042E00000EB0510002104EBC00001E009290AD011
:1042F00001EB810200EB820202F11403491C1361FD
:104300000A29F3DB70BDC0F8C40070BDC0350020C1
:10431000002801D1FEF7BAB9704700002DE9F04737
:1043200098469146054609B3B8F1000F1ED01D4FBF
:104330000E46002404EB440007EB00100278AA426A
:1043400004D13146401CFBF774FF18B1641C202CCB
:10435000F0DB0BE004EB440017EB001006D045B196
:10436000012D18D0022D0AD0032D0ED00020BDE85B
:10437000F08742464946BDE8F04700F03FB8424664
:104380004946BDE8F04702F051BB42464946BDE808
:10439000F047FFF76DBE42464946BDE8F047FFF7DC
:1043A000D3B800009800002030B5124C8DB00546FF
:1043B0002178322903D210484554491C21700A2D16
:1043C00002D0C8B2322811D3CAB28DF800200A49EF
:1043D0000DF10100FBF702FF9DF800008DF833009E
:1043E0006946012002F018FC002020700DB028461C
:1043F00030BD0000980600200432002070B515463C
:10440000040019D0C5B10026062915D2DFE801F055
:104410002F34030E252B218D606AFCF725FF012820
:1044200001D02E702EE0012028702BE0107828B1EA
:10443000012807D002280BD0002070BD218D00225A
:10444000606A02E0218D0122606AFCF71AFF19E020
:10445000218D606AFCF70DFF14E0218D606AFCF786
:1044600087FD294604E094F8210010700AE0114607
:10447000204600F009F805E0218D606AFCF778FD20
:1044800084F82160012070BD7FB5044600200190B2
:1044900002900390208D009088780D46012640B14F
:1044A000012802D0022821D101E0019601E011206B
:1044B0000190E978022039B1012902D0022915D1F1
:1044C00001E0029600E00290297921B1012904D08F
:1044D00002290BD10DE0039000E003966946606A63
:1044E000FCF7D2FD287830B1012808D0002004B0B4
:1044F00070BD0320EFE7218D0022606A02E0218D6C
:104500000122606AFCF7BDFE84F821600120EEE71D
:1045100030B5214D8BB0002405EBC400406850B18C
:1045200055F8341039B1D0F86401884203D11BA08A
:10453000FEF786FD2AE006A92046FFF773FC28B3A4
:1045400006980699800E8DF800000698090AC0F3B7
:1045500007408DF801008DF8021006998DF80310C0
:10456000DDF81D100391DDF821100491F0280DD223
:10457000E82804D36946204600F01EF806E008202B
:104580008DF804006946204600F048F8641C14F0D9
:10459000FF04C1D00BB030BDB40C00204A31393318
:1045A0003920646520647569206C6965206D616ED1
:1045B000206C65210A0000004A78EB2A05D0EC2A1D
:1045C00001D000F02BB800F045B800F063B900004E
:1045D00010B504001FD110484FF4E161FBF717FE3E
:1045E000C4EB44100C4AC0EB0420002102EBC000D5
:1045F00004E0042902D1C0F804070521C1EB01122F
:1046000002EB420200EBC20202F5B473491CC2F88D
:1046100064310A29EDDB10BD8836002000B5D9B021
:104620000A788DF800204A788DF801208A788DF874
:104630000220CA788DF803200A79ADF80420CA68F0
:10464000CDF806200969CDF80A106946FDF7ECFEA1
:1046500059B000BD2DE9F05F8D4B0646652491F8F9
:104660000C8006FB04F791F802C0CA78A3F54A7ED5
:10467000A3F5CA704FF0000A4FF004094FF4CA7B4B
:1046800000EB87040EEB8705B8F1130F75D008DC3B
:104690004FF0020BB8F1100F1AD0B8F1110F06D17C
:1046A0004CE0B8F1200F47D0B8F1FF0F7DD083F870
:1046B00000C0C8785870487C0004D8628A7C40EA00
:1046C0000220D862C97C0843D86283F8339023E083
:1046D000487B8C7B91F8128040EA0424487C91F856
:1046E0000F90000440EA0820C97C95F80280084336
:1046F0000121B8F1000F06D083F800C05A70D862CB
:1047000083F8331008E0B4F5AF7F0DD983F800C00B
:104710005A70D86283F833B03046BDE8F05F0622A5
:104720005B4B002101F0C4BE0EF827C06A70A9706F
:104730002C8585F82A90E862BDE8F09F4D7C91F8C1
:104740000DC08B7B91F812802D04C97C45EA0825A9
:104750000D43A1788A46022910D1E16AA9420DD100
:1047600010F827108A4209D194F83210994205D1E5
:1047700084F831C084F80290DEE73EE0D4F82C8063
:10478000A84523D110F827108A421FD194F832107F
:1047900099421BD0BCF1000F18D094F834000328C4
:1047A00007D90620A070052000E03EE084F8330021
:1047B000C2E7591A14F8302F401C11442170A3701D
:1047C00084F801C004F82E9C2071B5E7A845B3D148
:1047D00010F827008242AFD1FF2BADD1BCF1000F02
:1047E000AAD1BAF1050FA7D084F802B094F822003C
:1047F0000028A1D10123052243E04B7C8D7C1B04C2
:10480000C97C43EA05230B43A178052994D1E16AC9
:10481000994291D110F8270082428DD12046594605
:10482000FBF7F5FC84F802A086E74B7C91F812C0F8
:104830001B0443EA0C2391F813C043EA0C03D5F898
:104840002CC09C450AD195F801C0944506D1284654
:104850005946FBF7DCFC85F802A06DE7E56A9D424E
:104860008AD110F82700904286D1A0780228D5D1AD
:1048700094F832000128D1D1487B0128CED1012300
:104880001A463046BDE8F05F012100F033B9000060
:10489000C04700202DE9F0410746652007FB00F6E0
:1048A00043480D4600EB86040022A3780421E6B0BD
:1048B000042B04D1637895F803C0634510D03D48BC
:1048C000AB780370EB784370C26280F83310034614
:1048D00066B03846BDE8F0410622002101F0E8BD8F
:1048E0002B7B94F832C0634511D094F83400032830
:1048F00007D00121A173401C84F8340066B0BDE8E4
:10490000F0810620A070052084F83300F6E784F8D3
:1049100034208046A170002303221946384600F057
:10492000E9F8012302220021384600F0E3F80020D4
:1049300094F83220238D521EC2EBC20202449A42E6
:1049400004DA2B1822445B7B82F83530401C0728A0
:10495000EEDB94F82B00401E10F0FF0084F82B00D3
:1049600094F83020A2F1010284F830201BD194F891
:10497000322094F82A309A4215D018F826108DF873
:10498000001061788DF80110E16A8DF82B00FF208E
:104990000B918DF832006B4602220021384601F05F
:1049A00087FD0220A07014F8320F401C2070A5E78C
:1049B00098440020C04700202DE9F0430023DFF891
:1049C0002C814FF4FA7940F2EE2540F2E24440F2B5
:1049D0001A46012200216520584308EB800000BFE1
:1049E00001EB410700EB470797F804C0BCF1010F4A
:1049F0002BD1B7F806C006290CF1010CA7F806C0A8
:104A000023D2DFE801F003080D12171DC788C82F55
:104A10001BD3027219E087894F4516D3827314E0C5
:104A2000478AAF4211D302750FE0078BA7420CD320
:104A300082760AE0C78BA74207D380F8202004E0E3
:104A4000878CB74201D380F82620491CC9B20629B9
:104A5000C6D35B1C13F0FF03BCD0DFF894800023A7
:104A600000216520584308EB800000BF01EB41079F
:104A700000EB470797F804C0BCF1010F2BD1B7F842
:104A800006C006290CF1010CA7F806C023D2DFE806
:104A900001F003080D12171DC788C82F1BD302721F
:104AA00019E087894F4516D3827314E0478AAF42D5
:104AB00011D302750FE0078BA7420CD382760AE070
:104AC000C78BA74207D380F8202004E0878CB74229
:104AD00001D380F82620491CC9B20629C6D35B1C25
:104AE00013F0FF03BCD0BDE8F08300009844002021
:104AF0002C46002030B50024652502EB42026843B5
:104B000051B1012907D1054901EB800000EB4200BA
:104B10000371C480047230BD0149F5E72C460020C2
:104B2000984400202DE9F04F0025DFF8D0A2D9B03D
:104B300006264FF00308AB460AF5CA79652005FB47
:104B400000F70AEB8704A17807293CD2DFE801F0DF
:104B5000AA0415AA3C7DB500207928B900220123BA
:104B600011462846FFF7C6FF012084F8320094F86A
:104B70002A0084F83000022024E0207A012815D091
:104B800000231A4619462846FFF7B4FF94F8300070
:104B90000C2800D90C2084F82B0023460222002187
:104BA000284601F085FCA07D28B10AE0A67084F8B3
:104BB0003380002343E00123032200212846FFF72E
:104BC00099FF0420A0706DE0A07E012805D0207D13
:104BD000012802D0A07A30B10BE0A670002384F83F
:104BE000338003222CE001231A4600212846FFF7D8
:104BF00081FF207C28B90123022200212846FFF7EB
:104C000079FFA07B01280BD12346022200212846F0
:104C100001F04EFC01231A4600212846FFF76AFFE7
:104C200094F8320094F82A1088423BD90520A070ED
:104C30000023012219462846FFF75CFF01230022CA
:104C400000212846FFF756FF2CE0217A0129ADD03C
:104C5000234605220021284601F02AFC07208DF872
:104C60000000A08D04F13501000A8DF801001AF84A
:104C700027008DF8020060788DF80300208DADF8D4
:104C800004004FF4AF720DF10600FBF7A7FA694676
:104C90002846FDF7C9FB20464FF4CA71FBF7B7FA67
:104CA00084F802B009EB8704A07807282BD2DFE84C
:104CB00000F09D0B199D3F779000234606220021AE
:104CC000284601F0F5FBE6E7012223461146284677
:104CD00001F0EEFB0123042219462846FFF70AFFE4
:104CE00002204AE094F8200001280DD094F8260014
:104CF000012809D000231A4601212846FFF7FAFEB1
:104D0000A07B01280BD071E0652005FB00F109EBC9
:104D100081000023867084F83380042239E0012268
:104D200023461146284601F0C3FB01231A464BE0F7
:104D30000023042201212846FFF7DCFE0023052280
:104D400001212846FFF7D6FE207918B1207A0128E4
:104D500015D005E00123002219462846FFF7CAFEB8
:104D6000234604220121284601F0A2FB94F83200D8
:104D700094F82A10884239D90520A07036E06520C1
:104D800005FB00F109EB81000023867084F8338075
:104D90001A4659B02846BDE8F04F0121FFF7AABED8
:104DA00000231A4601212846FFF7A4FE207F20B1E8
:104DB00094F82000012802D018E0012303E0A67037
:104DC00084F833800023042201212846FFF792FE55
:104DD0000CE0234606220121284601F069FB20460B
:104DE0004FF4CA71FBF713FA84F802B06D1C15F08A
:104DF000FF053FF4A3AE59B0BDE8F08F9844002002
:104E000010B504001FD110484FF4E161FBF7FFF922
:104E1000C4EB44100C4AC0EB0420002102EBC0009C
:104E200004E0042902D1C0F804070521C1EB0112F6
:104E300002EB420200EBC20202F5B473491CC2F855
:104E400064310A29EDDB10BD903D0020FCF72CFAFF
:104E5000FDF7C8FDFDF7D6FCFDF75EFCFDF77EFC17
:104E6000FDF776FDFDF73EFDFDF78EFD00F056F8EF
:104E7000FDF79AFC00F06EF8FEE70000F0B50B308D
:104E8000154D20F007010024144A0FE003688B42FF
:104E90000BD38B4205D95E1A43184768C3E90067F4
:104EA00000E04368136002C004E0021D106800289F
:104EB000ECD12046002802D1286808B10020F0BDBE
:104EC000064A07481060074A121A22F00702C0E992
:104ED000002401202860D7E72C0F0020280F002095
:104EE000EC4A0020E84B002010B5EFF3058149B9EA
:104EF000EFF3108131B908490968022905D1EFF3B0
:104F0000118111B16FF0050403E0002408B102F033
:104F100017F8204610BD000070000020EFF3058058
:104F200058B9EFF3108040B909490868022801D048
:104F300030B109E0EFF3118030B16FF00500704738
:104F400001200860002070474FF0FF3070470000DC
:104F50007000002010B5EFF3058060B9EFF310800A
:104F600048B90B490868022802D0012806D00BE096
:104F7000EFF3118040B16FF0050010BD0220086012
:104F800002F08EF8002010BD4FF0FF3010BD000081
:104F900070000020F0B585B04FEA01034FF0000427
:104FA000EFF305810394A1BBEFF3108189BB214985
:104FB0000968022902D1EFF3118151BB48B3802661
:104FC00018218DF8104004AD42B3176807B13D4673
:104FD00097691FB139467F1E382F02D21779FF0714
:104FE00002D0002005B0F0BD576907B1BE08D2F865
:104FF00008C0BCF1000F0DD0D4685C2C18D3126926
:105000003AB137B18DE806103246294602F0A3FCCA
:1050100003900DE0D7685FB912694AB903AACDE9D8
:105020000012B2B2294602F069FC012800D00394B4
:105030000398D7E7700000203EB5044601208DF8A4
:1050400008000020009001908879CA79062340EA80
:105050000220ADF80000087AADF802004A7A40EA72
:105060000220ADF80200887A8DF80400672004FB66
:1050700000F16A460220463101F076FB04EB441051
:10508000402101EB4001012302AA184601F06CFB0C
:105090003EBD10B586B0044601208DF810000020FA
:1050A00000900190029003908879ADF80000CA79D1
:1050B0000E2340EA0220ADF80000087AADF80200A5
:1050C0004A7A40EA0220ADF80200887AADF804007E
:1050D000CA7A40EA0220ADF80400087BADF8060069
:1050E0004A7B40EA0220ADF80600887B8DF8080074
:1050F000C87BADF80A000A7C40EA0220ADF80A003D
:10510000487CADF80C00897C6A4640EA0120ADF885
:105110000C00672004FB00F10220383101F024FB71
:1051200004EB4410312101EB4001012304AA18468D
:1051300001F01AFB06B010BD1FB5044601208DF822
:105140000C0000200090019002908879ADF80000DA
:10515000CA790C2340EA0220ADF80000087AADF8C5
:1051600002004A7A40EA0220ADF80200887AADF8DF
:105170000400CA7A02F00F0240EA0220ADF80400EF
:10518000C87A00098DF80600087BADF808004A7B54
:1051900040EA0220ADF80800887BADF80A00C97B20
:1051A0006A4640EA0120ADF80A00672004FB00F1DE
:1051B00002204B3101F0D8FA04EB4410432101EBFB
:1051C0004001012303AA184601F0CEFA1FBD1CB509
:1051D000044601208DF804008879C20701D00C2014
:1051E00017E0420701D50D2013E0C20601D50E20BD
:1051F0000FE0400601D50F200BE0C879C10701D0B0
:10520000102006E0410701D5112002E0C00602D5BA
:1052100012208DF80000672004FB00F101236A468C
:105220000220633101F0A0FA04EB4410612101EB8C
:105230004001012301AA184601F096FA1CBD1CB5D5
:10524000044601208DF800008879C979022340EADC
:105250000120ADF80400672004FB00F101AA184604
:10526000491D01F081FA04EB4410282101EB4001B3
:1052700001236A46184601F077FA1CBD30B58FB09D
:10528000054601200C468DF8340034216846FAF7B3
:10529000BEFF207A8DF80000E0798DF80100A0793A
:1052A0008DF80200607A08B1082800D9FF208DF837
:1052B0000300A07AADF80400E17A112240EA01204F
:1052C000ADF80400207BADF80600617B40EA0120C8
:1052D000ADF80600A07B00060290E17B40EA0140A9
:1052E0000290217C40EA01200290617C08430290F8
:1052F000A07C0390E17C40EA01200390217D40EAFC
:1053000001400390617D40EA01600390A07D8DF82B
:105310001000E07D8DF81100207E8DF81200607E77
:105320000590A17E40EA01200590E17E40EA01401F
:105330000590207F8DF8180004F11E010DF1190071
:10534000FAF74CFF54F82F0F0B90E078ADF83000CF
:105350002179342340EA0120ADF8300060798DF8DE
:105360003200A0798DF83300672005FB00F16A4612
:105370000220C91D01F0F8F905EB45102E2101EBC3
:10538000400101230DAA184601F0EEF90FB030BD1F
:105390001CB5044601208DF8000088798DF80400C2
:1053A000672004FB00F1012301AA0220453101F02E
:1053B000DBF904EB44103A2101EB400101236A467A
:1053C000184601F0D1F91CBD3EB5044601208DF808
:1053D00008000020009001908879082300EB8000ED
:1053E0004000ADF80000C879ADF802000A7A40EA42
:1053F0000220ADF80200487AADF804008A7A40EA4B
:105400000220ADF80400C87A8DF80600087B8DF8FC
:105410000700672004FB00F16A460220643101F0B6
:10542000A3F904EB44105B2101EB4001012302AA24
:10543000184601F099F93EBD1FB5044601208DF8CC
:105440000C00002000900190029088798DF80000F7
:10545000C8798DF80100087A8DF80200487A8DF835
:105460000300887A8DF80400C87A0C2300F003004A
:105470008DF80500C87A6A46C0F381008DF80600F1
:10548000C87AC0F301108DF80700C87A80098DF83A
:105490000800087B00F003008DF80900087BC0F3CA
:1054A00081008DF80A00087BC0F301108DF80B0015
:1054B000672004FB00F10220563101F055F904EB9E
:1054C0004410492101EB4001012303AA184601F0D1
:1054D0004BF91FBDFEB5012205468DF808208879DD
:1054E0004FF002065FEAC07C4FF003034FF0040761
:1054F0004FF0000402D08DF8042012E05FEA407CF7
:1055000002D58DF804600CE05FEAC06C02D58DF81E
:10551000043006E0400602D58DF8047001E08DF8F5
:105520000440087A5FEAC07C02D08DF8002030E0A9
:10553000420702D58DF800602BE0C20602D58DF837
:10554000003026E0400602D58DF8007021E0C879D1
:10555000C20701D0052017E0420701D5062013E05D
:10556000C20601D507200FE0400601D508200BE058
:10557000487AC10701D0092006E0410701D50A2079
:1055800002E0C00603D50B208DF8000001E08DF885
:105590000040672005FB00F404F16201012301AA29
:1055A000022001F0E1F804F1630101236A460220C0
:1055B00001F0DAF805EB4510492101EB4001012328
:1055C00002AA184601F0D0F8FEBD000000B5A1B057
:1055D00002237F2120AA184601F086F805208DF8C5
:1055E000280002208DF8290001218DF82A108DF85D
:1055F0002B009DF881008DF82C009DF880008DF81F
:105600002D00342113A8FAF702FE6A4614490AA8AD
:10561000FEF764FA8DF84C009DF800008DF84D00FF
:105620009DF801008DF84E009DF802200DF14F000D
:105630000DF10301FAF7D2FDBDF824009DF8021028
:105640000DF14F02030A8B5414AA88549DF84C00A4
:105650008DF87F0013A9002001F0DEFA21B000BD13
:10566000120F002010B5DCB004464FF4B27168464A
:10567000FAF7CDFD002059905A900B212046FEF7F5
:1056800075FC002835D004EB0410182101EB400113
:10569000082359AA012001F027F806208DF8000000
:1056A00012208DF801000820ADF80400F4208DF8D8
:1056B00002005620BDF864118DF803008DF8061025
:1056C000080ABDF866118DF807008DF80810080A61
:1056D0008DF80900BDF868118DF80A10080A8DF8D8
:1056E0000B009DF86A018DF80C0069462046FEF714
:1056F0000FFE5CB010BD10B5DAB004464FF4B271C5
:105700006846FAF784FD15212046FEF72FFC002895
:1057100059D004EB0410202101EB4001012359AAC8
:10572000184600F0E1FF02208DF800001F208DF8E0
:1057300001000420ADF80400F4208DF8020056208A
:105740009DF864118DF8030069B30C2937D30C3927
:10575000082934D2DFE801F0040B10171C21282D92
:105760009DF8060040F001008DF8060027E09DF846
:10577000070040F0010003E09DF8070040F004003E
:105780008DF807001BE09DF8080040F0010008E0DC
:105790009DF8080040F0040003E09DF8080040F088
:1057A00010008DF808000AE09DF8090040F00100A3
:1057B00003E09DF8090040F004008DF809006946F7
:1057C0002046FEF7A5FD5AB010BD30B5DBB004464B
:1057D0004FF4B2716846FAF71AFD0020599006207E
:1057E0008DF8000026208DF80100F4208DF80200CD
:1057F00056208DF803000325ADF804500021204603
:10580000FEF7B4FB002818D004EB041005EB4001B0
:10581000032359AA012000F067FF9DF866018DF867
:1058200006009DF865018DF807009DF864018DF86C
:10583000080069462046FEF76BFD5BB030BD10B531
:10584000DCB004464FF4B2716846FAF7E0FC002081
:1058500059905A9006212046FEF788FB002837D041
:1058600004EB04100F2101EB4001082359AA012089
:1058700000F03AFF06208DF800000820ADF8040083
:105880008DF80100F4208DF802005620BDF8641157
:105890008DF803008DF80610080ABDF866118DF822
:1058A00007008DF80810080A8DF80900BDF8681186
:1058B0008DF80A10080A8DF80B00BDF86A018DF802
:1058C0000C00000A8DF80D0069462046FEF720FD09
:1058D0005CB010BD30B5DDB005464FF4B27168461E
:1058E000FAF795FC002059905A905B9002212846C7
:1058F000FEF73CFB002837D005EB0510062404EB2F
:1059000040010C2359AA012000F0EEFE8DF8004062
:1059100001208DF801000820ADF80400F4208DF876
:10592000020056208DF803009DF864018DF80600F2
:105930005A988DF80700000A8DF808005A986946B1
:10594000000C8DF809005A98000E8DF80A005B983B
:105950008DF80B00000A8DF80C005B98000C8DF898
:105960000D002846FEF7D4FC5DB030BD10B5DAB0AE
:1059700004464FF4B2716846FAF749FC00208DF8EE
:10598000640108212046FEF7F1FA002820D004EB3C
:105990000410172101EB4001012359AA184600F019
:1059A000A3FE04208DF800000A208DF801000120DC
:1059B000ADF80400F4208DF8020056208DF80300A5
:1059C0009DF864018DF8060069462046FEF7A0FCAC
:1059D0005AB010BD30B5DBB004464FF4B271684622
:1059E000FAF715FC00205A90599013212046FEF733
:1059F000BDFA00283ED004EB0415212000EB450140
:105A000004235AAA012000F06FFE072000EB450195
:105A1000042359AA012000F067FE06208DF800003B
:105A20001D208DF801000820ADF80400F4208DF849
:105A3000020056208DF80300BDF868118DF806109D
:105A4000080A8DF80700BDF86A018DF80800000A01
:105A50008DF8090059998DF80A10080A8DF80B0085
:105A6000080C8DF80C00080E8DF80D0069462046D4
:105A7000FEF74EFC5BB030BD10B5DAB004464FF413
:105A8000B2716846FAF7C3FB11212046FEF76EFAA1
:105A900000286ED004EB04101F2101EB400102230B
:105AA00059AA012000F020FE01218DF800101A20D3
:105AB0008DF801000420ADF80400F4208DF80200F8
:105AC00056208DF803009DF864014000801E81403F
:105AD0008DF806109DF8651101B30B2945D80C29E6
