:020000040800F2
:10000000104A0020990100089F280008D12200080A
:100010009D280008D9030008412E000800000000B8
:1000200000000000000000000000000001010008C6
:100030001F0400080000000045010008A92800086E
:10004000B3010008B3010008B3010008B3010008C0
:10005000B3010008B3010008B3010008B3010008B0
:10006000B3010008B3010008B3010008B3010008A0
:10007000B3010008B3010008DD030008E90300082C
:10008000B3010008B3010008B3010008B301000880
:10009000352E0008B3010008B3010008B3010008C1
:1000A000B301000825290008B3010008B3010008C6
:1000B000B3010008B3010008B3010008B301000850
:1000C000B3010008B3010008B3010008B301000840
:1000D000B3010008292E0008B3010008B30100088D
:1000E000B3010008B3010008B3010008DFF80CD029
:1000F00000F0ACF80048004715440008104A002002
:10010000224B19680868B0E8F00F80F30988BFF344
:100110006F8F4FF0000080F311884EF00D0E704786
:100120000000000006480068006880F3088862B696
:1001300061B6BFF34F8FBFF36F8F00DF00BF00BF0B
:1001400008ED00E0EFF30980BFF36F8F0F4B1A68E3
:1001500020E9F00F106008B54FF0500080F31188CF
:10016000BFF34F8FBFF36F8F06F066F94FF00000BB
:1001700080F31188BDE8084019680868B0E8F00FFE
:1001800080F30988BFF36F8F704700BF38000020ED
:10019000EFF3058070470000064880470648004797
:1001A000FEE7FEE7FEE7FEE7FEE7FEE7FEE7FEE727
:1001B000FEE7FEE723290008ED00000840EA0103FE
:1001C0009B0703D009E008C9121F08C0042AFAD20D
:1001D00003E011F8013B00F8013B521EF9D27047D1
:1001E000D2B201E000F8012B491EFBD27047002279
:1001F000F6E710B513460A4604461946FFF7F0FF26
:10020000204610BD10B5002200E0521C835C8C5CBF
:10021000A34201D1002BF8D1D8B2E1B2401A10BDEF
:1002200030B50B46014600202022012409E021FAC6
:1002300002F59D4205D303FA02F5491B04FA02F5C3
:100240002844151EA2F10102F1DC30BD064C074D19
:1002500006E0E06840F0010394E807009847103496
:10026000AC42F6D3FFF746FFEC7200080C730008AF
:1002700070B58C1810F8015B15F0070301D110F868
:10028000013B2A1106D110F8012B03E010F8016B95
:1002900001F8016B5B1EF9D12B0705D40023521E18
:1002A0000DD401F8013BFAE710F8013BCB1A921C80
:1002B00003E013F8015B01F8015B521EF9D5A1427E
:1002C000D8D3002070BD00008EB0194C4FF4FA76E0
:1002D000012004F0B9F802F0E3FF2588B54222D3EB
:1002E00034216846FFF783FF2B4612A232211748BC
:1002F00002F0B8FDC2B28DF8002014490DF10100E2
:10030000FFF75CFF9DF800006946401C8DF8330044
:10031000002005F0FFFD0EA002F094FD14A002F0F5
:1003200091FD002020802088401C2080D0E7000024
:10033000A8080020523438352074657374206D6528
:10034000737361676520256400000000DC450020B0
:10035000554152542073656E64206661696C7572F4
:10036000652C696E697420616761696E210A0000FD
:100370004A31393339E9989FE58897E6BBA1E4BA59
:1003800086210A000125114C86B04FF4FA77002629
:100390004FF00208012004F057F8207810B902F05D
:1003A0004BFF25706088B84209D366808DF80080C5
:1003B0006B46032206A1002003F096FA01E0401CE0
:1003C000608001F086FF05F067FDE3E7E0060020AE
:1003D00072756E5F6C656400FEE70000014800F016
:1003E00033BC0000000A0020014800F02DBC0000D2
:1003F000BC09002030B590F840500124AC40C56BDA
:100400006C60046863604368102B036803D09960D4
:100410000068C26030BD9A600068C16030BD70473E
:1004200072B6FEE790F82020012A07D0022A05D0F4
:10043000416A41F4802141620120704700684269AD
:100440000A43426100207047F0B590F820500468DC
:10045000A468012D05D0022D03D0416A41F480210A
:100460004DE014F0406F01D1E50045D5C4F30164BF
:100470000125A5401D608D684FF4C0739DB1CE6805
:1004800035434E6845EAC605066803EB0417F55187
:100490004FF4C275076805EB04150E697E51097D9E
:1004A000012905D009E00E88CD6845EA4655EBE7FD
:1004B00001684E5946F480764E511179D2F80550B4
:1004C0004FF4C67641EA0521056806EB0416A951EA
:1004D0001178D2F801204FF4C47541EA0221026874
:1004E00005EB04155151006803EB0411425842F02A
:1004F000010242500020F0BD416A41F40011416206
:100500000120F0BD10B504000ED000F0C9FA20465D
:1005100000F012FA2068016841F4004101600020F7
:10052000606284F8200010BD012010BD704770B5D6
:1005300090F82040012C05D0022C03D0416A41F4F0
:10054000802128E0046809B32469A40720D04FF46F
:10055000D874056804EB01142D5915F00405956055
:1005600005682D591AD0ED08556005682C5904F01E
:100570000204D4604FF4DA74056804EB01142E59B8
:1005800006F00F06082E0CD308250DE0E468DCE722
:10059000416A41F400114162012070BD6D0D15608A
:1005A000E3E72D5905F00F05156105682D59C5F3D1
:1005B0000725956105682C59240C54614FF4DC72B1
:1005C000046802EB0112A4581C700468A458240AA1
:1005D0005C700468A458240C9C700468A258120E25
:1005E000DA704FF4DE72046802EB0112A4581C7139
:1005F0000468A458240A5C710468A458240C9C71F3
:100600000468A258120EDA71006829B1016941F03C
:1006100020010161002070BDC16841F02001C1606E
:10062000F8E72DE9F05F0546006800244669D0F838
:1006300004908768D0F80CB0D0F810A0D0F81880DB
:10064000F10748D0F90714D001218160B80703D51C
:10065000284600F056FA0CE0780702D54FF4006403
:1006600007E0380702D54FF4805402E0284600F036
:1006700047FAF80516D529684FF480708860B805E8
:1006800003D5284600F03FFA0CE0780502D544F483
:10069000005407E0380502D544F4804402E02846BF
:1006A00000F030FAF80316D529684FF480308860DE
:1006B000B80303D5284600F028FA0CE0780302D5E9
:1006C00044F4004407E0380302D544F4803402E0E7
:1006D000284600F019FA300707D55FEACB6004D549
:1006E0002968102044F40074C86070074FF00807B0
:1006F00007D55FEA0B7004D52868C760284600F06C
:1007000075F9B00706D52868C068800702D028466A
:1007100000F06EF9700607D55FEACA6004D5296853
:10072000102044F480640861B00607D55FEA0A70BF
:1007300004D528680761284600F082F9F00606D53E
:1007400028680069800702D0284600F07AF9B003D3
:1007500008D55FEAC96005D5296810204860284699
:1007600000F070F9F00307D55FEA097004D5286836
:100770004760284600F0CAF9300446D55FEA497060
:1007800040D5F00504D55FEAC87001D044F00104FB
:10079000B00504D55FEA887001D544F00204700505
:1007A00004D55FEA487001D544F00404300529D52A
:1007B00018F0700F26D008F07000402815D006DC25
:1007C000102809D020280AD0302816D10AE0502855
:1007D0000ED0602811D10EE044F008040DE044F082
:1007E00010040AE044F0200407E044F0400404E070
:1007F00044F0800401E044F480742868816921F0A9
:1008000070018161296804204860002C05D0686A65
:10081000204368622846FFF789FEBDE8F09F70B567
:10082000040003D094F8200010B104E0012070BD52
:10083000204600F09DF82068016841F00101016048
:1008400000F0A0FC0546052604E000F09BFC401BE0
:100850000A2811D820684068C007F6D020680168CF
:1008600021F00201016000F08DFC05460BE000F074
:1008700089FC401B0A2806D9606A40F40030606297
:1008800084F82060D2E7206840688007EFD4207E9B
:100890000128206801683DD021F080010160607E60
:1008A00001282068016838D021F040010160A07E55
:1008B00001282068016833D021F020010160E07E2A
:1008C0000128206801682ED041F010010160207FCE
:1008D00001282068016829D021F008010160607FAB
:1008E00001282068016824D021F004010160D4E9C6
:1008F00002010843D4E90412114308436168491E08
:1009000008432168C86100206062012084F820004B
:10091000002070BD41F08001C0E741F04001C5E713
:1009200041F02001CAE721F01001CFE741F00801B2
:10093000D4E741F00401D9E710B5006809498842BD
:100940000ED10948C16921F00071C1614FF4C05155
:10095000064800F089FABDE81040142000F0A4BC5D
:1009600010BD00000064004000100240000801407B
:1009700010B586B0002100910191029103910068A9
:10098000174988422AD11748C16941F00071C161F5
:10099000C16901F000710491816941F00401816134
:1009A0008069114C00F0040004904FF40060009046
:1009B0006946204600F0E4FAA0140090022001905D
:1009C000032003906946204600F0DAFA0022052150
:1009D000142000F087FC142000F077FC06B010BD56
:1009E0000064004000100240000801407047000011
:1009F00010B5124900688EB0096888421CD10BAB53
:100A000004AA00210D48FFF792FD002814D1059893
:100A1000009008988DF80400002069460BAA0C1875
:100A2000135C401C63710828F9DB002002F038FDDC
:100A300002210248FFF7F6FC0EB010BDB0080020FE
:100A4000704770477047000070B5044690F820006A
:100A5000012804D0606A40F40020606218E002209F
:100A600084F820002068016821F00101016000F095
:100A700089FB05460EE000BF00F084FB401B0A28FE
:100A800008D9606A40F400306062052084F82000D4
:100A9000012070BD20684068C007EDD1606270BD64
:100AA00070B5044690F82000022804D0606A40F433
:100AB0008010606214E02068016841F0010101606B
:100AC00000F060FB05460DE000F05CFB401B0A28CF
:100AD00008D9606A40F400306062052084F8200084
:100AE000012070BD20684068C007EDD02068016813
:100AF00021F002010160012084F82000002070BD77
:100B0000704770477047704770477047704710B51F
:100B100090F821100022022905D00421816380F879
:100B20002020012010BD01680B6823F00E030B602C
:100B300001680B6823F001030B6090F84030C46B30
:100B4000012101FA03F3636080F8211080F820206E
:100B5000104610BD10B590F821100024022903D0D2
:100B60000421816301243DE001680A6822F00E023D
:100B70000A6001680A6822F001020A601A4A0168E4
:100B8000914201D1012121E0174A1432914201D151
:100B900010211BE0144A2832914201D1891515E039
:100BA000114A3C32914201D189140FE00E4A503271
:100BB000914202D14FF4803108E00B4A64329142F5
:100BC00002D14FF4801101E04FF08071064A083ADB
:100BD0005160012180F82110002180F82010416B24
:100BE00001B18847204610BD0800024010B528B367
:100BF00001680A6822F001020A600268002111609F
:100C000002685160026891600268D1600C4B026812
:100C100001241A441423B2FBF3F29300094AC0E9F9
:100C20000F239C4054608162C16201634163816310
:100C300080F8211080F82010002010BD012010BD88
:100C4000F8FFFDBF000002402DE9F05FC16B0C68AA
:100C500001680B68D0F840C0042202FA0CF2494D3A
:100C6000DFF824A1494E4A4FDFF828B1DFF828E128
:100C700022422CD05A072AD50A68920603D40A6861
:100C800022F004020A600168A94201D1042219E09D
:100C9000514501D1402215E0B14202D14FF48062AA
:100CA00010E0B94202D14FF480420BE0594502D125
:100CB0004FF4802206E0714502D14FF4800201E03A
:100CC0004FF080622F4908394A60C16A3BE04FF01B
:100CD000020808FA0CF818EA040F4FF000094FF068
:100CE000010235D05FEA837832D50B689B0605D4C4
:100CF0000B6823F00A030B6080F821200168A942E9
:100D000001D1022219E0514501D1202215E0B14262
:100D100002D14FF4007210E0B94202D14FF40052F8
:100D20000BE0594502D14FF4003206E0714502D183
:100D30004FF4001201E04FF00072124908394A6086
:100D400080F82090816A00291AD0BDE8F05F08473A
:100D5000082505FA0CF5254212D01B0710D50B68A3
:100D600023F00E030B6090F84010C36B02FA01F100
:100D70005960826380F8212080F82090016BE2E7BF
:100D8000BDE8F09F080002401C0002403000024015
:100D900044000240580002406C00024030B528B3C5
:100DA00008C8134914221944B1FBF2F18900C16348
:100DB00010498163022141771A6843F6F0718A4332
:100DC000D0E900142143D0E902452C4321430469B2
:100DD000214344692143846921431143196000215F
:100DE0004163012242770177084630BD012030BDC2
:100DF000F8FFFDBF0000024070B5044690F82000E7
:100E0000002501280CD0012084F8200094F82160EE
:100E10000020012E06D084F820000225284670BD4F
:100E2000022070BD022684F82160A0632068066855
:100E300026F0010606602046FFF7DCFAE06A00288B
:100E40002068016802D041F00E0106E021F00401A3
:100E500001602068016841F00A01016020680168B2
:100E600041F001010160D9E72DE9F04300233E4F35
:100E70000F2573E001229A400A406DD023F003044D
:100E8000E619D6F808809C074FEA147C05FA0CF99D
:100E900009EA0804DFF8D480404502D14FF0000889
:100EA00016E0DFF8CC80404502D14FF001080FE09A
:100EB000DFF8C080404502D14FF0020808E0DFF8BB
:100EC000B880404502D14FF0030801E04FF004081C
:100ED00008FA0CF8A04522D1284CD4F800C02CEA1E
:100EE000020CC4F800C0241DD4F800C02CEA020C87
:100EF000C4F800C0214C0C34D4F800C02CEA020C19
:100F0000C4F800C0241FD4F800C02CEA020CC4F8B6
:100F100000C0D6F808C02CEA090CC6F808C0FF2AA1
:100F200001D8064601E000F104064FEA830401D926
:100F3000A4F12004D6F800C005FA04F82CEA080C45
:100F40004FF0040808FA04F84CEA080CC6F800C090
:100F5000C46824EA0204C46003F1010331FA03F215
:100F600088D1BDE8F0830000000001400008014086
:100F7000000C014000100140001401400004014039
:100F80002DE9F84FDFF8B8910024A9F1040B2346AE
:100F90000F2709F1040AABF1040EC9E00125A540B1
:100FA0002A40AA427DD1674ED1F804C0ACEB0608B6
:100FB000B44532D014DCBCF1030F3AD009DCBCF1EB
:100FC000000F2AD0BCF1010F1CD0BCF1020F31D1AF
:100FD0001DE0BCF1110F17D0BCF1120F2AD119E09E
:100FE000B8F5881F19D006DCB8F5803F15D0B8F5E4
:100FF000801F1FD111E0B8F5001F0ED0B8F5041FF7
:1010000018D10AE0CB6815E0CB681B1D12E0CB6855
:1010100008330FE0CB680C330CE08B682BB1012B4D
:101020004FF0080303D0456104E0042302E00561AA
:1010300000E00023FF2A01D8064601E000F1040683
:101040004FEA840501D9A5F12005D6F8008007FAFA
:1010500005FC28EA0C0803FA05F548EA0508C6F875
:1010600000804D68ED0062D5374DAE6946F001064F
:10107000AE61AD6924F0030605F001050095334D1E
:1010800006EB050CDCF80850A607360F07FA06F841
:1010900025EA0805DFF8B880404503D14FF0000885
:1010A00017E044E0DFF8AC80404502D14FF0010882
:1010B0000FE0DFF8A480404502D14FF0020808E0BD
:1010C000DFF89880404502D14FF0030801E04FF06F
:1010D000040808FA06F848EA0508CCF808804D68C4
:1010E000D9F80060ED024D4601D5164300E0964365
:1010F0002E604D68DAF80060AD02554601D5164302
:1011000000E096432E604D68DBF80060AD035D465D
:1011100001D5164300E096432E604D68DEF800606E
:10112000ED03754601D5164300E096432E60641C1E
:101130000D682A46E5407FF431AFBDE8F88F000026
:10114000080401400000111000100240000001409E
:1011500000080140000C0140001001400014014053
:101160008068084000D001207047C26821EA02036D
:101170000A4043EA0241016170470AB101617047C8
:101180000904FBE701488068704700002800002040
:1011900070B5040011D021684CF6CC40086021687D
:1011A00045F255500860D4E9000141602168A0680B
:1011B0008860FFF7E7FF05460DE0012070BD00BF26
:1011C000FFF7E0FF401B272805D92068C06880078B
:1011D00001D0032070BD2068C0688007F0D121686D
:1011E0004AF6AA200860002070BD0000024881680D
:1011F000027811448160704728000020074810B52C
:10120000016841F010010160032000F08BF80F200D
:1012100000F006F800F024F8002010BD0020024085
:1012200070B50D4D04464FF47A712878B1FBF0F09B
:101230000A490968B1FBF0F000F0F2FA48B9102C45
:1012400007D200222146501E00F04CF800206C60AE
:1012500070BD012070BD0000280000203400002077
:101260000F4808B5816941F001018161816901F090
:1012700001010091C16941F08051C161C069002242
:1012800000F0805000900F21901E00F02BF80548D0
:10129000416821F0E06141F00071416008BD00004B
:1012A000001002400000014000280DDB00F01F028A
:1012B000012191404009800000F1E020C0F8801138
:1012C000BFF34F8FBFF36F8F7047002809DB00F02B
:1012D0001F02012191404009800000F1E020C0F888
:1012E00000117047F0B40E4B1B680C46C3F3022389
:1012F000C3F10705042D00D90425191D072901D2C2
:10130000002300E0DB1E012606FA05F1491E2140FC
:1013100099409E40761E16403143F0BC01F0BABDA4
:101320000CED00E0064900F0070208684FF6FF03E5
:10133000184040EA0220034A10430860704700004A
:101340000CED00E00000FA052DE9F0470F4605001E
:1013500061D0434E306800F00700B84209D23068CF
:1013600020F0070038433060306800F00700B842D2
:1013700051D128683B4C810712D5400703D56068DE
:1013800040F4E06060602878000703D5606840F4AE
:10139000605060606068A96820F0F00008436060F9
:1013A0002878C00728D06868012810D02168022852
:1013B00010D0890700292EDA616821F0030101436A
:1013C0006160FFF7DFFE804641F288390DE0216859
:1013D0008903EFE78901EDE7FFF7D4FEA0EB0801F1
:1013E000494502D90320BDE8F0876068696800F0CC
:1013F0000C00B0EB810FEFD1306800F00700B8426D
:101400000BD9306820F0070038433060306800F0B6
:101410000700B84201D00120E5E72878400705D54C
:101420006068E96820F4E06008436060287800079D
:1014300006D56068296920F4605040EAC100606008
:1014400000F038F86168084AC1F30311515CC840E4
:101450000649086006480068FFF7E2FE0020C2E780
:101460000020024000100240B2700008340000204A
:101470002C0000200448054900684968044AC1F36B
:101480000221515CC8407047340000200010024027
:10149000C27000080448054900684968044AC1F35D
:1014A000C221515CC8407047340000200010024047
:1014B000C27000080E4A51680E4801F00C03042B5C
:1014C00011D0082B0FD10C48C1F38343C903C05C72
:1014D0000AD55168084AC1F34041921E515C054A41
:1014E0005043B0FBF1F07047044948437047000097
:1014F0000010024000127A00A270000800093D00AE
:101500002DE9F84F040070D02078C04DC00749D0B5
:101510006868C0F38100012807D06868C0F38100C3
:10152000022809D16868C00306D52868800339D528
:1015300060680028E7D035E06068B0F5803F0BD0E8
:1015400010B1B0F5A02F11D0286820F480302860A9
:10155000286820F4802002E0286840F48030286069
:10156000606890B1FFF70EFE06460AE0286840F476
:1015700080202860F0E700BFFFF704FE801B64288E
:1015800073D828688003F7D50CE0FFF7FBFD06460B
:1015900005E000BFFFF7F6FD801B6428F0D828683F
:1015A0008003F7D420789A4E80074FF001094FF05E
:1015B000000839D5686810F00C0F07D06868C0F3D0
:1015C0008100022809D16868C00306D42868800712
:1015D00014D52069012808D110E02069B0B1C6F8FF
:1015E0000090FFF7CFFD074605E00AE1FFF7CAFDCF
:1015F000C01B0228C4D828688007F7D5286861690D
:1016000020F0F80040EAC10028600DE0C6F8008034
:10161000FFF7B8FD074604E0FFF7B4FDC01B022842
:1016200023D828688007F7D4207800072CD579487C
:10163000A169D9B1C0F80090FFF7A4FD074604E006
:10164000FFF7A0FDC01B02280FD8686A8007F7D5F6
:1016500071484FF4FA510068B0FBF1F0009000BF00
:101660000098411E0091FAD20EE080E0C0F80080A0
:10167000FFF788FD074604E0FFF784FDC01B022842
:1016800075D8686A8007F7D42078400760D5E86984
:101690000027C00008D4E86940F08050E861E8699C
:1016A000012700F0805000905C480168C90513D400
:1016B0000168834641F480710160FFF763FD824653
:1016C00006E000BFFFF75EFDA0EB0A0064284ED8DD
:1016D000DBF80000C005F5D5E06801280AD008B1A4
:1016E000052813D0286A20F001002862286A20F01B
:1016F000040002E0286A40F001002862E06841F23C
:10170000883B98B1FFF73EFD82460BE0286A40F027
:1017100004002862EEE700BFFFF734FDA0EB0A01EA
:1017200059455AD8286A8007F6D50CE0FFF72AFDFC
:10173000824605E0FFF726FDA0EB0A0159454CD88B
:10174000286A8007F6D41FB1E86920F08050E8616C
:10175000E06988B36968C1F38101022944D0022895
:10176000C6F8608004D0FFF70DFD044638E034E091
:10177000FFF708FD074604E0FFF704FDC01B022841
:101780002BD828688001F7D4206AB0F5803F05D1B6
:101790006868A16820F4003008436860D4E9080153
:1017A0000843696821F4741108436860C6F86090C2
:1017B000FFF7E8FC044606E025E000BFFFF7E2FC87
:1017C000001B022809D828688001F7D51BE000BF5C
:1017D000FFF7D8FC001B022802D90320BDE8F88FD0
:1017E00028688001F4D40EE00128F7D06868226AE6
:1017F00000F48031914204D1616A00F47010884293
:1018000001D00120EAE70020E8E7000000100240D4
:101810000000424280044242340000200070004038
:1018200010B5401EB0F1807F01D3012010BD4FF0F4
:10183000E02460610F21601701F02CFB0020A06103
:1018400007202061002010BD7047704770B590F8E8
:101850003C20012A26D0012480F83C40022280F856
:101860003D2003685A689D6822F070060A6832437A
:101870005A600D4B02689A4208D0B2F1804F05D0F1
:101880000A4B9A4202D00A4B9A4204D1496825F089
:1018900080031943916080F83D40002180F83C109E
:1018A000084670BD022070BD002C014000040040BD
:1018B0000008004010B5040003D094F83D0010B1BA
:1018C00007E0012010BD002084F83C00204600F015
:1018D0001FF8022084F83D00211D206801F028F83F
:1018E000012084F8460084F83E0084F83F0084F824
:1018F000400084F8410084F8420084F8430084F8F2
:10190000440084F8450084F83D00002010BD00002C
:1019100008B500680B49884212D10B48816941F42F
:10192000006181618069002200F40060009005215F
:101930001920FFF7D7FCBDE808401920FFF7C5BC08
:1019400008BD0000002C01400010024070B50446A4
:1019500090F83C000025012817D0012684F83C604F
:10196000022084F83D002068826822F0770222F489
:101970007F4282600868502838D00DDC20284FD084
:1019800005DC90B3102811D14AE0022070BD302848
:1019900046D040280AD13BE060282FD070280DD0D7
:1019A000B0F5805F03D0B0F5005F12D0012584F858
:1019B0003D60002084F83C00284670BDCB68D1E92A
:1019C0000121206800F0EAFF2068816841F077017A
:1019D00009E0CB68D1E90121206800F0DFFF206831
:1019E000816841F480418160E1E719E0CA68496893
:1019F000206800F0E5FF5021206806E0CA684968C9
:101A0000206800F0EEFF6021206800F0D1FFCEE7F3
:101A1000CA684968206800F0D3FF40212068F4E7D5
:101A2000226801461046F0E7704770B5044600682A
:101A300001694FF00005C943890715D4C168C9433E
:101A4000890711D4E91E016101202077206880698F
:101A50008007204602D0FFF7E7FF04E000F098F887
:101A6000204600F096F8257720680169C9434907A8
:101A700017D4C168C943490713D46FF00401016149
:101A8000022020772068806910F4407F204602D031
:101A9000FFF7CAFF04E000F07BF8204600F079F879
:101AA000257720680169C943090716D4C168C9436D
:101AB000090712D46FF00801016104202077206823
:101AC000C0698007204602D0FFF7AEFF04E000F0B7
:101AD0005FF8204600F05DF8257720680169C9436A
:101AE000C90617D4C168C943C90613D46FF01001E1
:101AF0000161082020772068C06910F4407F2046EB
:101B000002D0FFF791FF04E000F042F8204600F019
:101B100040F8257720680169C943C90708D1C16821
:101B2000C943C90704D1891E0161204600F032F87B
:101B300020680169C943090609D4C168C943090677
:101B400005D46FF0800101612046FFF77DFE20681B
:101B50000169C943490609D4C168C943490605D486
:101B60006FF040010161204600F015F8206801691E
:101B7000C94389060BD4C168C943890607D46FF0ED
:101B8000200101612046BDE87040FFF75EBE70BDD8
:101B90007047704770477047704710B5044600683B
:101BA000406994F84110C0F3C010212911D180B1CF
:101BB0002068143050E8001F21F0800140E8001236
:101BC000002AF5D1A06B08B1FEF7A1FF204600F076
:101BD000C0FF2068406994F84210C0F380102229A9
:101BE00011D180B12068143050E8001F21F040016D
:101BF00040E80012002AF5D1E06B08B1FEF787FF3C
:101C0000204600F07FFF002010BD10B5040015D065
:101C1000242084F841002068C16821F40051C1608B
:101C2000204600F077F90020606484F8410084F8D1
:101C3000420044F8300F6060207410BD012010BDD8
:101C400070470000F8B5016804460868CA684B6927
:101C500010F00F0F4FF0000559D003F0010602F409
:101C60009077374365D0C10705D0D10503D5616CA6
:101C700041F001016164410705D5D90703D0616CCA
:101C800041F002016164810705D5D90703D0616C79
:101C900041F004016164010707D502F020013143DE
:101CA00003D0616C41F008016164616C00293AD095
:101CB000800604D5900602D5204600F058FF206823
:101CC0004069616CC0F38010090700D460B32046FE
:101CD00000F018FF20684069400621D520681430C4
:101CE00050E8001F21F0400140E80012002AF5D121
:101CF000E06BA8B16D494163E06BFEF72BFF002854
:101D000011D0E06B416B01B0BDE8F040084783069D
:101D10000FD593060DD52046BDE8F84000F027BF4B
:101D20002046FFF78DFFF8BD2046FFF789FF656469
:101D3000F8BD266B2023012E7CD1C6067AD5D606A7
:101D400078D508684868009048694FF00206400658
:101D500040D5E16B086840680004000CE8D0A28D13
:101D60008242E5D9E085886920282DD020680C3092
:101D700050E8001F21F4807140E80012002AF5D1DC
:101D80002068143050E8001F21F0010140E80012E3
:101D9000002AF5D12068143050E8001F21F04001DE
:101DA00040E80012002AF5D184F84230256320680B
:101DB0000C3050E8001F21F0100140E80012002A0A
:101DC000F5D1E06BFEF7A3FE6663A08DE18D401AAE
:101DD00081B22AE0A08DE18D401A81B2E08D002809
:101DE000A6D00029A4D022680C3252E8000F20F4BB
:101DF000907042E80007002FF5D12068143050E8B9
:101E0000002F22F0010240E80027002FF5D184F8CE
:101E10004230256320680C3050E8002F22F0100279
:101E200040E80023002BF5D166632046FFF7B4FE9F
:101E3000F8BDFFE705062BD5150629D594F8410016
:101E40002128F5D1A068B0F5805F01D12069B0B13B
:101E5000206A411C2162216800784860E08C401EA5
:101E60000004000CE084E3D12068C16821F0800107
:101E7000C1602068C16841F04001C160D8E7206AB4
:101E80000088C0F308004860206A801C2062E5E7F3
:101E90004006CDD55006CBD5CA68204622F0400278
:101EA000CA6084F8413000F012FAC1E7072A00083E
:101EB00070B5040004D094F84100002510B106E08C
:101EC000012070BD84F84050204600F055F82420D1
:101ED00084F841002068C16821F40051C1602046A7
:101EE00000F0A6FE2068016921F49041016120689C
:101EF000416921F02A0141612068C16841F4005123
:101F0000C1606564202084F8410084F84200656364
:101F1000002070BD10B50446134B01681348144AE5
:101F2000994213D1816921F4804181614FF4C061EC
:101F30001046FEF799FFE06BFEF758FEA06BFEF728
:101F400055FEBDE810402520FFF7AEB9094B994278
:101F500009D1C16921F40031C161BDE810400C21F3
:101F60001046FEF781BF10BD00380140001002404E
:101F70000008014000440040F0B585B00024009402
:101F800001940294039406463E4F03683E490220A2
:101F900003223E4DBB4251D18B6943F480438B6198
:101FA0008B6903F4804304938B6943F004038B61D2
:101FB0008969039201F0040104910102CDE9001046
:101FC00069462846FEF7DCFF2815CDE9000469467E
:101FD00028460294FEF7D4FF2E4D2D488027C5E9F0
:101FE0000004C5E902472C616C61AC612846EC61D4
:101FF000FEF7D4FE08B1FEF713FAF5636E62254DC5
:1020000023484435143801C5102091C5214845F8AE
:10201000104944306C61AC61EC61FEF7BFFE08B161
:10202000FEF7FEF9B5630022052125206E62FFF759
:1020300059F92520FFF749F905B0F0BD164EB34216
:10204000FAD1CB6943F40033CB61CB6903F400339D
:1020500004938B6943F004038B618969039201F057
:10206000040104910421CDE9001069462846FEF7D9
:1020700087FF0820CDE90004694628460294FEF750
:102080007FFFD9E7003801400010024000080140FE
:1020900058000240BC090020004400402DE9F843EC
:1020A000044690F84200994616460D46202802D074
:1020B0000220BDE8F883ADB1A6B100206064222102
:1020C00084F842102063FFF75DF8A6858046E68518
:1020D000A0684FF48057B84201D1206920B12E4644
:1020E000002526E00120E4E7002622E04346002206
:1020F00020212046CDF8009000F059FE08B10320C1
:10210000D7E726B1A068B8421BD038B108E02068F4
:102110004068C0F3080025F8020B07E0206980B191
:102120002068406800F07F0006F8010BE08D401E3B
:10213000E085E08D0028D9D1202084F842000020DD
:10214000B7E720684068EFE790F84230202B01D0D5
:102150000220704721B11AB10023036300F0C4BD0F
:102160000120704790F84230202B01D002207047A8
:1021700021B11AB10023036300F0FEBD01207047B6
:1021800000B51B498DB0884230D109686FF010004E
:1021900008601748FFF701FD164800684068C0F165
:1021A0003200C0B2411E312914D88DF80000124807
:1021B00002E0521E8DF800209DF80020115C0029DD
:1021C000F7D00E490DF10100FDF7F8FF6946002038
:1021D00003F0F6FC32210948FEF709F80DB032226F
:1021E000064903485DF804EBFFF7AEBF0DB000BD34
:1021F0002C090020BC090020172B0020182B0020E0
:1022000070472DE9F843044690F841001F461646F2
:102210000D46202802D00220BDE8F8837DB176B1BA
:1022200000206064212084F84100FEF7ABFFA68403
:102230008046E684A068B0F5805F02D003E001200C
:10224000EAE7206910B12E4600250EE000260CE0DA
:102250008021204600F0ABFDA0B9AEB116F8010B0D
:1022600021684860E08C401EE084E08C43464FF0DB
:10227000000200970028EBD14FF04001204600F00B
:1022800096FD30B10320C7E735F8020BC0F3080014
:10229000E6E7202084F841000020BDE790F84130B7
:1022A000202B01D00220704779B172B10162828483
:1022B000C28400214164212180F841100068C16876
:1022C00041F08001C16000207047012070477047D5
:1022D000FEE710B501F064FA01F052FE01F0FCFBDC
:1022E00000F008F9BDE8104001F000BF70B50B46E2
:1022F000B0B90F4C606898B1216889B14FF4B275DC
:102300002A461846FDF75AFF29462068FDF76FFF59
:10231000D4E90001884205D100202060606004E01B
:10232000002070BDD0F864012060012070BD000065
:10233000CC0600202DE9F0410C46060034D1002CDB
:1023400032D040484FF4AF77416851B1026842B192
:10235000D1F86411914229D13BA0BDE8F04100F0D1
:1023600071BD404D45600560D5F8640110B9304637
:1023700001F012FC2078287060786870A078A8704E
:10238000E078E870A088A880A088082806D9A81D51
:102390003A46A11DFDF712FF33A0DEE754F8060F01
:1023A00045F8060F60686860BDE8F0810546416049
:1023B000207808706968607848706968A0788870CB
:1023C0006968E078C8706968A08888806868417822
:1023D0002AA000F037FD686881782EA000F032FD59
:1023E0006868C17831A000F02DFD6868818835A04B
:1023F00000F028FDA08813490828686801EBC6068C
:102400000FD93A46A11D801DFDF7D8FE0024716842
:10241000A01D095C31A000F015FD641CBC42F6DB78
:10242000C2E754F8061F40F8061F616841600024A7
:102430007168A01D095C29A000F004FD641C082C33
:10244000F6DBB1E7CC0600204A3139333920646528
:1024500020647569206C6965206D616E206C652152
:102460000A000000903100203132333435363738DD
:102470003931323334353637383900004A3139335F
:102480003920656E71756575652050474E3A256433
:102490000A0000004A3139333920656E717565755F
:1024A000652044413A25640A000000004A3139336E
:1024B0003920656E71756575652053413A25640A4A
:1024C000000000004A3139333920656E7175657539
:1024D00065206C656E3A25640A0000004A31393384
:1024E0003920656E717565756520446174613A25A2
:1024F000640A00002DE9F047254E264F002465218F
:1025000004FB01F006EB8005A978B1BB07EBC4081A
:10251000D8F8041089B357F8341071B3CA786A70C8
:102520008A7806F82020487807220002E862888826
:102530002885401E90FBF2F0401C85F82A004FF0E1
:10254000010985F8329005F135004FF4AF72891D0D
:10255000FDF734FE85F8029057F834004FF4B2715D
:10256000FDF745FE57F83400D8F80410884205D12D
:10257000002047F83400C8F8040003E0D0F86401F4
:1025800047F83400641C14F0FF04B8D0BDE8F087AD
:1025900034410020D406002070B586B00C4638BB0C
:1025A00034B3A188082918D821788DF800106178F3
:1025B0008DF80110A1788DF80210E1788DF80310E4
:1025C00021798DF80410D4F806100391D4F80A107C
:1025D0000491694603F0A8F917E0104B4FF4B27666
:1025E000596841B11A6832B1D1F8640190420ED1F4
:1025F000002006B070BD0A4D5D601D60D5F8641105
:1026000009B901F0E1FE284602E00120F1E7586037
:1026100032462146FDF7D2FDF7E70000D406002040
:10262000983800200F4810B50D490160082141601D
:1026300000214FF4A0228160C0E9031241610176BC
:10264000417601228276C27601774177FEF7E7F87C
:10265000002803D0BDE81040FDF7E2BE10BD000029
:1026600000640040B00800200D4808B5416941F001
:10267000010141614069002200F001000090052144
:102680000E20FEF72FFE0E20FEF71FFE0022052172
:102690000F20FEF727FEBDE808400F20FEF715BE0D
:1026A0000010024010B50F4A00210F4801F022FF30
:1026B0000E4C0C4A0021206024320D4801F01AFF14
:1026C000084A6060483200210A4801F013FFA06008
:1026D00004F110030022BDE8104007A1022001F020
:1026E00003B9000034700008A12800080000002091
:1026F00085030008C9020008757361727431000017
:10270000F0B585B00024204800940194029403940D
:10271000816941F020018161816901F0200104910A
:10272000816941F004018161816901F00401049132
:10273000816941F0080181618069144F00F008004F
:102740004FF21E460490002231463846FEF715FD32
:10275000E020CDE9000469460D480294FEF710FC24
:102760000125CDE90054694638460294FEF708FC7D
:102770000220CDE90240CDE9006569463846FEF702
:10278000FFFB05B0F0BD000000100240000C01404E
:1027900000080140094810B5074901600321416064
:1027A00040F6C4118160FEF7F3FC002803D0BDE8B9
:1027B0001040FDF735BE10BD00300040D8080020A5
:1027C00010B586B000241848009401940294039434
:1027D000049414490594016040F67F41C0E9011456
:1027E0000921C0E903148021C0E90541FFF762F81F
:1027F00008B1FDF715FE4FF48050009069460A4875
:10280000FFF7A4F808B1FDF70BFE049404A90648ED
:102810000594FFF71BF8002801D0FDF701FE06B074
:1028200010BD0000002C0140E40800200C4810B549
:102830000A4901604FF416514160002181600C2269
:10284000C160C0E904128161C161FFF731FB00285A
:1028500003D0BDE81040FDF7E3BD10BD00380140D6
:102860002C0900200C4810B50A4901604FF416519C
:102870004160002181600C22C160C0E904128161C5
:10288000C161FFF715FB002803D0BDE81040FDF73C
:10289000C7BD10BD0044004074090020FEE7FEE7FC
:1028A000012001F0D1FDFBE710B5FEF79FFC04F01D
:1028B000CFF9012803D0BDE8104003F043BE10BD9E
:1028C00030B58FB028216846FDF791FC14210AA885
:1028D000FDF78DFC0920012100904FF48030002489
:1028E00004910691CDE901040225CDE90750C0000D
:1028F00009906846FEF704FE08B172B6FEE70F20A5
:10290000CDE90A054FF48060CDE90C4001210AA809
:102910000E94FEF719FD002801D072B6FEE70FB045
:1029200030BD70470148FFF780B80000E408002080
:10293000F0B50268164B174C174D4FF08047984280
:1029400005D0B84203D0A04201D0A84203D122F062
:1029500070064A683243984205D0B84203D0A0427C
:1029600001D0A84203D122F44074CA6822434C69C2
:1029700022F08002224302608A68C2620A68826290
:10298000984201D10969016301214161F0BD000054
:10299000002C0140000400400008004010B584688D
:1029A00042EA032224F47F440A432243826010BD9A
:1029B000826822F070020A4342F00701816070478A
:1029C00010B5036A046A24F001040462846924F0E7
:1029D000F00444EA021423F00A020A43846102620A
:1029E00010BD10B5036A046A24F0100404628469FF
:1029F00023F0A00324F4704444EA023243EA0111B4
:102A00008261016210BD10B5406A0021C185C18498
:102A1000FFF716F910BD70B5446A2068406994F854
:102A20004110C0F3C0100025212904D118B1E5845C
:102A3000204600F08EF82068406994F84210C0F3F8
:102A40008010222904D118B1E585204600F05AF8FB
:102A5000606C40F0100060642046FFF7F1F870BD34
:102A600010B50146406A096809684FF000028906FE
:102A70002ED4C28501680C3151E8003F23F48073E5
:102A800041E80034002CF5D10168143151E8003FD1
:102A900023F0010341E80034002CF5D10168143122
:102AA00051E8003F23F0400341E80034002CF5D109
:102AB000202180F84210016B012909D101680C31F5
:102AC00051E8003F23F0100341E80034002CF5D119
:102AD0004263016B012902D0FFF752FB10BD818DCB
:102AE000FFF75AF810BD10B5406A01214163016B30
:102AF000012902D0FFF784FB10BD818D4908FFF743
:102B00004BF810BD01680C3151E8002F22F490728F
:102B100041E80023002BF5D10168143151E8002F62
:102B200022F0010241E80023002BF5D1016B0129BD
:102B300009D101680C3151E8002F22F0100241E860
:102B40000023002BF5D1202180F8421000210163E1
:102B5000704701680C3151E8002F22F0C00241E8B3
:102B60000023002BF5D1202180F84110704708B5D3
:102B700090F84210222901D0022008BD82684FF44B
:102B800080539A4201D1016921B1816A9A421BD0D6
:102B90004AB10AE00268816A5268C2F308020A80F8
:102BA000816A891C08E0026972B10268526802F009
:102BB0007F020A70816A491C8162C18D491E090425
:102BC000090CC18503D01BE002685268F1E7016877
:102BD000CA6822F02002CA600168CA6822F48072C2
:102BE000CA6001684A6922F001024A61202180F826
:102BF000421000214163026B012A03D0FFF7C0FAA3
:102C0000002008BD016301680C3151E8002F22F05B
:102C1000100241E80023002BF5D101680A68D206B2
:102C200002D50A6849680091818DFEF7B5FFE7E794
:102C300070B5044600680169E26821F4405111430F
:102C400001612169A0680843616908432168CA6875
:102C500041F20C639A430243CA6020684169A26949
:102C600021F44071114341611E492068884202D11C
:102C7000FEF710FC01E0FEF7FDFB00EBC00101EBED
:102C80000012606864218000B2FBF0F3B3FBF1F343
:102C90006FF018067343B2FBF0F5B2FBF0F605EBEC
:102CA0008305322303EB0515B5FBF1F5B6FBF1F611
:102CB00005F0F00505EB0615B2FBF0F6B2FBF0F0FF
:102CC000B0FBF1F06FF01802504306EB800003EB0D
:102CD0000010B0FBF1F0216800F00F00284488607C
:102CE00070BD00000038014038B58162044682851D
:102CF000002013466064222284F84220E56B1B4AC0
:102D0000AA62E56B1A4AEA62E56B1A4A2A63E26B29
:102D100050630A462168E06B091DFEF76DF82068D4
:102D2000016840680090206948B120680C3050E884
:102D3000001F41F4807140E80012002AF5D120689C
:102D4000143050E8001F41F0010140E80012002A51
:102D5000F5D12068143050E8001F41F0400140E8F0
:102D60000012002AF5D1002038BD0000612A0008B9
:102D7000E72A0008172A000881628285C28500219F
:102D80004164222180F84210016921B10168CA68BA
:102D900042F48072CA6001684A6942F001024A61E5
:102DA0000068C16841F02001C160002070472DE932
:102DB000F041984617460E460446069D27E0681CDB
:102DC00025D02DB1FEF7DEF9A0EB0800A8421ED9F0
:102DD00020680C3050E8001F21F4D07140E8001248
:102DE000002AF5D12068143050E8001F21F00101BD
:102DF00040E80012002AF5D1202084F8410084F830
:102E00004200002084F840000320BDE8F0812068E3
:102E1000006836EA000004D00020B842CFD000207D
:102E2000F3E70120F9E700000148FEF70BBF0000BF
:102E30002C0900200148FDF7F4BB0000B008002079
:102E4000FEE700000FB4054B10B503A9044A029831
:102E500000F040F810BC5DF814FB00007539000864
:102E6000AC0800200FB41CB50246002007AC0029B6
:102E70000BD0491ECDE90021054B6A462146069834
:102E800000F028F8009A002111701CBC5DF814FBBA
:102E9000173200080907090E002804DB00F1E020C2
:102EA00080F80014704700F00F0000F1E02080F877
:102EB000141D704702E008C8121F08C1002AFAD189
:102EC00070477047002001E001C1121F002AFBD1AA
:102ED000704700002DE9FF4F8BB08846054600265D
:102EE00006E025280BD0DDE90D1290476D1C761CFD
:102EF00028780028F5D10FB03046BDE8F08F0024C7
:102F0000A146A2460122AE4900E0044315F8013F64
:102F1000203B02FA03F00842F7D128782A2810D083
:102F20006FF02F022878A0F13001092915D809EB9C
:102F3000890102EB410144F0020400EB01096D1C20
:102F4000F0E758F8041B5FEA010903D544F4005484
:102F5000C9F1000944F002046D1C28782E2817D10D
:102F600015F8010F44F004042A280ED06FF02F0248
:102F70002878A0F1300109290AD80AEB8A0102EB6E
:102F8000410100EB010A6D1CF2E758F804AB6D1C1F
:102F900028786C280FD006DC4C2817D068280DD074
:102FA0006A2814D104E0742810D07A280FD10DE0DB
:102FB00044F400140AE044F4801401E044F44014A2
:102FC0006978814202D104F580146D1C6D1C28784B
:102FD000692865D006DC00288DD0632827D06428B6
:102FE00006D15DE06E2808D073282AD0752877D0E6
:102FF000DDE90D129047761CE0E0C4F30250022890
:1030000009D003280DD0D8F8001004280DD00E6088
:1030100008F10408D2E0D8F80010F217C1E9006204
:10302000F6E7D8F800100E80F2E70E70F0E718F817
:10303000041B8DF8001000208DF80100EB460120E4
:1030400003E058F804BB4FF0FF3061074FF0000772
:1030500001D40AE07F1C57450DDA8742FADB1BF8E2
:1030600007100029F6D106E07F1C8742FCDB1BF825
:1030700007100029F8D1DDE90D23A9EB07008146EF
:10308000214600F0B1F83044C61904E0DDE90D1224
:103090001BF8010B90477F1EF8D22146484688E076
:1030A00058F8040BC4F302514FF00A0B032900D166
:1030B00000B2042900D140B2002802DA40422D219A
:1030C00002E0210505D52B218DF82410012104E013
:1030D00006E0E10710D02021F6E708AF089113E0E1
:1030E00058F8040BC4F302514FF00A0B032900D126
:1030F00080B2042900D1C0B20021EEE75946FDF7A5
:103100008FF8303107F8011D0028F7D1ADEB07002B
:1031100000F1200B600702D524F4803401E04FF069
:10312000010ADA4502DDAAEB0B0000E0002082462E
:1031300000EB0B0108980144A9EB01000A90E003A1
:1031400006D4DDE90D2321460A9800F04DF8064427
:103150004FF0000908E009A911F80900DDE90D1296
:10316000904709F10109761C08998945F3DBE003D2
:103170000CD5DDE90D2321460A9800F035F8064408
:1031800004E0DDE90D1230209047761CBAF1000111
:10319000AAF1010AF5DC05E0DDE90D1217F8010BD3
:1031A0009047761CBBF10001ABF1010BF4DC0A98EF
:1031B0002146DDE90D2300F005F806446D1C97E675
:1031C000092801002DE9F041044600251E46174656
:1031D000880404D405E039462020B0476D1C641EE5
:1031E000F9D52846BDE8F0812DE9F04104460025D7
:1031F0001E469046C80301D5302700E020278804EA
:1032000004D505E041463846B0476D1C641EF9D52B
:103210002846BDE8F0814A68002A06D00A68531C97
:103220000B6010704868401E4860704710B10AB1CA
:10323000012070470020704770B5174D002405F538
:103240009C7600BF04EB440005EBC003002256F857
:103250002410104600F048FB641C0D2CF2DB0F4DCF
:103260000024A5F5BC7600BF04EB440005EBC003C9
:1032700056F824100022022000F036FB641C022CB9
:10328000F2DB064B00223033A3F5D6700168BDE8AF
:103290007040032000F028BBF006002060080020EA
:1032A00010B500F004F8BDE8104000F061B830B58A
:1032B000D9B04FF4B2716846FCF799FF002400259D
:1032C00069462046FFF712F8F8B19DF8011027294A
:1032D00021D0022924D0062927D009292AD0102953
:1032E0002DD0112930D0132933D015290DD016290E
:1032F0000BD0172909D0192930D01C2933D01E2909
:1033000007D16946284601F012FA641C14F0FF0444
:10331000D5D059B030BD6946284601F040FAF4E7EF
:103320006946284601F05AFAEFE76946284601F057
:1033300060F9EAE76946284601F0DAFAE5E7694606
:10334000284601F029F9E0E76946284601F0A4F98A
:10335000DBE76946284601F01FFBD6E769462846A9
:1033600001F068FBD1E76946284601F0DDFACCE7B9
:10337000F0B5B5B0D0236A460021012002F0B2FBBF
:1033800000256F4605EB4510002407EB400600BF03
:1033900004EB4400304490F84B00012815D005EBB5
:1033A0004500254900EBC50001EB001000EBC4000F
:1033B000002101604160641CE4B2162CE8D36D1C4E
:1033C000EDB2022DDED335B0F0BD082C23D00ADCDF
:1033D000ACB1022C17D0052C19D0062CEBD1284605
:1033E00001F090FCE7E70B2C19D0112C1BD0132C0B
:1033F0001DD0152CDFD1284601F0E0FBDBE7284685
:1034000001F046FCD7E7284601F0C7FCD3E7284681
:1034100001F015FECFE7284601F00CFDCBE728466A
:1034200001F083FBC7E7284601F08AFDC3E7284681
:1034300001F034FDBFE700007C440020D8B9D1B1D1
:10344000012080F3108815484368B3B10268A2B127
:103450009A4212680A60026812790A7102680ED1F3
:1034600052F8053FC1F805305268C1F80920002123
:10347000016041600DE00020704700200AE0D2F8B2
:103480000530C1F80530D2F80930C1F809301169AA
:1034900001600120002181F310887047BC060020E4
:1034A00070B50D4640B93DB1164A536833B1116845
:1034B00021B11869884215D1002070BD124C5460AA
:1034C0001460216909B900F021F828682060287982
:1034D0002071D5F80500C4F80500D5F80900C4F836
:1034E00009000DE050602968016051682879087171
:1034F0005068D5F8051040F8051FD5F8091041604F
:10350000012070BDBC0600200030002070B5050011
:1035100018D10E4CC8212046FCF769FE05EBC5000A
:1035200000EB0510002104EBC00001E009290AD0DE
:1035300001EB810200EB820202F11403491C1361CA
:103540000A29F3DB70BDC0F8C40070BD0030002054
:1035500010B586B004C9009211F8012B00248DF833
:103560000820019138B903226B4604A1104600F0EF
:10357000BBF900B1012406B0204610BD63616E3175
:10358000000000002DE9F0470D46044601EB45061A
:1035900000EB441006EB400988B0002709F14C010C
:1035A0000123B8468DF810708A4604AA184602F026
:1035B00099FA3348334B00EB860004EB44069DF840
:1035C000102006EBC40403EB04164FF6FF7106EB64
:1035D000C504012A03D036F8352072B32FE0A28843
:1035E00002B9012736F835305B1C9BB226F835301E
:1035F000B0F804C0634504D326F8358063885B1CAB
:103600006380521C92B2A28003899A4234D3A4F8F8
:103610000480E2884546521C92B2E280408988428A
:103620002AD0824228D301238DF8005051466A46A1
:10363000184602F097FAE5801EE0FFE70127521CCA
:1036400092B226F8352083889A4215D326F8358021
:103650006288521C92B26280C08888420CD082423A
:103660000AD301238DF8008009F14B016A46184600
:1036700002F078FAA6F8028008B03846BDE8F08774
:103680000C7100087C440020F0B58FB01446050092
:103690002CD05CB300266F6A062927D2DFE801F040
:1036A0000305260B2931114627E03846FCF72AFF8F
:1036B00085F8216028E00196206802900420CDE979
:1036C0000306207A0590526807AB01A93846FCF73B
:1036D000BBFEC8B10DA0FFF7B5FBE86A0B9008A9C7
:1036E000284600F023F83846FDF7AEF900200FB069
:1036F000F0BD3846FCF706FF2146284600F016F8D4
:1037000002E095F8210010700120F0E743414E20BF
:1037100073656E64206661696C7572652C696E698B
:103720007420616761696E210A00000070B5CD6880
:103730000446406A08230021A5F64805B5F5F03592
:103740000CD0A5F648054FF4A022B5F5F0350ED003
:1037500005F57765B5F5783F1AD11BE04FF44022A7
:103760004360C0E903124FF48012426103E04360FA
:10377000C0E903124161A26A02608160017641766C
:1037800001258576C57601774177FDF748F818B1B0
:10379000002070BD0423EAE784F82150012070BDA9
:1037A0002DE9F041204E0024A04606F10C05305DC5
:1037B00005EBC407401CC2B23255786870B355F8A7
:1037C000341059B3022A29D38142204612D1FFF77F
:1037D000BFFE18B355F834104046C1F80080C1F858
:1037E0000480C1F80880C1F80C8045F83480C7F81F
:1037F000048012E0FFF7ACFE80B155F8341040466B
:10380000C1F80080C1F80480C1F80880C1F80C80BC
:1038100055F83410096945F834103055641C14F01B
:10382000FF04C4D0BDE8F081B806002070B50D4695
:1038300040B93DB1164A536833B1116821B11869D6
:10384000884215D1002070BD124C5460146021696B
:1038500009B900F021F82868206028792071D5F88E
:103860000500C4F80500D5F80900C4F809000DE00A
:103870005060296801605168287908715068D5F84E
:10388000051040F8051FD5F809104160012070BDF2
:10389000C4060020C830002070B5050018D10E4CB9
:1038A000C8212046FCF7A3FC05EBC50000EB051082
:1038B000002104EBC00001E009290AD001EB8102DC
:1038C00000EB820202F11403491C13610A29F3DBA5
:1038D00070BDC0F8C40070BDC8300020002801D100
:1038E000FEF75ABE704700002DE9F0479846914612
:1038F000054609B3B8F1000F1ED01D4F0E46002437
:1039000004EB440007EB00100278AA4204D13146D0
:10391000401CFCF777FC18B1641C202CF0DB0BE09A
:1039200004EB440017EB001006D045B1012D18D070
:10393000022D0AD0032D0ED00020BDE8F0874246AC
:103940004946BDE8F04700F03DB842464946BDE86B
:10395000F04702F0D7B942464946BDE8F047FFF7C5
:1039600093BE42464946BDE8F047FFF75FBC000002
:10397000B000002030B5114C8DB0054621783229B9
:1039800003D20F484554491C21700A2D02D0C8B2F9
:10399000322810D3CAB28DF8002009490DF1010078
:1039A000FCF70CFC32208DF833006946002002F051
:1039B000B1FA002020700DB0284630BDB0060020BE
:1039C0004C2B002070B51546040019D0C5B1002657
:1039D000062915D2DFE801F02F34030E252B218DA7
:1039E000606AFDF7BDFB012801D02E702EE001209A
:1039F00028702BE0107828B1012807D002280BD0BE
:103A0000002070BD218D0022606A02E0218D01221C
:103A1000606AFDF7B2FB19E0218D606AFDF7A5FB36
:103A200014E0218D606AFDF71FFA294604E094F83E
:103A3000210010700AE01146204600F009F805E068
:103A4000218D606AFDF710FA84F82160012070BDB5
:103A50007FB504460020019002900390208D0090D5
:103A600088780D46012640B1012802D0022821D1D4
:103A700001E0019601E011200190E978022039B1BE
:103A8000012902D0022915D101E0029600E002903E
:103A9000297921B1012904D002290BD10DE003902D
:103AA00000E003966946606AFDF76AFA287830B14B
:103AB000012808D0002004B070BD0320EFE7218D5D
:103AC0000022606A02E0218D0122606AFDF755FB49
:103AD00084F821600120EEE730B5214D8BB0002441
:103AE00005EBC400406850B155F8341039B1D0F836
:103AF0006401884203D11BA0FFF7A4F92AE006A9BC
:103B00002046FFF79BFC28B306980699800E8DF897
:103B100000000698090AC0F307408DF801008DF8EF
:103B2000021006998DF80310DDF81D100391DDF8E1
:103B300021100491F0280DD2E82804D369462046CC
:103B400000F01EF806E008208DF8040069462046C3
:103B500000F048F8641C14F0FF04C1D00BB030BD75
:103B6000CC0600204A3139333920646520647569F8
:103B7000206C6965206D616E206C65210A00000073
:103B80004A78EB2A05D0EC2A01D000F02BB800F0DF
:103B900045B800F063B9000010B504001FD110480B
:103BA0004FF4E161FCF723FBC4EB44100C4AC0EB7B
:103BB0000420002102EBC00004E0042902D1C0F877
:103BC00004070521C1EB011202EB420200EBC20225
:103BD00002F5B473491CC2F864310A29EDDB10BD4B
:103BE0009031002000B5D9B00A788DF800204A78CD
:103BF0008DF801208A788DF80220CA788DF803208C
:103C00000A79ADF80420CA68CDF806200969CDF814
:103C10000A106946FEF78EFB59B000BD2DE9F05F32
:103C20008D4B0646652491F80C8006FB04F791F84D
:103C300002C0CA78A3F54A7EA3F5CA704FF0000A05
:103C40004FF004094FF4CA7B00EB87040EEB8705A5
:103C5000B8F1130F75D008DC4FF0020BB8F1100F5C
:103C60001AD0B8F1110F06D14CE0B8F1200F47D0AF
:103C7000B8F1FF0F7DD083F800C0C8785870487C39
:103C80000004D8628A7C40EA0220D862C97C0843DA
:103C9000D86283F8339023E0487B8C7B91F81280C4
:103CA00040EA0424487C91F80F90000440EA082080
:103CB000C97C95F8028008430121B8F1000F06D0B5
:103CC00083F800C05A70D86283F8331008E0B4F566
:103CD000AF7F0DD983F800C05A70D86283F833B033
:103CE0003046BDE8F05F06225B4B002101F038BE94
:103CF0000EF827C06A70A9702C8585F82A90E862B2
:103D0000BDE8F09F4D7C91F80DC08B7B91F812803F
:103D10002D04C97C45EA08250D43A1788A4602296D
:103D200010D1E16AA9420DD110F827108A4209D1B9
:103D300094F83210994205D184F831C084F8029089
:103D4000DEE73EE0D4F82C80A84523D110F82710F8
:103D50008A421FD194F8321099421BD0BCF1000F57
:103D600018D094F83400032807D90620A070052045
:103D700000E03EE084F83300C2E7591A14F8302F0F
:103D8000401C11442170A37084F801C004F82E9CDB
:103D90002071B5E7A845B3D110F827008242AFD112
:103DA000FF2BADD1BCF1000FAAD1BAF1050FA7D0FE
:103DB00084F802B094F822000028A1D10123052242
:103DC00043E04B7C8D7C1B04C97C43EA05230B43F9
:103DD000A178052994D1E16A994291D110F8270080
:103DE00082428DD120465946FCF701FA84F802A0A0
:103DF00086E74B7C91F812C01B0443EA0C2391F830
:103E000013C043EA0C03D5F82CC09C450AD195F8A1
:103E100001C0944506D128465946FCF7E8F985F8D3
:103E200002A06DE7E56A9D428AD110F82700904212
:103E300086D1A0780228D5D194F832000128D1D1BA
:103E4000487B0128CED101231A463046BDE8F05FF9
:103E5000012100F033B90000C84200202DE9F041F3
:103E60000746652007FB00F643480D4600EB860435
:103E70000022A3780421E6B0042B04D1637895F8DE
:103E800003C0634510D03D48AB780370EB784370B6
:103E9000C26280F83310034666B03846BDE8F04190
:103EA0000622002101F05CBD2B7B94F832C06345F3
:103EB00011D094F83400032807D00121A173401CCD
:103EC00084F8340066B0BDE8F0810620A0700520BB
:103ED00084F83300F6E784F834208046A17000238C
:103EE00003221946384600F0E9F801230222002196
:103EF000384600F0E3F8002094F83220238D521E5B
:103F0000C2EBC20202449A4204DA2B1822445B7BC1
:103F100082F83530401C0728EEDB94F82B00401E59
:103F200010F0FF0084F82B0094F83020A2F1010279
:103F300084F830201BD194F8322094F82A309A4229
:103F400015D018F826108DF8001061788DF8011042
:103F5000E16A8DF82B00FF200B918DF832006B4643
:103F600002220021384601F0FBFC0220A07014F868
:103F7000320F401C2070A5E7A03F0020C84200205F
:103F80002DE9F0430023DFF82C814FF4FA7940F259
:103F9000EE2540F2E24440F21A460122002165205B
:103FA000584308EB800000BF01EB410700EB4707D7
:103FB00097F804C0BCF1010F2BD1B7F806C0062951
:103FC0000CF1010CA7F806C023D2DFE801F00308CA
:103FD0000D12171DC788C82F1BD3027219E08789DD
:103FE0004F4516D3827314E0478AAF4211D302754E
:103FF0000FE0078BA7420CD382760AE0C78BA7425B
:1040000007D380F8202004E0878CB74201D380F8E2
:104010002620491CC9B20629C6D35B1C13F0FF0336
:10402000BCD0DFF89480002300216520584308EBC2
:10403000800000BF01EB410700EB470797F804C081
:10404000BCF1010F2BD1B7F806C006290CF1010C09
:10405000A7F806C023D2DFE801F003080D12171DF0
:10406000C788C82F1BD3027219E087894F4516D322
:10407000827314E0478AAF4211D302750FE0078BB9
:10408000A7420CD382760AE0C78BA74207D380F8F9
:10409000202004E0878CB74201D380F82620491CF9
:1040A000C9B20629C6D35B1C13F0FF03BCD0BDE820
:1040B000F0830000A03F00203441002030B50024F0
:1040C000652502EB4202684351B1012907D1054938
:1040D00001EB800000EB42000371C480047230BD2C
:1040E0000149F5E734410020A03F00202DE9F04FC1
:1040F0000025DFF8D0A2D9B006264FF00308AB4662
:104100000AF5CA79652005FB00F70AEB8704A17858
:1041100007293CD2DFE801F0AA0415AA3C7DB500CE
:10412000207928B90022012311462846FFF7C6FF4F
:10413000012084F8320094F82A0084F8300002202C
:1041400024E0207A012815D000231A461946284673
:10415000FFF7B4FF94F830000C2800D90C2084F845
:104160002B00234602220021284601F0F9FBA07D06
:1041700028B10AE0A67084F83380002343E00123CD
:10418000032200212846FFF799FF0420A0706DE06C
:10419000A07E012805D0207D012802D0A07A30B170
:1041A0000BE0A670002384F8338003222CE0012367
:1041B0001A4600212846FFF781FF207C28B90123F9
:1041C000022200212846FFF779FFA07B01280BD1AE
:1041D000234602220021284601F0C2FB01231A4691
:1041E00000212846FFF76AFF94F8320094F82A105D
:1041F00088423BD90520A070002301221946284699
:10420000FFF75CFF0123002200212846FFF756FF3D
:104210002CE0217A0129ADD0234605220021284631
:1042200001F09EFB07208DF80000A08D04F1350100
:10423000000A8DF801001AF827008DF80200607856
:104240008DF80300208DADF804004FF4AF720DF12E
:104250000600FBF7B3FF69462846FEF76BF82046D9
:104260004FF4CA71FBF7C3FF84F802B009EB87046F
:10427000A07807282BD2DFE800F09D0B199D3F772F
:104280009000234606220021284601F069FBE6E75C
:10429000012223461146284601F062FB0123042235
:1042A00019462846FFF70AFF02204AE094F820004A
:1042B00001280DD094F82600012809D000231A46C1
:1042C00001212846FFF7FAFEA07B01280BD071E000
:1042D000652005FB00F109EB81000023867084F85E
:1042E0003380042239E0012223461146284601F09A
:1042F00037FB01231A464BE0002304220121284604
:10430000FFF7DCFE0023052201212846FFF7D6FE39
:10431000207918B1207A012815D005E00123002268
:1043200019462846FFF7CAFE2346042201212846E3
:1043300001F016FB94F8320094F82A10884239D91B
:104340000520A07036E0652005FB00F109EB810037
:104350000023867084F833801A4659B02846BDE899
:10436000F04F0121FFF7AABE00231A46012128467B
:10437000FFF7A4FE207F20B194F82000012802D08E
:1043800018E0012303E0A67084F8338000230422A0
:1043900001212846FFF792FE0CE023460622012168
:1043A000284601F0DDFA20464FF4CA71FBF71FFFE3
:1043B00084F802B06D1C15F0FF053FF4A3AE59B0B0
:1043C000BDE8F08FA03F002010B504001FD11048B9
:1043D0004FF4E161FBF70BFFC4EB44100C4AC0EB58
:1043E0000420002102EBC00004E0042902D1C0F83F
:1043F00004070521C1EB011202EB420200EBC202ED
:1044000002F5B473491CC2F864310A29EDDB10BD12
:1044100098380020FCF7F2FEFEF752FAFEF770F92A
:10442000FEF700F9FEF720F9FEF700FAFEF7C8F9EB
:10443000FEF718FAFEF7AEF900F020F8FEF732F9B1
:1044400000F038F8FEE7000010B5EFF3058149B938
:10445000EFF3108131B908490968022905D1EFF35A
:10446000118111B16FF0050403E0002408B101F0DF
:10447000E7FE204610BD000088000020EFF3058015
:1044800058B9EFF3108040B909490868022801D0F3
:1044900030B109E0EFF3118030B16FF005007047E3
:1044A00001200860002070474FF0FF307047000087
:1044B0008800002010B5EFF3058060B9EFF310809D
:1044C00048B90B490868022802D0012806D00BE041
:1044D000EFF3118040B16FF0050010BD02200860BD
:1044E00001F05EFF002010BD4FF0FF3010BD000056
:1044F00088000020F0B585B04FEA01034FF00004BA
:10450000EFF305810394A1BBEFF3108189BB21492F
:104510000968022902D1EFF3118151BB48B380260B
:1045200018218DF8104004AD42B3176807B13D461D
:1045300097691FB139467F1E382F02D21779FF07BE
:1045400002D0002005B0F0BD576907B1BE08D2F80F
:1045500008C0BCF1000F0DD0D4685C2C18D31269D0
:104560003AB137B18DE806103246294602F045FBD4
:1045700003900DE0D7685FB912694AB903AACDE983
:104580000012B2B2294602F00BFB012800D00394BE
:104590000398D7E7880000203EB5044601208DF837
:1045A00008000020009001908879CA79062340EA2B
:1045B0000220ADF80000087AADF802004A7A40EA1D
:1045C0000220ADF80200887A8DF80400672004FB11
:1045D00000F16A4602204B3101F0C4FA04EB4410AA
:1045E000652101EB4001012302AA184601F0BAFA45
:1045F0003EBD10B586B0044601208DF810000020A5
:1046000000900190029003908879ADF80000CA797B
:104610000E2340EA0220ADF80000087AADF802004F
:104620004A7A40EA0220ADF80200887AADF8040028
:10463000CA7A40EA0220ADF80400087BADF8060013
:104640004A7B40EA0220ADF80600887B8DF808001E
:10465000C87BADF80A000A7C40EA0220ADF80A00E7
:10466000487CADF80C00897C6A4640EA0120ADF830
:104670000C00672004FB00F102203D3101F072FACA
:1046800004EB4410562101EB4001012304AA184613
:1046900001F068FA06B010BD1FB5044601208DF880
:1046A0000C0000200090019002908879ADF8000085
:1046B000CA790C2340EA0220ADF80000087AADF870
:1046C00002004A7A40EA0220ADF80200887AADF88A
:1046D0000400CA7A02F00F0240EA0220ADF804009A
:1046E000C87A00098DF80600087BADF808004A7BFF
:1046F00040EA0220ADF80800887BADF80A00C97BCB
:104700006A4640EA0120ADF80A00672004FB00F188
:104710000220503101F026FA04EB4410682101EB2D
:104720004001012303AA184601F01CFA1FBD1CB565
:10473000044601208DF804008879C20701D00C20BE
:1047400017E0420701D50D2013E0C20601D50E2067
:104750000FE0400601D50F200BE0C879C10701D05A
:10476000102006E0410701D5112002E0C00602D565
:1047700012208DF80000672004FB00F101236A4637
:104780000220683101F0EEF904EB4410862101EBC0
:104790004001012301AA184601F0E4F91CBD1CB533
:1047A000044601208DF800008879C979022340EA87
:1047B0000120ADF80400672004FB00F101AA1846AF
:1047C0000A3101F0CFF904EB44104D2101EB400117
:1047D00001236A46184601F0C5F91CBD30B58FB0FB
:1047E000054601200C468DF8340034216846FBF75D
:1047F000FEFC207A8DF80000E0798DF80100A079A8
:104800008DF80200607A08B1082800D9FF208DF8E1
:104810000300A07AADF80400E17A112240EA0120F9
:10482000ADF80400207BADF80600617B40EA012072
:10483000ADF80600A07B00060290E17B40EA014053
:104840000290217C40EA01200290617C08430290A2
:10485000A07C0390E17C40EA01200390217D40EAA6
:1048600001400390617D40EA01600390A07D8DF8D6
:104870001000E07D8DF81100207E8DF81200607E22
:104880000590A17E40EA01200590E17E40EA0140CA
:104890000590207F8DF8180004F11E010DF119001C
:1048A000FBF78CFC54F82F0F0B90E078ADF830003C
:1048B0002179342340EA0120ADF8300060798DF889
:1048C0003200A0798DF83300672005FB00F16A46BD
:1048D00002200C3101F046F905EB4510532101EBA4
:1048E000400101230DAA184601F03CF90FB030BD7C
:1048F0001CB5044601208DF8000088798DF804006D
:10490000672004FB00F1012301AA02204A3101F0D3
:1049100029F904EB44105F2101EB400101236A46B1
:10492000184601F01FF91CBD3EB5044601208DF864
:1049300008000020009001908879082300EB800097
:104940004000ADF80000C879ADF802000A7A40EAEC
:104950000220ADF80200487AADF804008A7A40EAF5
:104960000220ADF80400C87A8DF80600087B8DF8A7
:104970000700672004FB00F16A460220693101F05C
:10498000F1F804EB4410802101EB4001012302AA5D
:10499000184601F0E7F83EBD1FB5044601208DF82A
:1049A0000C00002000900190029088798DF80000A2
:1049B000C8798DF80100087A8DF80200487A8DF8E0
:1049C0000300887A8DF80400C87A0C2300F00300F5
:1049D0008DF80500C87A6A46C0F381008DF806009C
:1049E000C87AC0F301108DF80700C87A80098DF8E5
:1049F0000800087B00F003008DF80900087BC0F375
:104A000081008DF80A00087BC0F301108DF80B00BF
:104A1000672004FB00F102205B3101F0A3F804EBF6
:104A200044106E2101EB4001012303AA184601F056
:104A300099F81FBDFEB5012205468DF8082088793A
:104A40004FF002065FEAC07C4FF003034FF004070B
:104A50004FF0000402D08DF8042012E05FEA407CA1
:104A600002D58DF804600CE05FEAC06C02D58DF8C9
:104A7000043006E0400602D58DF8047001E08DF8A0
:104A80000440087A5FEAC07C02D08DF8002030E054
:104A9000420702D58DF800602BE0C20602D58DF8E2
:104AA000003026E0400602D58DF8007021E0C8797C
:104AB000C20701D0052017E0420701D5062013E008
:104AC000C20601D507200FE0400601D508200BE003
:104AD000487AC10701D0092006E0410701D50A2024
:104AE00002E0C00603D50B208DF8000001E08DF830
:104AF0000040672005FB00F404F16701012301AACF
:104B0000022001F02FF804F1680101236A46022017
:104B100001F028F805EB45106E2101EB400101235F
:104B200002AA184601F01EF8FEBD10B5DCB004461E
:104B30004FF4B2716846FBF75AFB002059905A9027
:104B40000B212046FEF71EFD002835D004EB041093
:104B50001B2101EB4001082359AA012000F0C2FFEC
:104B600006208DF8000012208DF801000820ADF815
:104B70000400F4208DF802005620BDF864118DF871
:104B800003008DF80610080ABDF866118DF80700BD
:104B90008DF80810080A8DF80900BDF868118DF825
:104BA0000A10080A8DF80B009DF86A018DF80C00B8
:104BB00069462046FEF792FE5CB010BD10B5DAB033
:104BC00004464FF4B2716846FBF711FB15212046ED
:104BD000FEF7D8FC002859D004EB0410232101EB88
:104BE0004001012359AA184600F07CFF02208DF8ED
:104BF00000001F208DF801000420ADF80400F4200F
:104C00008DF8020056209DF864118DF8030069B3F9
:104C10000C2937D30C39082934D2DFE801F0040B12
:104C200010171C21282D9DF8060040F001008DF87A
:104C3000060027E09DF8070040F0010003E09DF822
:104C4000070040F004008DF807001BE09DF8080005
:104C500040F0010008E09DF8080040F0040003E087
:104C60009DF8080040F010008DF808000AE09DF85B
:104C7000090040F0010003E09DF8090040F0040045
:104C80008DF8090069462046FEF728FE5AB010BD8F
:104C900030B5DBB004464FF4B2716846FBF7A7FAB3
:104CA0000020062559908DF8005026208DF801002F
:104CB000F4208DF8020056208DF803000320ADF893
:104CC000040000212046FEF75DFC002818D004EB0C
:104CD000041005EB4001032359AA012000F002FF54
:104CE0009DF866018DF806009DF865018DF80700B6
:104CF0009DF864018DF8080069462046FEF7EEFD38
:104D00005BB030BD10B5DCB004464FF4B2716846FC
:104D1000FBF76DFA002059905A9006212046FEF7C5
:104D200031FC002837D004EB0410122101EB4001C4
:104D3000082359AA012000F0D5FE06208DF80000B6
:104D40000820ADF804008DF80100F4208DF8020071
:104D50005620BDF864118DF803008DF80610080A7E
:104D6000BDF866118DF807008DF80810080A8DF857
:104D70000900BDF868118DF80A10080A8DF80B00BB
:104D8000BDF86A018DF80C00000A8DF80D00694627
:104D90002046FEF7A3FD5CB010BD10B5DCB00446A4
:104DA0004FF4B2716846FBF722FA002059905A90EE
:104DB0005B9002212046FEF7E5FB002838D004EB8B
:104DC0000410092101EB40010C2359AA012000F035
:104DD00089FE06208DF8000001208DF801000820D2
:104DE000ADF80400F4208DF8020056208DF8030081
:104DF0009DF864018DF806005A988DF80700000AA6
:104E00008DF808005A986946000C8DF809005A98E8
:104E1000000E8DF80A005B988DF80B00000A8DF8E3
:104E20000C005B98000C8DF80D002046FEF756FD37
:104E30005CB010BD10B5DAB004464FF4B2716846EC
:104E4000FBF7D5F900208DF8640108212046FEF714
:104E500099FB002820D004EB04101A2101EB40013B
:104E6000012359AA184600F03DFE04208DF80000E9
:104E70000A208DF801000120ADF80400F4208DF81F
:104E8000020056208DF803009DF864018DF806009D
:104E900069462046FEF722FD5AB010BD30B5DBB0A2
:104EA00004464FF4B2716846FBF7A1F900205A900E
:104EB000599013212046FEF765FB00283ED004EBF5
:104EC0000415242000EB450104235AAA012000F018
:104ED00009FE0A2000EB4501042359AA012000F035
:104EE00001FE06208DF800001D208DF8010008202D
:104EF000ADF80400F4208DF8020056208DF8030070
:104F0000BDF868118DF80610080A8DF80700BDF885
:104F10006A018DF80800000A8DF8090059998DF88A
:104F20000A10080A8DF80B00080C8DF80C00080E0A
:104F30008DF80D0069462046FEF7D0FC5BB030BD11
:104F400010B5DAB004464FF4B2716846FBF74FF97A
:104F500011212046FEF716FB00286ED004EB04104A
:104F6000222101EB4001022359AA012000F0BAFDE1
:104F700001218DF800101A208DF801000420ADF8F1
:104F80000400F4208DF8020056208DF803009DF8EF
:104F900064014000801E81408DF806109DF8651167
:104FA00001B30B2945D80C2943D2DFE801F04206B2
:104FB0000B10151C21262B32373C9DF8070040F0C2
:104FC00001000DE09DF8070040F0040008E09DF8A6
:104FD000070040F0100003E09DF8070040F040009B
:104FE0008DF8070025E09DF8080040F001000DE075
:104FF0009DF8080040F0040008E09DF8080040F02B
:10500000100003E09DF8080040F040008DF8080013
:105010000FE09DF8090040F0010008E09DF809004C
:1050200040F0040003E09DF8090040F010008DF806
:10503000090069462046FEF751FC5AB010BD10B574
:10504000DCB004464FF4B2716846FBF7D0F800209C
:1050500059905A9005212046FEF794FA002834D042
:105060001421062359AA002000F03CFD06208DF8EB
:1050700000000720ADF804008DF80100F4209DF831
:1050800064118DF80200562001F5FA618DF80300D5
:105090008DF80610080A8DF807009DF865018DF857
:1050A00008009DF866018DF809009DF867018DF8EC
:1050B0000A009DF868018DF80B009DF869018DF8D4
:1050C0000C0069462046FEF709FC5CB010BD0000EC
:1050D0002DE9F041134C0F46054666692068001D16
:1050E00000F07EFF681C07D137B12168BDE8F041B0
:1050F0000D48091D00F0C4BF20683544B542456025
:10510000216805D2A068BDE8F041091D00F0A0BFEC
:105110006068091D00F09CFF206B854200D225636A
:10512000BDE8F08138000020340F00202DE9F04167
:10513000054600F0B1FF2D4C2069401C206120681D
:105140002B4F10B1E06930B32BE0256020690128B6
:1051500027D1002606EB860007EB800000F06AFFEF
:10516000761C382EF6D3234800F064FF2148143013
:1051700000F060FF1F48283000F05CFF1D483C3005
:1051800000F058FF1B48503000F054FF1948606091
:105190001430A06005E02068E96AC06A884200D83F
:1051A0002560E06A401CE0626864E86AA1698842A0
:1051B00000D9A06100EB800007EB8000291D00F002
:1051C0005FFF00F089FFE06900280CD02068E96AE1
:1051D000C06A884207D208494FF080500860BFF388
:1051E0004F8FBFF36F8FBDE8F081000038000020C3
:1051F000840A0020E40E002004ED00E038B500F041
:105200004BFF104CA068C8B90F4800F013FF0E48C0
:10521000143000F00FFF0C482060143060600A4B1F
:1052200000202833009003F1500210210A2001F0E1
:105230009FF9A06010B105A100F0CCFFBDE8384097
:1052400000F04ABF74000020480F0020546D7251D6
:105250000000000030B4026C0B46002A0BD0C1687D
:105260001144C1604468A14201D30168C16030BCEF
:105270001846FAF7A3BF30BC70472DE9F041856BA3
:10528000174604460026026C82B1C7B1E068FAF7FF
:1052900095FFE168206C091AE1602268914202D210
:1052A0006168081AE060022F16D017E02068A8B9DC
:1052B000606801F045FD0646002060600EE0A068D1
:1052C000FAF77CFF216CA0680844A06061688842FE
:1052D00004D32068A06001E005B16D1E6D1CA563BC
:1052E0003046BDE8F08110B5044690F8590058B139
:1052F00001280CD002280FD0502080F31188BFF372
:105300004F8FBFF36F8FFEE7206B00F0F9FE204652
:10531000BDE8104000F0F4BE10BD000010484FF48E
:10532000A051420706D0C01D0D4920F00700411AC8
:10533000C1F5A0510B4A00230144C2E9000308391A
:10534000103A21F0070111604B600B600B1AC0E9A5
:10535000001393604FF000405360D060704700002E
:10536000181700209C000020144E154CA6F29C47F4
:105370004FF08058DFF84C9012E000BF00F08CFE38
:10538000F068C568281D00F02BFE2069401E2061D2
:10539000E068401EE06000F09FFE2846FFF7A3FF94
:1053A000E0680028EAD138680128F9D9C9F80080F6
:1053B000BFF34F8FBFF36F8FF2E70000200F002085
:1053C0003800002004ED00E070B51D46049C51B18A
:1053D000C4F80020C4E90F010121204601F0FCF8C7
:1053E00084F84C5070BD2460F4E72DE9F0470E4678
:1053F000DDE909841746824691009946089DA52259
:10540000206BFAF7EDFE6FF00301206B01EB8701D3
:10541000084420F00707780707D0502080F3118850
:10542000BFF34F8FBFF36F8FFEE72218315C82F816
:105430003410315C11B1401C1028F6D3002684F8DA
:105440004360382D00D33725E562C4E91356201D8B
:1054500000F0FBFD04F1180000F0F7FD2461C5F138
:1054600038006462A061666584F858604A46514617
:10547000384600F047FA2060B8F1000F01D0C8F8B4
:105480000040BDE8F087000030B5114900E011464A
:105490000A688242FBD34B685C18844203D140689F
:1054A00018444860084643681C18944209D1084CC7
:1054B000103C2468A24209D052681A4442600A682B
:1054C00012680260814200D0086030BD0460F9E7D4
:1054D0009C00002070B5002441600B4D006191429A
:1054E00006D8D11A8269914206D2011D686807E088
:1054F0009A4203D2994201D3012403E0011D286896
:1055000000F0A6FD204670BD7400002010B50446D2
:1055100000F0C2FDA06B28B15FF0000400F0DCFDDC
:10552000204610BD0124F9E730B589B0304D55E073
:105530000498002806DADDE90601059A90470498E8
:1055400000284BDB069C606910B1201D00F048FD6F
:1055500002A800F0B9F8024604980A283ED2DFE813
:1055600000F00505053D263705053D260598A1698E
:10557000034601442046FFF7ADFF00B3616A2046B1
:105580008847E069012829D1002000900598A16989
:10559000002342181946204601F018FD78B9502022
:1055A00080F31188BFF34F8FBFF36F8FFEE705982D
:1055B000A06128B1811813462046FFF78BFF0DE04C
:1055C000502080F31188BFF34F8FBFF36F8FFEE73A
:1055D00094F82C0010B9204600F092FD002204A996
:1055E000A86801F04BF90028A2D109B030BD000035
:1055F000740000202DE9FC410F46054600F014FF21
:1056000001A800F061F80446019818B101F04CFCC3
:10561000BDE8FC81224EAFB170680068A8B30027D6
:10562000291B3A46B06800F0E9FD01F03DFC002876
:10563000EED11C494FF080500860BFF34F8FBFF38D
:105640006F8FE5E7A542EBD801F02EFC30682746C6
:10565000C068C468201D00F0C3FCE069012810D1B7
:10566000A0692B4641193A462046FFF733FF40B167
:1056700000200346014600902A46204601F0A6FC81
:1056800020B1616A20468847C2E707E0502080F3D6
:105690001188BFF34F8FBFF36F8FFEE70127BFE77E
:1056A0007400002004ED00E006484168096829B153
:1056B0004168C968C9684968016370474FF0FF31A4
:1056C000FAE700003800002070B5054601F0CEFA78
:1056D000064E04463069844203D200F009F80120E6
:1056E00000E0002028602046346170BD7400002076
:1056F000F8B5194D1FE0C068C4680668201D00F0A9
:105700006FFC616A20468847E069012813D1A069CF
:105710003044B04206D924616060211D286800F041
:1057200097FC08E0002003460146009032462046E0
:1057300001F04CFC38B1286801680029DBD16968A8
:10574000C5E90010F8BD502080F31188BFF34F8FDA
:10575000BFF36F8FFEE70000740000200848406828
:10576000401C4FF0500080F3118804D0BFF34F8FDE
:10577000BFF36F8FFEE7BFF34F8FBFF36F8FFEE76F
:10578000A4000020074C2068016841B1C0680021D6
:10579000D0F80000FFF72EFFFFF7C6FEF3E7012168
:1057A0000020F7E7740000202DE9F041044600F0E6
:1057B00073FC94F9455004F1240609E0606A48B18D
:1057C000304601F039FB08B100F068FD6D1E6DB286
:1057D000002DF3DC4FF0FF3684F8456000F07CFCD0
:1057E00000F05AFC94F9445004F1100709E02069D4
:1057F00048B1384601F020FB08B100F04FFD6D1EA6
:105800006DB2002DF3DC84F84460BDE8F04100F097
:1058100063BC00002DE9F0410546002700F004FEBE
:10582000314E306808B9FFF779FDF06805424BD179
:10583000C5B3083568070ED005F00700C0F10800B1
:105840000544680707D0502080F31188BFF34F8FBD
:10585000BFF36F8FFEE72DB37068854234D82248BE
:10586000103001460C6801E020460C466168A942F0
:1058700002D221680029F7D131688C4224D0076810
:105880002168016060680837411B10290FD9601931
:10589000420708D0502080F31188BFF34F8FBFF329
:1058A0006F8FFEE710E041606560FFF7EDFD616816
:1058B0007068401A7060B268904200D2B060F068C0
:1058C00001430020C4E9000101F0EEFA780707D097
:1058D000502080F31188BFF34F8FBFF36F8FFEE727
:1058E0003846BDE8F08100008C00002004490868BB
:1058F00018B10868026D521C026508687047000004
:105900003800002010B5031F4FF080741C601B1F6F
:1059100021F001011960191F024B0B601439403846
:105920000A6010BD5D5700081FB50A789206009204
:105930004B7842EA034200928B7842EA03220092BB
:10594000CB781A4300920A798DF80420CA68CDF802
:1059500005200969CDF809106946FDF767FF1FBDED
:1059600070B586B0054607208DF8000008201C465B
:105970008DF8040011B101290BD104E060788DF895
:105980000200207803E020788DF8020060788DF81E
:105990000300EC20FF21072A5AD2DFE802F0590465
:1059A000085F1A6B87008DF80100102065E08DF804
:1059B000010011208DF80C0094F82B008DF80D00DB
:1059C00094F832008DF80E007AE000BF8DF81300D5
:1059D0003EE06520424A684302EB80008079C007C0
:1059E0003AD1EB208DF8010094F832008DF80C00CC
:1059F00000226B4694F83200268D401EC0EBC0009A
:105A00001044B04205DA20449E1890F835007073B7
:105A100001E098184173521C072AEBDB0123002296
:105A200019462846FEF74AFB94F83200401C84F8D9
:105A3000320094F83000401E84F8300094F83100B1
:105A4000401E10F0FF0084F8310001D10220A07048
:105A500069462846FFF768FF06B070BD8DF8010063
:105A600020208DF80C0034F8280F000A8DF80D0066
:105A700020780AE08DF8010013208DF80C0014F84E
:105A8000280F8DF80D002088000A8DF80E00A078F0
:105A90008DF80F008DF810106068000C8DF8110063
:105AA000A088000A8DF8120020798FE78DF8010098
:105AB0008DF80C1094F833008DF80D008DF80E1051
:105AC0008DF80F108DF8101054F82C0F000C8DF875
:105AD00011002088000A8DF81200207876E7000077
