:020000040800F2
:10000000803100209D010008472200080B200008D5
:1000100045220008CD020008352800080000000035
:1000200000000000000000000000000005010008C2
:1000300013030008000000004901000851220008D5
:10004000B7010008B7010008B7010008B7010008B0
:10005000B7010008B7010008B7010008B7010008A0
:10006000B7010008B7010008B7010008B701000890
:10007000B7010008B7010008D1020008DD0200083E
:10008000B7010008B7010008B7010008B701000870
:1000900029280008B7010008B7010008B7010008C7
:1000A000B7010008CD220008B7010008B701000819
:1000B000B7010008B7010008B7010008B701000840
:1000C000B7010008B7010008B7010008B701000830
:1000D000B70100081D280008B7010008B701000893
:1000E000B7010008B7010008B7010008DFF810D019
:1000F00000F098F800480047A52A0008AFF30080F8
:1001000080310020224B19680868B0E8F00F80F3B6
:100110000988BFF36F8F4FF0000080F311884EF015
:100120000D0E70470000000006480068006880F36C
:10013000088862B661B6BFF34F8FBFF36F8F00DFE1
:1001400000BF00BF08ED00E0EFF30980BFF36F8F41
:100150000F4B1A6820E9F00F106008B54FF05000FF
:1001600080F31188BFF34F8FBFF36F8F03F0ECFC68
:100170004FF0000080F31188BDE808401968086856
:10018000B0E8F00F80F30988BFF36F8F704700BFAE
:1001900030000020EFF305807047000006488047DC
:1001A00006480047FEE7FEE7FEE7FEE7FEE7FEE75C
:1001B000FEE7FEE7FEE7FEE7CB220008ED000008C1
:1001C00040EA01039B0703D009E008C9121F08C0D9
:1001D000042AFAD203E011F8013B00F8013B521E59
:1001E000F9D27047D2B201E000F8012B491EFBD2D0
:1001F00070470022F6E710B513460A460446194632
:10020000FFF7F0FF204610BD10B5002200E0521CA1
:10021000835C8C5CA34201D1002BF8D1D8B2E1B24F
:10022000401A10BD064C074D06E0E06840F001039F
:1002300094E8070098471034AC42F6D3FFF75AFF12
:10024000E04500080046000870B58C1810F8015B06
:1002500015F0070301D110F8013B2A1106D110F85F
:10026000012B03E010F8016B01F8016B5B1EF9D163
:100270002B0705D40023521E0DD401F8013BFAE7E9
:1002800010F8013BCB1A921C03E013F8015B01F854
:10029000015B521EF9D5A142D8D3002070BD0000E9
:1002A00086B04FF4FA740225204602F013FC8DF854
:1002B00000506B46032203A1002002F033FB03F041
:1002C0001BFAF1E772756E5F6C656400FEE7000073
:1002D000014800F049BB000004080020014800F07C
:1002E00043BB0000C007002030B590F84050012407
:1002F000AC40C56B6C60046863604368102B036896
:1003000003D099600068C26030BD9A600068C16027
:1003100030BD704772B6FEE790F82020012A07D062
:10032000022A05D0416A41F48021416201207047D0
:10033000006842690A43426100207047704770B507
:1003400090F82040012C05D0022C03D0416A41F4E2
:10035000802128E0046809B32469A40720D04FF461
:10036000D874056804EB01142D5915F00405956047
:1003700005682D591AD0ED08556005682C5904F010
:100380000204D4604FF4DA74056804EB01142E59AA
:1003900006F00F06082E0CD308250DE0E468DCE714
:1003A000416A41F400114162012070BD6D0D15607C
:1003B000E3E72D5905F00F05156105682D59C5F3C3
:1003C0000725956105682C59240C54614FF4DC72A3
:1003D000046802EB0112A4581C700468A458240A93
:1003E0005C700468A458240C9C700468A258120E17
:1003F000DA704FF4DE72046802EB0112A4581C712B
:100400000468A458240A5C710468A458240C9C71E4
:100410000468A258120EDA71006829B1016941F02E
:1004200020010161002070BDC16841F02001C16060
:10043000F8E72DE9F05F0546006800244669D0F82A
:1004400004908768D0F80CB0D0F810A0D0F81880CD
:10045000F10748D0F90714D001218160B80703D50E
:10046000284600F0DDF90CE0780702D54FF400646F
:1004700007E0380702D54FF4805402E0284600F028
:10048000CEF9F80516D529684FF480708860B80554
:1004900003D5284600F0C6F90CE0780502D544F4EF
:1004A000005407E0380502D544F4804402E02846B1
:1004B00000F0B7F9F80316D529684FF4803088604A
:1004C000B80303D5284600F0AFF90CE0780302D555
:1004D00044F4004407E0380302D544F4803402E0D9
:1004E000284600F0A0F9300707D55FEACB6004D5B5
:1004F0002968102044F40074C86070074FF00807A2
:1005000007D55FEA0B7004D52868C760284600F05D
:1005100059F9B00706D52868C068800702D0284678
:1005200000F052F9700607D55FEACA6004D5296861
:10053000102044F480640861B00607D55FEA0A70B1
:1005400004D528680761284600F066F9F00606D54C
:1005500028680069800702D0284600F05EF9B003E1
:1005600008D55FEAC96005D529681020486028468B
:1005700000F054F9F00307D55FEA097004D5286844
:100580004760284600F051F9300446D55FEA4970CB
:1005900040D5F00504D55FEAC87001D044F00104ED
:1005A000B00504D55FEA887001D544F002047005F7
:1005B00004D55FEA487001D544F00404300529D51C
:1005C00018F0700F26D008F07000402815D006DC17
:1005D000102809D020280AD0302816D10AE0502847
:1005E0000ED0602811D10EE044F008040DE044F074
:1005F00010040AE044F0200407E044F0400404E062
:1006000044F0800401E044F480742868816921F09A
:1006100070018161296804204860002C05D0686A57
:10062000204368622846FFF789FEBDE8F09F70B559
:10063000040003D094F8200010B104E0012070BD44
:10064000204600F081F82068016841F00101016056
:1006500000F028FC0546052604E000F023FC401BC2
:100660000A2811D820684068C007F6D020680168C1
:1006700021F00201016000F015FC05460BE000F0DE
:1006800011FC401B0A2806D9606A40F40030606201
:1006900084F82060D2E7206840688007EFD4207E8D
:1006A0000128206801683DD021F080010160607E52
:1006B00001282068016838D021F040010160A07E47
:1006C00001282068016833D021F020010160E07E1C
:1006D0000128206801682ED041F010010160207FC0
:1006E00001282068016829D021F008010160607F9D
:1006F00001282068016824D021F004010160D4E9B8
:1007000002010843D4E90412114308436168491EF9
:1007100008432168C86100206062012084F820003D
:10072000002070BD41F08001C0E741F04001C5E705
:1007300041F02001CAE721F01001CFE741F00801A4
:10074000D4E741F00401D9E710B586B0002100914B
:100750000191029103910068174988422AD11748F4
:10076000C16941F00071C161C16901F0007104917A
:10077000816941F0040181618069114C00F004003D
:1007800004904FF4006000906946204600F088FA1B
:10079000A014009002200190032003906946204697
:1007A00000F07EFA00220521142000F0FDFB142049
:1007B00000F0EDFB06B010BD0064004000100240E8
:1007C000000801407047000010B5124900688EB063
:1007D000096888421CD10BAB04AA00210D48FFF721
:1007E000AEFD002814D10598009008988DF80400FB
:1007F000002069460BAA0C18135C401C6371082882
:10080000F9DB002002F036F802210248FFF784FDF0
:100810000EB010BDC006002070477047704770478B
:1008200070477047704770477047704710B590F831
:1008300021100022022905D00421816380F82020A4
:10084000012010BD01680B6823F00E030B600168E6
:100850000B6823F001030B6090F84030C46B01215A
:1008600001FA03F3636080F8211080F8202010461D
:1008700010BD000010B590F821100024022903D00B
:100880000421816301243DE001680A6822F00E0220
:100890000A6001680A6822F001020A601A4A0168C7
:1008A000914201D1012121E0174A1432914201D134
:1008B00010211BE0144A2832914201D1891515E01C
:1008C000114A3C32914201D189140FE00E4A503254
:1008D000914202D14FF4803108E00B4A64329142D8
:1008E00002D14FF4801101E04FF08071064A083ABE
:1008F0005160012180F82110002180F82010416B07
:1009000001B18847204610BD0800024010B528B349
:1009100001680A6822F001020A6002680021116081
:1009200002685160026891600268D1600C4B0268F5
:1009300001241A441423B2FBF3F29300094AC0E9DC
:100940000F239C4054608162C162016341638163F3
:1009500080F8211080F82010002010BD012010BD6B
:10096000F8FFFDBF000002402DE9F05FC16B0C688D
:1009700001680B68D0F840C0042202FA0CF2494D1D
:10098000DFF824A1494E4A4FDFF828B1DFF828E10B
:1009900022422CD05A072AD50A68920603D40A6844
:1009A00022F004020A600168A94201D1042219E080
:1009B000514501D1402215E0B14202D14FF480628D
:1009C00010E0B94202D14FF480420BE0594502D108
:1009D0004FF4802206E0714502D14FF4800201E01D
:1009E0004FF080622F4908394A60C16A3BE04FF0FE
:1009F000020808FA0CF818EA040F4FF000094FF04B
:100A0000010235D05FEA837832D50B689B0605D4A6
:100A10000B6823F00A030B6080F821200168A942CB
:100A200001D1022219E0514501D1202215E0B14245
:100A300002D14FF4007210E0B94202D14FF40052DB
:100A40000BE0594502D14FF4003206E0714502D166
:100A50004FF4001201E04FF00072124908394A6069
:100A600080F82090816A00291AD0BDE8F05F08471D
:100A7000082505FA0CF5254212D01B0710D50B6886
:100A800023F00E030B6090F84010C36B02FA01F1E3
:100A90005960826380F8212080F82090016BE2E7A2
:100AA000BDE8F09F080002401C00024030000240F8
:100AB00044000240580002406C00024030B528B3A8
:100AC00008C8134914221944B1FBF2F18900C1632B
:100AD00010498163022141771A6843F6F0718A4315
:100AE000D0E900142143D0E902452C432143046995
:100AF0002143446921438469214311431960002142
:100B00004163012242770177084630BD012030BDA4
:100B1000F8FFFDBF0000024070B5044690F82000C9
:100B2000002501280CD0012084F8200094F82160D1
:100B30000020012E06D084F820000225284670BD32
:100B4000022070BD022684F82160A0632068066838
:100B500026F0010606602046FFF7C6FBE06A002883
:100B60002068016802D041F00E0106E021F0040186
:100B700001602068016841F00A0101602068016895
:100B800041F001010160D9E72DE9F04300233E4F18
:100B90000F2573E001229A400A406DD023F0030430
:100BA000E619D6F808809C074FEA147C05FA0CF980
:100BB00009EA0804DFF8D480404502D14FF000086C
:100BC00016E0DFF8CC80404502D14FF001080FE07D
:100BD000DFF8C080404502D14FF0020808E0DFF89E
:100BE000B880404502D14FF0030801E04FF00408FF
:100BF00008FA0CF8A04522D1284CD4F800C02CEA01
:100C0000020CC4F800C0241DD4F800C02CEA020C69
:100C1000C4F800C0214C0C34D4F800C02CEA020CFB
:100C2000C4F800C0241FD4F800C02CEA020CC4F899
:100C300000C0D6F808C02CEA090CC6F808C0FF2A84
:100C400001D8064601E000F104064FEA830401D909
:100C5000A4F12004D6F800C005FA04F82CEA080C28
:100C60004FF0040808FA04F84CEA080CC6F800C073
:100C7000C46824EA0204C46003F1010331FA03F2F8
:100C800088D1BDE8F0830000000001400008014069
:100C9000000C01400010014000140140000401401C
:100CA0002DE9F84FDFF8B8910024A9F1040B234691
:100CB0000F2709F1040AABF1040EC9E00125A54094
:100CC0002A40AA427DD1674ED1F804C0ACEB060899
:100CD000B44532D014DCBCF1030F3AD009DCBCF1CE
:100CE000000F2AD0BCF1010F1CD0BCF1020F31D192
:100CF0001DE0BCF1110F17D0BCF1120F2AD119E081
:100D0000B8F5881F19D006DCB8F5803F15D0B8F5C6
:100D1000801F1FD111E0B8F5001F0ED0B8F5041FD9
:100D200018D10AE0CB6815E0CB681B1D12E0CB6838
:100D300008330FE0CB680C330CE08B682BB1012B30
:100D40004FF0080303D0456104E0042302E005618D
:100D500000E00023FF2A01D8064601E000F1040666
:100D60004FEA840501D9A5F12005D6F8008007FADD
:100D700005FC28EA0C0803FA05F548EA0508C6F858
:100D800000804D68ED0062D5374DAE6946F0010632
:100D9000AE61AD6924F0030605F001050095334D01
:100DA00006EB050CDCF80850A607360F07FA06F824
:100DB00025EA0805DFF8B880404503D14FF0000868
:100DC00017E044E0DFF8AC80404502D14FF0010865
:100DD0000FE0DFF8A480404502D14FF0020808E0A0
:100DE000DFF89880404502D14FF0030801E04FF052
:100DF000040808FA06F848EA0508CCF808804D68A7
:100E0000D9F80060ED024D4601D5164300E0964347
:100E10002E604D68DAF80060AD02554601D51643E4
:100E200000E096432E604D68DBF80060AD035D4640
:100E300001D5164300E096432E604D68DEF8006051
:100E4000ED03754601D5164300E096432E60641C01
:100E50000D682A46E5407FF431AFBDE8F88F000009
:100E60000804014000001110001002400000014081
:100E700000080140000C0140001001400014014036
:100E80008068084000D001207047C26821EA020350
:100E90000A4043EA0241016170470AB101617047AB
:100EA0000904FBE70148806870470000200000202B
:100EB0000248816802781144816070472000002058
:100EC000074810B5016841F010010160032000F0EF
:100ED0008BF80F2000F006F800F024F8002010BD79
:100EE0000020024070B50D4D04464FF47A71287809
:100EF000B1FBF0F00A490968B1FBF0F000F0F2FA3A
:100F000048B9102C07D200222146501E00F04CF8A0
:100F100000206C6070BD012070BD0000200000202A
:100F20002C0000200F4808B5816941F00101816162
:100F3000816901F001010091C16941F08051C161F5
:100F4000C069002200F0805000900F21901E00F038
:100F50002BF80548416821F0E06141F000714160E3
:100F600008BD0000001002400000014000280DDB19
:100F700000F01F02012191404009800000F1E020B3
:100F8000C0F88011BFF34F8FBFF36F8F70470028F9
:100F900009DB00F01F02012191404009800000F1AF
:100FA000E020C0F800117047F0B40E4B1B680C46EF
:100FB000C3F30223C3F10705042D00D90425191D2D
:100FC000072901D2002300E0DB1E012606FA05F105
:100FD000491E214099409E40761E16403143F0BC88
:100FE00001F029BC0CED00E0064900F0070208689A
:100FF0004FF6FF03184040EA0220034A10430860FE
:10100000704700000CED00E00000FA052DE9F04704
:101010000F46050061D0434E306800F00700B8422B
:1010200009D2306820F0070038433060306800F0A3
:101030000700B84251D128683B4C810712D54007C0
:1010400003D5606840F4E06060602878000703D54D
:10105000606840F4605060606068A96820F0F0004B
:10106000084360602878C00728D06868012810D03D
:101070002168022810D0890700292EDA616821F042
:10108000030101436160FFF70DFF804641F288399B
:101090000DE021688903EFE78901EDE7FFF702FF23
:1010A000A0EB0801494502D90320BDE8F08760683C
:1010B000696800F00C00B0EB810FEFD1306800F0F0
:1010C0000700B8420BD9306820F007003843306081
:1010D000306800F00700B84201D00120E5E7287829
:1010E000400705D56068E96820F4E0600843606067
:1010F0002878000706D56068296920F4605040EA26
:10110000C100606000F038F86168084AC1F303115B
:10111000515CC8400649086006480068FFF7E2FED7
:101120000020C2E70020024000100240AE45000847
:101130002C0000202400002004480549006849686C
:10114000044AC1F30221515CC84070472C000020C2
:1011500000100240BE45000804480549006849687F
:10116000044AC1F3C221515CC84070472C000020E2
:1011700000100240BE4500080E4A51680E4801F0BA
:101180000C03042B11D0082B0FD10C48C1F383435F
:10119000C903C05C0AD55168084AC1F34041921E98
:1011A000515C054A5043B0FBF1F070470449484395
:1011B000704700000010024000127A009E450008AF
:1011C00000093D002DE9F84F040070D02078C04D93
:1011D000C00749D06868C0F38100012807D068685B
:1011E000C0F38100022809D16868C00306D52868C9
:1011F000800339D560680028E7D035E06068B0F535
:10120000803F0BD010B1B0F5A02F11D0286820F48A
:1012100080302860286820F4802002E0286840F4AC
:1012200080302860606890B1FFF73CFE06460AE017
:10123000286840F480202860F0E700BFFFF732FE06
:10124000801B642873D828688003F7D50CE0FFF76B
:1012500029FE064605E000BFFFF724FE801B642838
:10126000F0D828688003F7D420789A4E80074FF092
:1012700001094FF0000839D5686810F00C0F07D04D
:101280006868C0F38100022809D16868C00306D4E9
:101290002868800714D52069012808D110E020694A
:1012A000B0B1C6F80090FFF7FDFD074605E00AE182
:1012B000FFF7F8FDC01B0228C4D828688007F7D5BF
:1012C0002868616920F0F80040EAC10028600DE05C
:1012D000C6F80080FFF7E6FD074604E0FFF7E2FDF1
:1012E000C01B022823D828688007F7D4207800077D
:1012F0002CD57948A169D9B1C0F80090FFF7D2FD8B
:10130000074604E0FFF7CEFDC01B02280FD8686A2D
:101310008007F7D571484FF4FA510068B0FBF1F03F
:10132000009000BF0098411E0091FAD20EE080E0CC
:10133000C0F80080FFF7B6FD074604E0FFF7B2FDF6
:10134000C01B022875D8686A8007F7D42078400748
:1013500060D5E8690027C00008D4E86940F08050F3
:10136000E861E869012700F0805000905C4801685E
:10137000C90513D40168834641F480710160FFF709
:1013800091FD824606E000BFFFF78CFDA0EB0A004E
:1013900064284ED8DBF80000C005F5D5E0680128C8
:1013A0000AD008B1052813D0286A20F0010028626D
:1013B000286A20F0040002E0286A40F00100286258
:1013C000E06841F2883B98B1FFF76CFD82460BE084
:1013D000286A40F004002862EEE700BFFFF762FDD4
:1013E000A0EB0A0159455AD8286A8007F6D50CE0C7
:1013F000FFF758FD824605E0FFF754FDA0EB0A0118
:1014000059454CD8286A8007F6D41FB1E86920F006
:101410008050E861E06988B36968C1F381010229FD
:1014200044D00228C6F8608004D0FFF73BFD044694
:1014300038E034E0FFF736FD074604E0FFF732FD01
:10144000C01B02282BD828688001F7D4206AB0F589
:10145000803F05D16868A16820F4003008436860C7
:10146000D4E908010843696821F4741108436860ED
:10147000C6F86090FFF716FD044606E025E000BFC1
:10148000FFF710FD001B022809D828688001F7D556
:101490001BE000BFFFF706FD001B022802D9032056
:1014A000BDE8F88F28688001F4D40EE00128F7D059
:1014B0006868226A00F48031914204D1616A00F4C4
:1014C0007010884201D00120EAE70020E8E7000020
:1014D0000010024000004242800442422C000020E2
:1014E0000070004010B5401EB0F1807F01D3012094
:1014F00010BD4FF0E02460610F21601701F09BF9EF
:101500000020A06107202061002010BD70477047B7
:1015100070B590F83C20012A26D0012480F83C4088
:10152000022280F83D2003685A689D6822F0700608
:101530000A6832435A600D4B02689A4208D0B2F1F1
:10154000804F05D00A4B9A4202D00A4B9A4204D1EE
:10155000496825F080031943916080F83D400021DF
:1015600080F83C10084670BD022070BD002C014080
:10157000000400400008004010B5040003D094F8B7
:101580003D0010B107E0012010BD002084F83C00B0
:10159000204600F01FF8022084F83D00211D20683D
:1015A00000F09AFE012084F8460084F83E0084F89A
:1015B0003F0084F8400084F8410084F8420084F839
:1015C000430084F8440084F8450084F83D0000207E
:1015D00010BD000008B500680B49884212D10B48C5
:1015E000816941F4006181618069002200F400603A
:1015F000009005211920FFF7D7FCBDE8084019200D
:10160000FFF7C5BC08BD0000002C014000100240DF
:1016100070B5044690F83C000025012817D001263B
:1016200084F83C60022084F83D002068826822F043
:10163000770222F47F4282600868502838D00DDC9F
:1016400020284FD005DC90B3102811D14AE00220A9
:1016500070BD302846D040280AD13BE060282FD00A
:1016600070280DD0B0F5805F03D0B0F5005F12D0C8
:10167000012584F83D60002084F83C00284670BDB8
:10168000CB68D1E90121206800F05CFE2068816808
:1016900041F0770109E0CB68D1E90121206800F031
:1016A00051FE2068816841F480418160E1E719E0E2
:1016B000CA684968206800F057FE5021206806E09B
:1016C000CA684968206800F060FE6021206800F068
:1016D00043FECEE7CA684968206800F045FE402115
:1016E0002068F4E7226801461046F0E7704770B5BD
:1016F0000446006801694FF00005C943890715D405
:10170000C168C943890711D4E91E0161012020770E
:10171000206880698007204602D0FFF7E7FF04E0D9
:1017200000F098F8204600F096F8257720680169C7
:10173000C943490717D4C168C943490713D46FF097
:1017400004010161022020772068806910F4407F45
:10175000204602D0FFF7CAFF04E000F07BF82046E5
:1017600000F079F8257720680169C943090716D484
:10177000C168C943090712D46FF008010161042050
:1017800020772068C0698007204602D0FFF7AEFFAF
:1017900004E000F05FF8204600F05DF8257720684F
:1017A0000169C943C90617D4C168C943C90613D41E
:1017B0006FF010010161082020772068C06910F4E3
:1017C000407F204602D0FFF791FF04E000F042F88E
:1017D000204600F040F8257720680169C943C90711
:1017E00008D1C168C943C90704D1891E01612046D7
:1017F00000F032F820680169C943090609D4C168BC
:10180000C943090605D46FF0800101612046FFF746
:101810007DFE20680169C943490609D4C168C943EE
:10182000490605D46FF040010161204600F015F82B
:1018300020680169C94389060BD4C168C943890678
:1018400007D46FF0200101612046BDE87040FFF72A
:101850005EBE70BD7047704770477047704710B5E7
:1018600004460068406994F84110C0F3C010212973
:1018700011D180B12068143050E8001F21F08001A0
:1018800040E80012002AF5D1A06B08B1FEF7CEFFA8
:10189000204600F058FE2068406994F84210C0F3DA
:1018A0008010222911D180B12068143050E8001F27
:1018B00021F0400140E80012002AF5D1E06B08B1A8
:1018C000FEF7B4FF204600F017FE002010BD10B553
:1018D000040015D0242084F841002068C16821F458
:1018E0000051C160204600F077F90020606484F860
:1018F000410084F8420044F8300F6060207410BD4D
:10190000012010BD70470000F8B501680446086862
:10191000CA684B6910F00F0F4FF0000559D003F063
:10192000010602F49077374365D0C10705D0D10591
:1019300003D5616C41F001016164410705D5D90708
:1019400003D0616C41F002016164810705D5D907BC
:1019500003D0616C41F004016164010707D502F016
:101960002001314303D0616C41F008016164616C76
:1019700000293AD0800604D5900602D5204600F012
:10198000F0FD20684069616CC0F38010090700D445
:1019900060B3204600F0B0FD20684069400621D5C4
:1019A0002068143050E8001F21F0400140E8001288
:1019B000002AF5D1E06BA8B16D494163E06BFEF7F9
:1019C00059FF002811D0E06B416B01B0BDE8F04039
:1019D000084783060FD593060DD52046BDE8F8408D
:1019E00000F0BFBD2046FFF78DFFF8BD2046FFF792
:1019F00089FF6564F8BD266B2023012E7CD1C606C5
:101A00007AD5D60678D508684868009048694FF0BE
:101A10000206400640D5E16B086840680004000CEF
:101A2000E8D0A28D8242E5D9E085886920282DD0B2
:101A300020680C3050E8001F21F4807140E800124B
:101A4000002AF5D12068143050E8001F21F0010170
:101A500040E80012002AF5D12068143050E8001F39
:101A600021F0400140E80012002AF5D184F842300C
:101A7000256320680C3050E8001F21F0100140E879
:101A80000012002AF5D1E06BFEF7D0FE6663A08D50
:101A9000E18D401A81B22AE0A08DE18D401A81B219
:101AA000E08D0028A6D00029A4D022680C3252E88C
:101AB000000F20F4907042E80007002FF5D1206855
:101AC000143050E8002F22F0010240E80027002FD8
:101AD000F5D184F84230256320680C3050E8002F9F
:101AE00022F0100240E80023002BF5D16663204667
:101AF000FFF7B4FEF8BDFFE705062BD5150629D57F
:101B000094F841002128F5D1A068B0F5805F01D19B
:101B10002069B0B1206A411C2162216800784860C8
:101B2000E08C401E0004000CE084E3D12068C16812
:101B300021F08001C1602068C16841F04001C160AE
:101B4000D8E7206A0088C0F308004860206A801C3B
:101B50002062E5E74006CDD55006CBD5CA682046C1
:101B600022F04002CA6084F8413000F04CFAC1E72C
:101B7000AF23000870B5040004D094F8410000259C
:101B800010B106E0012070BD84F84050204600F0FE
:101B900055F8242084F841002068C16821F40051E0
:101BA000C160204600F03EFD2068016921F49041AB
:101BB00001612068416921F02A0141612068C16802
:101BC00041F40051C1606564202084F8410084F82C
:101BD00042006563002070BD10B50446134B0168D8
:101BE0001348144A994213D1816921F480418161DB
:101BF0004FF4C0611046FEF7C7FFE06BFEF786FEAC
:101C0000A06BFEF783FEBDE810402520FFF7AEB9BC
:101C1000094B994209D1C16921F40031C161BDE884
:101C200010400C211046FEF7AFBF10BD0038014038
:101C3000001002400008014000440040F0B585B0AB
:101C40000024009401940294039406463E4F0368D6
:101C50003E49022003223E4DBB4251D18B6943F4E1
:101C600080438B618B6903F4804304938B6943F059
:101C700004038B618969039201F00401049101025C
:101C8000CDE9001069462846FFF70AF82815CDE986
:101C90000004694628460294FFF702F82E4D2D48AD
:101CA0008027C5E90004C5E902472C616C61AC617D
:101CB0002846EC61FEF702FF08B1FEF72BFBF56347
:101CC0006E62254D23484435143801C5102091C556
:101CD000214845F8104944306C61AC61EC61FEF775
:101CE000EDFE08B1FEF716FBB563002205212520A5
:101CF0006E62FFF759F92520FFF749F905B0F0BDED
:101D0000164EB342FAD1CB6943F40033CB61CB69B1
:101D100003F4003304938B6943F004038B618969F6
:101D2000039201F0040104910421CDE900106946F9
:101D30002846FEF7B5FF0820CDE90004694628468D
:101D40000294FEF7ADFFD9E70038014000100240D1
:101D50000008014058000240C00700200044004035
:101D60002DE9F843044690F84200994616460D4680
:101D7000202802D00220BDE8F883ADB1A6B1002032
:101D80006064222184F842102063FFF78BF8A68557
:101D90008046E685A0684FF48057B84201D120699B
:101DA00020B12E46002526E00120E4E7002622E0AF
:101DB0004346002220212046CDF8009000F0F1FC9F
:101DC00008B10320D7E726B1A068B8421BD038B1CC
:101DD00008E020684068C0F3080025F8020B07E01F
:101DE000206980B12068406800F07F0006F8010B90
:101DF000E08D401EE085E08D0028D9D1202084F8B8
:101E000042000020B7E720684068EFE790F84230D2
:101E1000202B01D00220704721B11AB100230363A7
:101E200000F05CBC0120704790F84230202B01D0BC
:101E30000220704721B11AB10023036300F096BC61
:101E4000012070470EB51A4988422FD109686FF0FA
:101E5000100008601648FFF702FD16480068406849
:101E6000C0F13200C0B2411E312913D88DF80000F4
:101E7000114802E0521E8DF800209DF80020115CF0
:101E80000029F7D00D490198FEF79AF9694600201C
:101E900001F0E8FA32210948FEF7ABF903B032222B
:101EA000064903485DF804EBFFF7B0BF0EBD000024
:101EB00030070020C00700201B2900201C2900201B
:101EC00070472DE9F843044690F841001F46164636
:101ED0000D46202802D00220BDE8F8837DB176B1FE
:101EE00000206064212084F84100FEF7DBFFA68417
:101EF0008046E684A068B0F5805F02D003E0012050
:101F0000EAE7206910B12E4600250EE000260CE01D
:101F10008021204600F045FCA0B9AEB116F8010BB7
:101F200021684860E08C401EE084E08C43464FF01E
:101F3000000200970028EBD14FF04001204600F04E
:101F400030FC30B10320C7E735F8020BC0F30800BE
:101F5000E6E7202084F841000020BDE770B5044684
:101F600090F84100202801D0022070BD49B342B34F
:101F70002162A284E28400206064212384F841303D
:101F8000A56B114BAB62A56B104BEB62A56B104BB5
:101F90002B63A36B5863256813462A1DA06BFEF7BD
:101FA000BBFD21686FF0400008602068143050E8E5
:101FB000001F41F0800140E80012002AF5D1002006
:101FC00070BD012070BD0000AD240008EF240008A2
:101FD000BF23000890F84130202B01D00220704729
:101FE00079B172B101628284C284002141642121ED
:101FF00080F841100068C16841F08001C160002094
:1020000070470120704770477047FEE70F4810B5D2
:102010000D4901600821416000214FF4A022816038
:10202000C0E9031241610176417601228276C276CF
:1020300001774177FEF7FBFA002803D0BDE8104096
:10204000FEF768B910BD000000640040C006002023
:102050000D4808B5416941F0010141614069002224
:1020600000F00100009005210E20FEF79DFF0E20DC
:10207000FEF78DFF002205210F20FEF795FFBDE83A
:1020800008400F20FEF783BF0010024010B50B4A36
:1020900000210B4800F074FD0A4C084A0021206022
:1020A0002432094800F06CFD606004F1080300224E
:1020B000BDE8104005A1022000F034BC54450008E2
:1020C0004922000800000020A10200087573617217
:1020D00074310000F0B585B00024204800940194CC
:1020E00002940394816941F020018161816901F0CA
:1020F00020010491816941F004018161816901F04D
:1021000004010491816941F0080181618069144FE3
:1021100000F008004FF21E46049000223146384677
:10212000FEF7BBFEE020CDE9000469460D480294AD
:10213000FEF7B6FD0125CDE9005469463846029404
:10214000FEF7AEFD0220CDE90240CDE9006569460B
:102150003846FEF7A5FD05B0F0BD000000100240B6
:10216000000C01400008014010B586B0002418485A
:10217000009401940294039404941449059401601A
:1021800040F67F41C0E901140921C0E90314802110
:10219000C0E90541FFF7F0F908B1FEF7BBF84FF4CD
:1021A0008050009069460A48FFF732FA08B1FEF7FE
:1021B000B1F8049404A906480594FFF7A9F900288A
:1021C00001D0FEF7A7F806B010BD0000002C0140BA
:1021D000E80600200C4810B50A4901604FF416517A
:1021E0004160002181600C22C160C0E9041281615C
:1021F000C161FFF7BFFC002803D0BDE81040FEF727
:1022000089B810BD00380140300700200C4810B5D7
:102210000A4901604FF416514160002181600C228F
:10222000C160C0E904128161C161FFF7A3FC00280D
:1022300003D0BDE81040FEF76DB810BD004400406B
:1022400078070020FEE7FEE7012000F043FCFBE7F3
:1022500010B5FEF72DFE01F0C7FF012803D0BDE841
:10226000104001F0F7BC10BD30B58FB02821684692
:10227000FDF7BFFF14210AA8FDF7BBFF09200121CC
:1022800000904FF48030002404910691CDE90104C0
:102290000225CDE90750C00009906846FEF792FF7D
:1022A00008B172B6FEE70F20CDE90A054FF4806051
:1022B000CDE90C4001210AA80E94FEF7A7FE0028E4
:1022C00001D072B6FEE70FB030BD70470148FFF78E
:1022D0000EBA0000E8060020F0B50268164B174C55
:1022E000174D4FF08047984205D0B84203D0A04226
:1022F00001D0A84203D122F070064A6832439842C6
:1023000005D0B84203D0A04201D0A84203D122F4A4
:102310004074CA6822434C6922F080022243026062
:102320008A68C2620A688262984201D109690163BF
:1023300001214161F0BD0000002C0140000400407B
:102340000008004010B5846842EA032224F47F4468
:102350000A432243826010BD826822F070020A4361
:1023600042F007018160704710B5036A046A24F0E7
:1023700001040462846924F0F00444EA021423F0A6
:102380000A020A438461026210BD10B5036A046A3E
:1023900024F010040462846923F0A00324F4704440
:1023A00044EA023243EA01118261016210BD10B5B4
:1023B000406A0021C185C184FFF7A4FA10BD70B541
:1023C000446A2068406994F84110C0F3C0100025A9
:1023D000212904D118B1E584204600F0B4F8206822
:1023E000406994F84210C0F38010222904D118B13A
:1023F000E585204600F080F8606C40F010006064D5
:102400002046FFF77FFA70BD10B50146406A0968A3
:1024100009684FF0000289062ED4C28501680C318C
:1024200051E8003F23F4807341E80034002CF5D1DB
:102430000168143151E8003F23F0010341E8003402
:10244000002CF5D10168143151E8003F23F040031E
:1024500041E80034002CF5D1202180F84210016BB6
:10246000012909D101680C3151E8003F23F0100324
:1024700041E80034002CF5D14263016B012902D000
:10248000FFF7E0FC10BD818DFFF7E8F910BD10B536
:10249000406A01214163016B012902D0FFF710FD61
:1024A00010BD818D4908FFF7D9F910BD10B501465F
:1024B000406A09680968890616D40021C184016848
:1024C000143151E8002F22F0800241E80023002B54
:1024D000F5D101680C3151E8002F42F0400241E88B
:1024E0000023002BF5D110BDFFF78DFD10BD10B5F9
:1024F000406AFFF789FD10BD01680C3151E8002FDB
:1025000022F4907241E80023002BF5D101681431C8
:1025100051E8002F22F0010241E80023002BF5D101
:10252000016B012909D101680C3151E8002F22F01B
:10253000100241E80023002BF5D1202180F8421041
:1025400000210163704701680C3151E8002F22F02F
:10255000C00241E80023002BF5D1202180F8411072
:10256000704708B590F84210222901D0022008BD1A
:1025700082684FF480539A4201D1016921B1816A86
:102580009A421BD04AB10AE00268816A5268C2F3DB
:1025900008020A80816A891C08E0026972B1026837
:1025A000526802F07F020A70816A491C8162C18D03
:1025B000491E0904090CC18503D01BE0026852685A
:1025C000F1E70168CA6822F02002CA600168CA689F
:1025D00022F48072CA6001684A6922F001024A61ED
:1025E000202180F8421000214163026B012A03D0B0
:1025F000FFF728FC002008BD016301680C3151E899
:10260000002F22F0100241E80023002BF5D10168D1
:102610000A68D20602D50A6849680091818DFFF7E1
:102620001DF9E7E770B5044600680169E26821F426
:102630004051114301612169A06808436169084361
:102640002168CA6841F20C639A430243CA60206859
:102650004169A26921F44071114341611E4920681A
:10266000884202D1FEF778FD01E0FEF765FD00EB40
:10267000C00101EB0012606864218000B2FBF0F33E
:10268000B3FBF1F36FF018067343B2FBF0F5B2FB46
:10269000F0F605EB8305322303EB0515B5FBF1F5E9
:1026A000B6FBF1F605F0F00505EB0615B2FBF0F60A
:1026B000B2FBF0F0B0FBF1F06FF01802504306EB04
:1026C000800003EB0010B0FBF1F0216800F00F0078
:1026D0002844886070BD00000038014038B5816230
:1026E00004468285002013466064222284F842203A
:1026F000E56B1B4AAA62E56B1A4AEA62E56B1A4A65
:102700002A63E26B50630A462168E06B091DFEF7FD
:1027100003FA2068016840680090206948B1206889
:102720000C3050E8001F41F4807140E80012002A8C
:10273000F5D12068143050E8001F41F0010140E855
:102740000012002AF5D12068143050E8001F41F033
:10275000400140E80012002AF5D1002038BD0000F9
:10276000092400088F240008BF23000881628285A5
:10277000C28500214164222180F84210016921B103
:102780000168CA6842F48072CA6001684A6942F00E
:1027900001024A610068C16841F02001C160002067
:1027A00070472DE9F041984617460E460446069DAF
:1027B00027E0681C25D02DB1FEF774FBA0EB0800C4
:1027C000A8421ED920680C3050E8001F21F4D071B7
:1027D00040E80012002AF5D12068143050E8001FAC
:1027E00021F0010140E80012002AF5D1202084F8F0
:1027F000410084F84200002084F840000320BDE836
:10280000F0812068006836EA000004D00020B84259
:10281000CFD00020F3E70120F9E700000148FFF7DF
:1028200073B80000300700200148FDF702BE000029
:10283000C0060020FEE70907090E002804DB00F1AE
:10284000E02080F80014704700F00F0000F1E02055
:1028500080F8141D704702E008C8121F08C1002A42
:10286000FAD170477047002001E001C1121F002A11
:10287000FBD1704770B50D4640B93DB1164A53685B
:1028800033B1116821B11869884215D1002070BD9B
:10289000124C54601460216909B900F021F82868CD
:1028A000206028792071D5F80500C4F80500D5F816
:1028B0000900C4F809000DE0506029680160516802
:1028C000287908715068D5F8051040F8051FD5F82B
:1028D00009104160012070BDB0060020F02B0020DF
:1028E00070B5050018D10E4CC8212046FDF781FCBB
:1028F00005EBC50000EB0510002104EBC00001E072
:1029000009290AD001EB810200EB820202F11403D3
:10291000491C13610A29F3DB70BDC0F8C40070BD07
:10292000F02B00202DE9F047984691460546E9B185
:10293000B8F1000F1AD0154F0E46002404EB4400E6
:1029400007EB00100278AA4204D13146401CFDF783
:102950005BFC18B1641C202CF0DB07E004EB4400A6
:1029600017EB001002D025B1022D08D00020BDE8E1
:10297000F08742464946BDE8F04700F009B84246B4
:102980004946BDE8F04700F0E7BD0000A800002080
:1029900070B51546040019D0C5B10026062915D218
:1029A000DFE801F02F34030E252B218D606AFEF73E
:1029B00067FA012801D02E702EE0012028702BE04C
:1029C000107828B1012807D002280BD0002070BD54
:1029D000218D0022606A02E0218D0122606AFEF7EB
:1029E0005CFA19E0218D606AFEF74FFA14E0218D40
:1029F000606AFEF7C9F8294604E094F821001070D7
:102A00000AE01146204600F009F805E0218D606AD1
:102A1000FEF7BAF884F82160012070BD7FB5044646
:102A20000020019002900390208D009088780D4640
:102A3000012640B1012802D0022821D101E00196EF
:102A400001E011200190E978022039B1012902D07A
:102A5000022915D101E0029600E00290297921B106
:102A6000012904D002290BD10DE0039000E0039668
:102A70006946606AFEF714F9287830B1012808D059
:102A8000002004B070BD0320EFE7218D0022606AB2
:102A900002E0218D0122606AFEF7FFF984F82160CF
:102AA0000120EEE7FEF70CFAFFF7DEFBFFF712FB63
:102AB000FFF7ACFAFFF7CCFAFFF78CFBFFF754FBFC
:102AC000FFF7A4FB00F020F8FFF7E0FA00F038F879
:102AD000FEE7000010B5EFF3058149B9EFF310816F
:102AE00031B908490968022905D1EFF3118111B103
:102AF0006FF0050403E0002408B100F071FF2046E8
:102B000010BD000080000020EFF3058058B9EFF3FE
:102B1000108040B909490868022801D030B109E0A5
:102B2000EFF3118030B16FF00500704701200860AD
:102B3000002070474FF0FF307047000080000020F9
:102B400010B5EFF3058060B9EFF3108048B90B4979
:102B50000868022802D0012806D00BE0EFF31180AC
:102B600040B16FF0050010BD0220086000F0A0FF2A
:102B7000002010BD4FF0FF3010BD0000800000208D
:102B8000F0B585B04FEA01034FF00004EFF3058183
:102B90000394A1BBEFF3108189BB21490968022985
:102BA00002D1EFF3118151BB48B3802618218DF873
:102BB000104004AD42B3176807B13D4697691FB195
:102BC00039467F1E382F02D21779FF0702D0002026
:102BD00005B0F0BD576907B1BE08D2F808C0BCF116
:102BE000000F0DD0D4685C2C18D312693AB137B1FC
:102BF0008DE806103246294601F0CBFA03900DE02D
:102C0000D7685FB912694AB903AACDE90012B2B216
:102C1000294601F091FA012800D003940398D7E7E0
:102C2000800000202DE9F041134C0F4605466669EF
:102C30002068001D00F0A4FD681C07D137B1216891
:102C4000BDE8F0410D48091D00F0EABD206835449B
:102C5000B5424560216805D2A068BDE8F041091D74
:102C600000F0C6BD6068091D00F0C2FD206B854202
:102C700000D22563BDE8F08130000020380D00202F
:102C80002DE9F041054600F0D7FD2D4C2069401C90
:102C9000206120682B4F10B1E06930B32BE0256034
:102CA0002069012827D1002606EB860007EB80006B
:102CB00000F090FD761C382EF6D3234800F08AFDF4
:102CC0002148143000F086FD1F48283000F082FDB6
:102CD0001D483C3000F07EFD1B48503000F07AFD6E
:102CE000194860601430A06005E02068E96AC06A95
:102CF000884200D82560E06A401CE0626864E86AA7
:102D0000A169884200D9A06100EB800007EB800038
:102D1000291D00F085FD00F0AFFDE06900280CD012
:102D20002068E96AC06A884207D208494FF080509B
:102D30000860BFF34F8FBFF36F8FBDE8F0810000D5
:102D40003000002088080020E80C002004ED00E09E
:102D500038B500F071FD104CA068C8B90F4800F0FC
:102D600039FD0E48143000F035FD0C482060143059
:102D700060600A4B00202833009003F150021021BC
:102D80000A2000F07DFFA06010B105A100F0F2FD67
:102D9000BDE8384000F070BD6C0000204C0D0020F4
:102DA000546D72510000000030B4026C0B46002AD2
:102DB0000BD0C1681144C1604468A14201D30168CD
:102DC000C16030BC1846FDF7FBB930BC70472DE937
:102DD000F041856B174604460026026C82B1C7B1EC
:102DE000E068FDF7EDF9E168206C091AE1602268FE
:102DF000914202D26168081AE060022F16D017E0F3
:102E00002068A8B9606801F067FA06460020606093
:102E10000EE0A068FDF7D4F9216CA0680844A0601A
:102E20006168884204D32068A06001E005B16D1E8E
:102E30006D1CA5633046BDE8F08110B5044690F8DE
:102E4000590058B101280CD002280FD0502080F32F
:102E50001188BFF34F8FBFF36F8FFEE7206B00F039
:102E60001FFD2046BDE8104000F01ABD10BD000057
:102E700010484FF4A051420706D0C01D0D4920F064
:102E80000700411AC1F5A0510B4A00230144C2E9D1
:102E900000030839103A21F0070111604B600B6004
:102EA0000B1AC0E9001393604FF000405360D060EC
:102EB000704700001C15002094000020144E154C93
:102EC000A6F29C474FF08058DFF84C9012E000BF0C
:102ED00000F0B2FCF068C568281D00F051FC2069C4
:102EE000401E2061E068401EE06000F0C5FC2846FE
:102EF000FFF7A3FFE0680028EAD138680128F9D974
:102F0000C9F80080BFF34F8FBFF36F8FF2E7000067
:102F1000240D00203000002004ED00E070B51D46B7
:102F2000049C51B1C4F80020C4E90F0101212046DE
:102F300000F0DAFE84F84C5070BD2460F4E72DE90F
:102F4000F0470E46DDE9098417468246910099460E
:102F5000089DA522206BFDF745F96FF00301206B5A
:102F600001EB8701084420F00707780707D05020BD
:102F700080F31188BFF34F8FBFF36F8FFEE72218E6
:102F8000315C82F83410315C11B1401C1028F6D34A
:102F9000002684F84360382D00D33725E562C4E964
:102FA0001356201D00F021FC04F1180000F01DFC58
:102FB0002461C5F138006462A061666584F85860D8
:102FC0004A465146384600F03BFA2060B8F1000FFF
:102FD00001D0C8F80040BDE8F087000030B51149C5
:102FE00000E011460A688242FBD34B685C188442B9
:102FF00003D1406818444860084643681C1894424E
:1030000009D1084C103C2468A24209D052681A44E5
:1030100042600A6812680260814200D0086030BDD8
:103020000460F9E79400002070B5002441600B4D66
:103030000061914206D8D11A8269914206D2011DDF
:10304000686807E09A4203D2994201D3012403E061
:10305000011D286800F0CCFB204670BD6C000020EC
:1030600010B5044600F0E8FBA06B28B15FF0000447
:1030700000F002FC204610BD0124F9E730B589B00C
:10308000304D55E00498002806DADDE90601059A7E
:103090009047049800284BDB069C606910B1201D06
:1030A00000F06EFB02A800F0B9F8024604980A2866
:1030B0003ED2DFE800F00505053D263705053D2633
:1030C0000598A169034601442046FFF7ADFF00B310
:1030D000616A20468847E069012829D100200090D4
:1030E0000598A169002342181946204601F0FEF90F
:1030F00078B9502080F31188BFF34F8FBFF36F8FE3
:10310000FEE70598A06128B1811813462046FFF715
:103110008BFF0DE0502080F31188BFF34F8FBFF37A
:103120006F8FFEE794F82C0010B9204600F0B8FB32
:10313000002204A9A86800F029FF0028A2D109B044
:1031400030BD00006C0000202DE9FC410F46054613
:1031500000F0F2FC01A800F061F80446019818B1F3
:1031600001F032F9BDE8FC81224EAFB17068006811
:10317000A8B30027291B3A46B06800F00FFC01F005
:1031800023F90028EED11C494FF080500860BFF3AE
:103190004F8FBFF36F8FE5E7A542EBD801F014F92D
:1031A00030682746C068C468201D00F0E9FAE0696D
:1031B000012810D1A0692B4641193A462046FFF755
:1031C00033FF40B100200346014600902A462046C6
:1031D00001F08CF920B1616A20468847C2E707E018
:1031E000502080F31188BFF34F8FBFF36F8FFEE73E
:1031F0000127BFE76C00002004ED00E006484168AD
:10320000096829B14168C968C9684968016370479C
:103210004FF0FF31FAE700003000002070B505469E
:1032200000F0F0FF064E04463069844203D200F0FD
:1032300009F8012000E0002028602046346170BDBC
:103240006C000020F8B5194D1FE0C068C46806681E
:10325000201D00F095FA616A20468847E069012840
:1032600013D1A0693044B04206D924616060211DA9
:10327000286800F0BDFA08E00020034601460090EF
:103280003246204601F032F938B128680168002939
:10329000DBD16968C5E90010F8BD502080F31188C2
:1032A000BFF34F8FBFF36F8FFEE700006C0000206D
:1032B00008484068401C4FF0500080F3118804D04B
:1032C000BFF34F8FBFF36F8FFEE7BFF34F8FBFF397
:1032D0006F8FFEE79C000020074C2068016841B119
:1032E000C0680021D0F80000FFF72EFFFFF7C6FEF0
:1032F000F3E701210020F7E76C0000202DE9F04101
:10330000044600F099FA94F9455004F1240609E0C6
:10331000606A48B1304601F01FF808B100F08EFB3A
:103320006D1E6DB2002DF3DC4FF0FF3684F8456062
:1033300000F0A2FA00F080FA94F9445004F110076A
:1033400009E0206948B1384601F006F808B100F0FC
:1033500075FB6D1E6DB2002DF3DC84F84460BDE892
:10336000F04100F089BA00002DE9F0410546002740
:1033700000F0E2FB314E306808B9FFF779FDF068E4
:1033800005424BD1C5B3083568070ED005F00700DC
:10339000C0F108000544680707D0502080F3118869
:1033A000BFF34F8FBFF36F8FFEE72DB37068854279
:1033B00034D82248103001460C6801E020460C4603
:1033C0006168A94202D221680029F7D131688C4294
:1033D00024D007682168016060680837411B102904
:1033E0000FD96019420708D0502080F31188BFF32D
:1033F0004F8FBFF36F8FFEE710E041606560FFF70E
:10340000EDFD61687068401A7060B268904200D249
:10341000B060F06801430020C4E9000100F0D4FF6F
:10342000780707D0502080F31188BFF34F8FBFF388
:103430006F8FFEE73846BDE8F08100008400002071
:1034400010B5031F4FF080741C601B1F21F0010199
:103450001960191F024B0B60143940380A6010BD07
:10346000B132000870B50C4602280BD254B117498E
:1034700001EBC00255683DB151F8303023B1E86826
:10348000984214D1002070BD114B00EB800503EB76
:103490004515556041F83050E96809B900F01AF84F
:1034A000207A2872207828706168686808E0506087
:1034B000217A01725168207808705068616840680C
:1034C0003222FCF77DFE012070BD0000902A002012
:1034D0005029002010B5022814D200EB80010B48BF
:1034E00000EB41100446A021FCF783FE002001E020
:1034F000092808D004EB001101F11002401CCA6039
:103500000A28F5DB10BDC4F89C4010BD50290020EE
:1035100000B587B00B7801934B680093097A0200DD
:1035200002910CD0012808D16B46032206A102208B
:10353000FFF7F8F9002800D0012007B000BD6B4666
:10354000032203A1F3E70000757361727432000077
:10355000757361727431000070B5144605005ED059
:10356000A4B3686A06295AD2DFE801F003080E31D5
:1035700051542146284600F055F84EE0FEF7A7F9D1
:10358000002085F8210048E095F82D10012946D04B
:1035900095F82C10072942D2DFE801F0040B410B0B
:1035A00012411200A188A3688AB22168FEF7D8FBF5
:1035B00004E0A1888AB22168FEF736FC30B92CE01D
:1035C000A1888AB22168FEF721FCF7E727E095F889
:1035D0002D1021B395F82C10072920D2DFE801F037
:1035E000041F0B0B1F111100A188A3688AB2216868
:1035F000FEF767FCE2E7A1888AB22168FEF7EAFCE1
:10360000DCE7A1888AB22168FEF7A8FCD6E7FEF7BE
:103610005EF9AEE795F821002070012070BD002012
:1036200070BD00002DE9F04106460D46D6E909407F
:10363000206008696060097D0020082902D00929FE
:1036400045D101E0A06002E04FF48051A160697DA6
:10365000012902D002293AD101E0E06002E04FF4F2
:103660000051E160A97D452906D04E2902D04F299D
:103670002DD104E0206105E04FF4806101E04FF4BA
:10368000C0612161697B012749B101290CD0022960
:103690001DD10C216161022186F82D1008E0042162
:1036A000616186F82D0003E00821616186F82D70C4
:1036B000A061E0612046FEF75DFA40B9287B012851
:1036C00008D0032806D004280AD0062808D00020F5
:1036D000BDE8F081322207492046FEF7A5FB04E051
:1036E000322204492046FEF791FB86F82170012022
:1036F000EEE700001C2900202DE9F04100241E4EB9
:103700001E4DA046305D05EBC407401CC2B23255C9
:10371000786850B355F8341039B30A2A25D381425A
:10372000204610D1FFF7F4FEF8B155F834104046AA
:10373000C1F80080C1F80480C1F8088045F83480E1
:10374000C7F8048010E0FFF7E3FE70B155F83410BD
:103750004046C1F80080C1F80480C1F8088055F8DF
:103760003410C96845F834103055641CE4B2022C9A
:10377000C8D3BDE8F0810000A8060020E02B00209F
:10378000D0E9013201699A60D0E901235A604A68A0
:10379000824201D182684A60002202610868401EAC
:1037A0000860086870470000034B036003F15C0089
:1037B0000860802010607047640E0020044B036096
:1037C00003F15C0008604FF48070106070470000E7
:1037D000C010002000F108014FF0FF32C0E90112D3
:1037E000C1600161002101607047002101617047E3
:1037F00030B50B685A1C02D000F1080202E00269E1
:1038000004E02246546825689D42FAD953684B600B
:1038100099608A60516008610168491C016030BD8F
:1038200042684A6093688B60936859609160086150
:103830000168491C01607047502080F31188BFF374
:103840004F8FBFF36F8F0A494868401C48600128BA
:103850000CD10848006810F0FF0F07D0502080F30B
:103860001188BFF34F8FBFF36F8FFEE770470000E3
:103870009C00002004ED00E00849486828B1401E83
:10388000486001D180F311887047502080F311887F
:10389000BFF34F8FBFF36F8FFEE700009C00002047
:1038A00070B5002827D0144DA0F108046168E868BD
:1038B000014207D1502080F31188BFF34F8FBFF32F
:1038C0006F8FFEE722683AB1502080F31188BFF372
:1038D0004F8FBFF36F8FFEE78143616000F02CF9DB
:1038E00060686968084468602046FFF777FBBDE8B8
:1038F000704000F069BD70BD840000204FF0E020F2
:1039000000210161816105494FF47A720968B1FBB8
:10391000F2F1491E41610721016170472C0000202E
:1039200010B5FCF737FC114910280ED300F1E02048
:1039300090F8F0030A78904207D2502080F3118863
:10394000BFF34F8FBFF36F8FFEE7094800688968A8
:1039500000F4E060884207D9502080F31188BFF35B
:103960004F8FBFF36F8FFEE710BD00009C0000205B
:103970000CED00E010B5084B002200BF53F83240B8
:103980001CB1521C082AF9D310BD43F8321003EBC6
:10399000C201486010BD00004808002070B51546FF
:1039A0000E460446FFF748FF94F944100020491CD6
:1039B00001D184F8440094F94510491C01D184F8E0
:1039C0004500FFF759FFA06B28B92A46314604F19C
:1039D000240000F051F82046BDE87040FFF78EBC8F
:1039E00010B5020014D00F48806B38B1502080F31E
:1039F0001188BFF34F8FBFF36F8FFEE700F09CF885
:103A000000211046FFF70EF900F0DEFC002807D178
:103A100005494FF080500860BFF34F8FBFF36F8FA1
:103A200010BD00003000002004ED00E002498A6A69
:103A3000026049694160704730000020014901205F
:103A4000486270473000002010B50C4650B109495B
:103A500009681831FFF7CCFE2046BDE8104001216F
:103A6000FFF7E0B8502080F31188BFF34F8FBFF30A
:103A70006F8FFEE73000002070B514460D4668B128
:103A80000A4909681831FFF7CBFE0CB14FF0FF353A
:103A900021462846BDE87040FFF7C4B8502080F3A7
:103AA0001188BFF34F8FBFF36F8FFEE73000002008
:103AB00030B587B00024039405AA04A903A8049490
:103AC000FFF772FEDDE903010094CDE90110002348
:103AD00015A11748059A00F05CFB164D0028686395
:103AE0001FD000F0D3FC012809D0401C19D1502070
:103AF00080F31188BFF34F8FBFF36F8FFEE7502025
:103B000080F31188BFF34F8FBFF36F8F4FF0FF30FB
:103B100028630120E8616C6107B0BDE8304000F027
:103B200045B807B030BD000049444C4500000000D6
:103B3000BD2E0008300000200248816B491C8163C3
:103B40007047000030000020164810B5816B11B19D
:103B50000121416210BD002141628169124A01E0E8
:103B6000B9B1491E01EB810352F82330002BF7D085
:103B700001EB810302EB830202F1080453685B68E6
:103B80005360A34201D15B685360DA6802608161CF
:103B900010BD502080F31188BFF34F8FBFF36F8F9C
:103BA000FEE7000030000020880800201CB52649F0
:103BB00008780190FF20087008788DF800009DF8C3
:103BC00000009DF8002000F0F000904207D0502047
:103BD00080F31188BFF34F8FBFF36F8FFEE79DF81F
:103BE00000001A4B00F0500018700720986005E0A4
:103BF0009DF8002052008DF80020401E9DF8002006
:103C00001206F5D49860032807D0502080F311885D
:103C1000BFF34F8FBFF36F8FFEE74FF44070986094
:103C2000019808700A48016841F470010160016858
:103C300041F070410160FFF761FE00205860FCF721
:103C400073FA00201CBD000000E400E09C0000208E
:103C500020ED00E010B5502080F31188BFF34F8FA6
:103C6000BFF36F8F00F0D4FA18B104494FF08050C1
:103C70000860002080F3118810BD000004ED00E012
:103C800038B5049D18B153B1CAB181B120E05020BC
:103C900080F31188BFF34F8FBFF36F8FFEE7502083
:103CA00080F31188BFF34F8FBFF36F8FFEE7502073
:103CB00080F31188BFF34F8FBFF36F8FFEE739B1E9
:103CC000502080F31188BFF34F8FBFF36F8FFEE753
:103CD00050241C46012384F846302B460094FFF7FD
:103CE0001DF9204638BD000070B50D46040025D0F2
:103CF000FFF7A2FDD4E90F20216802FB00116160EB
:103D00000021A1632168A1600A46D4E90F01401E89
:103D100000FB0121E16021464FF0FF3001F8440F24
:103D2000487004F110008DB1FFF754FD04F1240038
:103D3000FFF750FDFFF7A0FD012070BD502080F37C
:103D40001188BFF34F8FBFF36F8FFEE72169002902
:103D5000F0D000F001FB0028ECD004494FF0805077
:103D60000860BFF34F8FBFF36F8FE3E704ED00E010
:103D70002DE9FF4782B01D468A464FF00008040037
:103D800003D0BAF1000F08D011E0502080F3118861
:103D9000BFF34F8FBFF36F8FFEE7206C38B1502019
:103DA00080F31188BFF34F8FBFF36F8FFEE7022DB3
:103DB0000AD1E06B012807D0502080F31188BFF3AF
:103DC0004F8FBFF36F8FFEE700F00EFA3F4F4FF0BB
:103DD00000094FF0805648B9049838B1502080F35C
:103DE0001188BFF34F8FBFF36F8FFEE7FFF724FDFE
:103DF000A06BE16B884207D3022D05D00498D0B1A7
:103E0000B8F1000F1AD01EE02A4651462046FEF7B0
:103E1000DEFF616A19B104F1240000F09DFA20B1BF
:103E20003E60BFF34F8FBFF36F8FFFF725FD01207B
:103E300006B0BDE8F087FFF71FFD22E06846FFF7F8
:103E4000F5FD4FF00108FFF717FDFFF775FEFFF7CF
:103E5000F3FC94F94400401C01D184F8449094F997
:103E60004500401C01D184F84590FFF705FD04A9E9
:103E7000684600F027F930B12046FFF73FFA00F01E
:103E8000A3FA0020D4E7FFF7D7FCA06BE16B8842D0
:103E900013D1FFF7F1FC04F110000499FFF7D4FDF2
:103EA0002046FFF72BFA00F08FFA00289ED13E60E3
:103EB000BFF34F8FBFF36F8F98E7FFF7DDFC20460E
:103EC000FFF71CFA00F080FA90E7000004ED00E034
:103ED0002DE9F0471F4690468946040003D0B9F10A
:103EE000000F08D011E0502080F31188BFF34F8FEE
:103EF000BFF36F8FFEE7206C38B1502080F311883C
:103F0000BFF34F8FBFF36F8FFEE7022F0AD1E06B35
:103F1000012807D0502080F31188BFF34F8FBFF3E3
:103F20006F8FFEE7FFF7FCFC5020EFF3118680F364
:103F30001188BFF34F8FBFF36F8FA06BE16B884287
:103F400006D3022F04D0002086F31188BDE8F08745
:103F500094F945503A4649462046FEF738FF681C1A
:103F600004D06D1C84F845500120EDE7606A0028FC
:103F7000FAD004F1240000F0EFF90028F4D0B8F1F1
:103F8000000FF1D00121C8F80010EDE72DE9F74747
:103F9000002683B08A46040003D0BAF1000F08D08F
:103FA00011E0502080F31188BFF34F8FBFF36F8F64
:103FB000FEE7206C38B1502080F31188BFF34F8F9B
:103FC000BFF36F8FFEE700F00FF9DFF8F4804FF0DA
:103FD00000094FF0805748B9059838B1502080F358
:103FE0001188BFF34F8FBFF36F8FFEE7FFF724FCFD
:103FF000A56BC5B151462046FEF7D6FE6D1EA563E2
:10400000206950B104F1100000F0A6F928B1C8F8F9
:104010000070BFF34F8FBFF36F8FFFF72DFC0120B0
:1040200006B0BDE8F087059808B11EB106E0FFF7BD
:1040300023FC27E06846FFF7F9FC0126FFF71CFC8C
:10404000FFF77AFDFFF7F8FB94F94400401C01D11B
:1040500084F8449094F94500401C01D184F84590BF
:10406000FFF70AFC05A9684600F02CF80028204656
:104070000AD0FFF743F900F0A7F92046FEF7F0FF5A
:104080000028B3D00020CBE7FEF7EAFF90B104F19F
:1040900024000599FFF7D8FC2046FFF72FF900F020
:1040A00093F90028A2D1C8F80070BFF34F8FBFF377
:1040B0006F8F9BE72046FFF721F900F085F995E720
:1040C00004ED00E02DE9F0410C46050011D0C4B12B
:1040D000FFF7B2FB174B5A696E682068911B471CAB
:1040E00017D02F689B6A9F4219D0964217D8012497
:1040F00010E0502080F31188BFF34F8FBFF36F8F14
:10410000FEE7502080F31188BFF34F8FBFF36F8F0E
:10411000FEE70024FFF7B0FB2046BDE8F0818842AF
:1041200005D9401A20602846FFF780FCF1E70020FF
:104130002060DCE7300000202DE9FF5F8346DDE9E9
:104140000E87994616468A469000FFF70DF905003E
:104150001CD05C20FFF708F9040014D00020256370
:1041600084F85900CDE90240CDE900874B4632463C
:1041700051465846FEF7E3FE2046FEF781FD01203A
:1041800004B0BDE8F09F2846FFF78AFB4FF0FF30F0
:10419000F6E7F0B585B0DDE90B640A9DA6B1DCB1A8
:1041A0005C2700972663022684F85960002604AF36
:1041B000CDE90246CDE90057FEF7C1FE2046FEF7E5
:1041C0005FFD049805B0F0BD502080F31188BFF367
:1041D0004F8FBFF36F8FFEE7502080F31188BFF33E
:1041E0004F8FBFF36F8FFEE70548C16919B1806B30
:1041F00018B100207047012070470220704700006E
:104200003000002001484069704700003000002065
:104210002DE9F0412E4C0027A06B40B1206A401CD4
:104220002062606A00B101273846BDE8F081666906
:10423000761C666113D16068006838B1502080F345
:104240001188BFF34F8FBFF36F8FFEE76068A168DF
:104250006160A060A06A401CA062FEF7CFFF206BE7
:10426000DFF87080864209D36068006880B16068BA
:10427000C068C568686886420DD220632068C06A3D
:1042800000EB800158F821000128CAD90127C8E7AE
:104290004FF0FF30F1E7281DFFF772FAA86A18B156
:1042A00005F11800FFF76CFAE86AA169884200D9A5
:1042B000A06100EB800108EB8100291DFFF7B0FA37
:1042C000E86A2168C96A8842CED30127CCE700009A
:1042D000300000208808002070B504004FF0000175
:1042E00033D01B4D2868844207D0502080F31188BA
:1042F000BFF34F8FBFF36F8FFEE7206D38B1401EC5
:104300002065E36CE26A9A421FD040B11DE0502064
:1043100080F31188BFF34F8FBFF36F8FFEE7201D2F
:10432000FFF72EFAE06CE062C0F13800A061E06AAD
:10433000A969884200D9A861064900EB800001EB19
:104340008000211DFFF76CFA0121084670BD0000B6
:10435000300000208808002070B5C068C46854B1DF
:1043600004F118000646FFF70BFA144DA86B50B184
:104370003146134815E0502080F31188BFF34F8F6A
:10438000BFF36F8FFEE7201DFFF7FAF9E06AA96916
:10439000884200D9A8610B4900EB800001EB800046
:1043A000211DFFF73DFAE06A2968C96A884202D9EF
:1043B0000120686270BD002070BD00003000002048
:1043C000100D0020880800202DE9F0472C4D002416
:1043D0002746A86B38B1FFF72FFAA86B401EA863D9
:1043E000A86B40B146E0502080F31188BFF34F8F97
:1043F000BFF36F8FFEE72969224E0120D1B3A6F5E6
:10440000916980463068E0B1F068C46804F1180032
:10441000FFF7B6F9201DFFF7B3F9E06AA9698842F2
:1044200000D9A86100EB800109EB8100211DFFF795
:10443000F7F9E06A2968C96A8842E3D3C5F824809D
:10444000E0E70CB1FEF7DAFE2C6A4CB14FEA080641
:10445000FFF7DEFE00B16E62641EF9D10020286213
:10446000686A38B10849012738070860BFF34F8FE1
:10447000BFF36F8FFFF700FA3846BDE8F087000002
:1044800030000020100D002004ED00E010B586B0D3
:10449000FEF75EFC114CA068B8B1002003900490B8
:1044A00005AA04A903A8FFF789F9DDE90321022081
:1044B0008DE8070000230AA10B48059AFFF769FE63
:1044C000E06010B106B0012010BD502080F31188CB
:1044D000BFF34F8FBFF36F8FFEE700006C0000202B
:1044E000546D722053766300D93200082DE9FF41E4
:1044F0001E46134602000A9D4FF0000016D0144CD1
:10450000A768002F0FD0CDE900130292062917DA11
:10451000FFF76AFE02284FF000030FD00022694621
:10452000A068FFF725FC04B0BDE8F081502080F3BF
:104530001188BFF34F8FBFF36F8FFEE72A46EEE778
:104540000023324669463846FFF7C2FCEBE700001D
:104550006C000020D44500080000000000000000AE
:104560000000000000000000000200001800000031
:104570000000000000000000C84500080000000026
:104580000000000000000000000000000002000029
:10459000080000000000000000000000010202030B
:1045A0000405060708090A0B0C0D0E0F1010000079
:1045B00000000000000001020304060708090000D3
:1045C00000000102030400004253505F5461736B0A
:1045D0003100000064656661756C745461736B0032
:1045E0000046000800000020C00600004802000845
:1045F000E4460008C0060020C02A00006628000823
:1046000001142306022380251408014E3201821072
:10461000037124F41AAA015100091C6164647265D3
:10462000737331850801402059300A1D3230DA4059
:10463000300A1D3330DA8030021C34850C01400111
:1046400000081D72756E5F6C656419308202080C7B
:104650001A69736F5F61635F6374726C30AA0430B0
:104660000E19706F77657233193011693129300F67
:104670001B73656C6563749011AA10900A1F3290C9
:1046800011AA20300A203130AA40300A203030727E
:10469000803E72656C61792F0A1A31308208893048
:1046A0000A1A323069EF0F180275736172745B4138
:1046B0001B3007EE6E38014006023009185B412AB4
:1046C00078301A44F219300D1C0363616E5E211BB1
:1046D000C00630126405FF4090D00301FF01FF01C6
:0446E0001C000000BA
:04000005080000ED02
:00000001FF
